{
  "contractName": "AccessManager",
  "abi": [
    {
      "constant": true,
      "inputs": [
        {
          "name": "",
          "type": "address"
        }
      ],
      "name": "accessManager",
      "outputs": [
        {
          "name": "",
          "type": "bool"
        }
      ],
      "payable": false,
      "stateMutability": "view",
      "type": "function"
    },
    {
      "inputs": [
        {
          "name": "dev1",
          "type": "address"
        },
        {
          "name": "dev2",
          "type": "address"
        },
        {
          "name": "dev3",
          "type": "address"
        },
        {
          "name": "dev4",
          "type": "address"
        }
      ],
      "payable": false,
      "stateMutability": "nonpayable",
      "type": "constructor"
    },
    {
      "constant": false,
      "inputs": [
        {
          "name": "newManager",
          "type": "address"
        }
      ],
      "name": "transferOwnership",
      "outputs": [],
      "payable": false,
      "stateMutability": "nonpayable",
      "type": "function"
    }
  ],
  "bytecode": "0x608060405234801561001057600080fd5b506040516080806104178339810180604052810190808051906020019092919080519060200190929190805190602001909291908051906020019092919050505060016000808673ffffffffffffffffffffffffffffffffffffffff1673ffffffffffffffffffffffffffffffffffffffff16815260200190815260200160002060006101000a81548160ff02191690831515021790555060016000808573ffffffffffffffffffffffffffffffffffffffff1673ffffffffffffffffffffffffffffffffffffffff16815260200190815260200160002060006101000a81548160ff02191690831515021790555060016000808473ffffffffffffffffffffffffffffffffffffffff1673ffffffffffffffffffffffffffffffffffffffff16815260200190815260200160002060006101000a81548160ff02191690831515021790555060016000808373ffffffffffffffffffffffffffffffffffffffff1673ffffffffffffffffffffffffffffffffffffffff16815260200190815260200160002060006101000a81548160ff02191690831515021790555050505050610257806101c06000396000f30060806040526004361061004c576000357c0100000000000000000000000000000000000000000000000000000000900463ffffffff1680634286158914610051578063f2fde38b146100ac575b600080fd5b34801561005d57600080fd5b50610092600480360381019080803573ffffffffffffffffffffffffffffffffffffffff1690602001909291905050506100ef565b604051808215151515815260200191505060405180910390f35b3480156100b857600080fd5b506100ed600480360381019080803573ffffffffffffffffffffffffffffffffffffffff16906020019092919050505061010f565b005b60006020528060005260406000206000915054906101000a900460ff1681565b336000808273ffffffffffffffffffffffffffffffffffffffff1673ffffffffffffffffffffffffffffffffffffffff16815260200190815260200160002060009054906101000a900460ff1615156101d0576040517f08c379a000000000000000000000000000000000000000000000000000000000815260040180806020018281038252600e8152602001807f4e6f74207065726d697373696f6e00000000000000000000000000000000000081525060200191505060405180910390fd5b60016000808473ffffffffffffffffffffffffffffffffffffffff1673ffffffffffffffffffffffffffffffffffffffff16815260200190815260200160002060006101000a81548160ff02191690831515021790555050505600a165627a7a723058208ae10731399c87d89ac5759385b659efb628562efbb20240b33c6ce9d6b1c5580029",
  "source": "pragma solidity ^0.4.24;\r\n\r\ncontract AccessManager {\r\n\r\n    mapping (address => bool) public accessManager;\r\n\r\n    constructor(address dev1, address dev2, address dev3, address dev4){\r\n        accessManager[dev1] = true;\r\n        accessManager[dev2] = true;\r\n        accessManager[dev3] = true;\r\n        accessManager[dev4] = true;\r\n    }\r\n\r\n    modifier isAccessManager(address manager) {\r\n        require(accessManager[manager], 'Not permission');\r\n        _;\r\n    }\r\n\r\n    function transferOwnership(address newManager) public isAccessManager(msg.sender) {\r\n        accessManager[newManager] = true;\r\n    }\r\n}",
  "sourcePath": "C:\\blockchain\\new_version\\hashlottery3\\truffle\\contracts\\AccessManager.sol",
  "compiler": {
    "name": "solc",
    "version": "0.4.24+commit.e67f0147.Emscripten.clang"
  },
  "schemaVersion": "2.0.1",
  "updatedAt": "2018-12-10T17:48:04.891Z"
}