{
  "contractName": "Crowdsale",
  "abi": [
    {
      "constant": true,
      "inputs": [],
      "name": "bonusPriceDivider",
      "outputs": [
        {
          "name": "",
          "type": "uint256"
        }
      ],
      "payable": false,
      "stateMutability": "view",
      "type": "function"
    },
    {
      "constant": true,
      "inputs": [],
      "name": "bonusDeadline",
      "outputs": [
        {
          "name": "",
          "type": "uint256"
        }
      ],
      "payable": false,
      "stateMutability": "view",
      "type": "function"
    },
    {
      "constant": true,
      "inputs": [],
      "name": "deadline",
      "outputs": [
        {
          "name": "",
          "type": "uint256"
        }
      ],
      "payable": false,
      "stateMutability": "view",
      "type": "function"
    },
    {
      "constant": true,
      "inputs": [],
      "name": "tokensSold",
      "outputs": [
        {
          "name": "",
          "type": "uint256"
        }
      ],
      "payable": false,
      "stateMutability": "view",
      "type": "function"
    },
    {
      "constant": true,
      "inputs": [],
      "name": "tokenContract",
      "outputs": [
        {
          "name": "",
          "type": "address"
        }
      ],
      "payable": false,
      "stateMutability": "view",
      "type": "function"
    },
    {
      "constant": true,
      "inputs": [],
      "name": "multisigContractAddress",
      "outputs": [
        {
          "name": "",
          "type": "address"
        }
      ],
      "payable": false,
      "stateMutability": "view",
      "type": "function"
    },
    {
      "constant": true,
      "inputs": [],
      "name": "bonusPercentage",
      "outputs": [
        {
          "name": "",
          "type": "uint256"
        }
      ],
      "payable": false,
      "stateMutability": "view",
      "type": "function"
    },
    {
      "constant": true,
      "inputs": [],
      "name": "priceMultiplier",
      "outputs": [
        {
          "name": "",
          "type": "uint256"
        }
      ],
      "payable": false,
      "stateMutability": "view",
      "type": "function"
    },
    {
      "constant": true,
      "inputs": [],
      "name": "investorCount",
      "outputs": [
        {
          "name": "",
          "type": "uint256"
        }
      ],
      "payable": false,
      "stateMutability": "view",
      "type": "function"
    },
    {
      "constant": false,
      "inputs": [
        {
          "name": "newOwner",
          "type": "address"
        }
      ],
      "name": "transferOwnership",
      "outputs": [],
      "payable": false,
      "stateMutability": "nonpayable",
      "type": "function"
    },
    {
      "inputs": [
        {
          "name": "_multisigContractAddress",
          "type": "address"
        },
        {
          "name": "_tokenAddress",
          "type": "address"
        }
      ],
      "payable": false,
      "stateMutability": "nonpayable",
      "type": "constructor"
    },
    {
      "payable": true,
      "stateMutability": "payable",
      "type": "fallback"
    },
    {
      "anonymous": false,
      "inputs": [
        {
          "indexed": false,
          "name": "recipient",
          "type": "address"
        }
      ],
      "name": "GoalReached",
      "type": "event"
    },
    {
      "anonymous": false,
      "inputs": [
        {
          "indexed": false,
          "name": "backer",
          "type": "address"
        },
        {
          "indexed": false,
          "name": "amount",
          "type": "uint256"
        }
      ],
      "name": "FundTransfer",
      "type": "event"
    },
    {
      "anonymous": false,
      "inputs": [
        {
          "indexed": false,
          "name": "investor",
          "type": "address"
        }
      ],
      "name": "BeforeDeadlineBonus",
      "type": "event"
    },
    {
      "anonymous": false,
      "inputs": [
        {
          "indexed": false,
          "name": "investor",
          "type": "address"
        }
      ],
      "name": "EarlyInvestorBonus",
      "type": "event"
    },
    {
      "anonymous": false,
      "inputs": [
        {
          "indexed": false,
          "name": "investor",
          "type": "address"
        }
      ],
      "name": "AdditionalBonus",
      "type": "event"
    },
    {
      "constant": true,
      "inputs": [
        {
          "name": "weiAmount",
          "type": "uint256"
        }
      ],
      "name": "estimateTokens",
      "outputs": [
        {
          "name": "tokenEstimation",
          "type": "uint256"
        }
      ],
      "payable": false,
      "stateMutability": "view",
      "type": "function"
    },
    {
      "constant": false,
      "inputs": [],
      "name": "checkGoalReached",
      "outputs": [],
      "payable": false,
      "stateMutability": "nonpayable",
      "type": "function"
    },
    {
      "constant": true,
      "inputs": [],
      "name": "isCrowdsaleClosed",
      "outputs": [
        {
          "name": "",
          "type": "bool"
        }
      ],
      "payable": false,
      "stateMutability": "view",
      "type": "function"
    },
    {
      "constant": true,
      "inputs": [],
      "name": "getInvestorCount",
      "outputs": [
        {
          "name": "",
          "type": "uint256"
        }
      ],
      "payable": false,
      "stateMutability": "view",
      "type": "function"
    },
    {
      "constant": true,
      "inputs": [],
      "name": "getTokensSold",
      "outputs": [
        {
          "name": "",
          "type": "uint256"
        }
      ],
      "payable": false,
      "stateMutability": "view",
      "type": "function"
    }
  ],
  "bytecode": "0x60806040526000600a60006101000a81548160ff0219169083151502179055506000600a60016101000a81548160ff02191690831515021790555034801561004657600080fd5b5060405160408061107b8339810180604052810190808051906020019092919080519060200190929190505050336000806101000a81548173ffffffffffffffffffffffffffffffffffffffff021916908373ffffffffffffffffffffffffffffffffffffffff16021790555081600160006101000a81548173ffffffffffffffffffffffffffffffffffffffff021916908373ffffffffffffffffffffffffffffffffffffffff16021790555061010c81610153640100000000026401000000009004565b62093a8042016003819055506202a3004201600481905550600460058190555060e16006819055506014600781905550600060088190555060006009819055505050610197565b80600260006101000a81548173ffffffffffffffffffffffffffffffffffffffff021916908373ffffffffffffffffffffffffffffffffffffffff16021790555050565b610ed5806101a66000396000f3006080604052600436106100db576000357c0100000000000000000000000000000000000000000000000000000000900463ffffffff16806301cb3b201461075d5780630cce5277146107745780630ef2d7af1461079f57806329dcb0cf146107ca578063518ab2a8146107f557806355a373d61461082057806364b054ec14610877578063813d6c9a146108ce5780638807a110146108f9578063960524e314610928578063d50cb88b14610953578063d7e64c001461097e578063ea6be96f146109a9578063ee7c0db0146109ea578063f2fde38b14610a15575b600080600080600080600a60019054906101000a900460ff16151515610169576040517f08c379a000000000000000000000000000000000000000000000000000000000815260040180806020018281038252601c8152602001807f43726f776473616c6520697320636c6f73656420616c72656164792e0000000081525060200191505060405180910390fd5b3495506000861415151561020b576040517f08c379a00000000000000000000000000000000000000000000000000000000081526004018080602001828103825260278152602001807f596f75206861766520746f2073656e6420736f6d652045544820746f2043726f81526020017f776473616c652e0000000000000000000000000000000000000000000000000081525060400191505060405180910390fd5b60045442111515610292576006546103e8870281151561022757fe5b0494507fe56f61e17dcdcc580ec36887a6b4e58def02ad2fed382fe0413abe4ba6dd2be133604051808273ffffffffffffffffffffffffffffffffffffffff1673ffffffffffffffffffffffffffffffffffffffff16815260200191505060405180910390a161029a565b600554860294505b600460085411151561031f576007546064868115156102b557fe5b0402850194507fbd9c2211679b12cfccdef389e5918f318a83bd77bf31b43b0861c3576fb6400d33604051808273ffffffffffffffffffffffffffffffffffffffff1673ffffffffffffffffffffffffffffffffffffffff16815260200191505060405180910390a15b68056bc75e2d631000008581151561033357fe5b04935060008411156103c25761035c670de0b6b3a7640000850286610a5890919063ffffffff16565b94507fbeb17a49ccd5ce1f0c6d5af6639c024b4a1288ff464816b826b4fd23660d188b33604051808273ffffffffffffffffffffffffffffffffffffffff1673ffffffffffffffffffffffffffffffffffffffff16815260200191505060405180910390a15b600260009054906101000a900473ffffffffffffffffffffffffffffffffffffffff1673ffffffffffffffffffffffffffffffffffffffff166370a08231306040518263ffffffff167c0100000000000000000000000000000000000000000000000000000000028152600401808273ffffffffffffffffffffffffffffffffffffffff1673ffffffffffffffffffffffffffffffffffffffff168152602001915050602060405180830381600087803b15801561047f57600080fd5b505af1158015610493573d6000803e3d6000fd5b505050506040513d60208110156104a957600080fd5b81019080805190602001909291905050509250828511156105495784606484028115156104d257fe5b04915060648260640387028115156104e657fe5b0490506104fc8187610a7990919063ffffffff16565b95508294503373ffffffffffffffffffffffffffffffffffffffff166108fc829081150290604051600060405180830381858888f19350505050158015610547573d6000803e3d6000fd5b505b600160009054906101000a900473ffffffffffffffffffffffffffffffffffffffff1673ffffffffffffffffffffffffffffffffffffffff166108fc879081150290604051600060405180830381858888f193505050501580156105b1573d6000803e3d6000fd5b50600260009054906101000a900473ffffffffffffffffffffffffffffffffffffffff1673ffffffffffffffffffffffffffffffffffffffff1663a9059cbb33876040518363ffffffff167c0100000000000000000000000000000000000000000000000000000000028152600401808373ffffffffffffffffffffffffffffffffffffffff1673ffffffffffffffffffffffffffffffffffffffff16815260200182815260200192505050602060405180830381600087803b15801561067757600080fd5b505af115801561068b573d6000803e3d6000fd5b505050506040513d60208110156106a157600080fd5b8101908080519060200190929190505050506106c885600954610a5890919063ffffffff16565b6009819055507f97c35397cb6acebd9df368c206404479fc4c80dd6034d1b28943aaf5826318703387604051808373ffffffffffffffffffffffffffffffffffffffff1673ffffffffffffffffffffffffffffffffffffffff1681526020018281526020019250505060405180910390a161074f6001600854610a5890919063ffffffff16565b600881905550505050505050005b34801561076957600080fd5b50610772610a9a565b005b34801561078057600080fd5b50610789610c64565b6040518082815260200191505060405180910390f35b3480156107ab57600080fd5b506107b4610c6a565b6040518082815260200191505060405180910390f35b3480156107d657600080fd5b506107df610c70565b6040518082815260200191505060405180910390f35b34801561080157600080fd5b5061080a610c76565b6040518082815260200191505060405180910390f35b34801561082c57600080fd5b50610835610c7c565b604051808273ffffffffffffffffffffffffffffffffffffffff1673ffffffffffffffffffffffffffffffffffffffff16815260200191505060405180910390f35b34801561088357600080fd5b5061088c610ca2565b604051808273ffffffffffffffffffffffffffffffffffffffff1673ffffffffffffffffffffffffffffffffffffffff16815260200191505060405180910390f35b3480156108da57600080fd5b506108e3610cc8565b6040518082815260200191505060405180910390f35b34801561090557600080fd5b5061090e610cce565b604051808215151515815260200191505060405180910390f35b34801561093457600080fd5b5061093d610ce5565b6040518082815260200191505060405180910390f35b34801561095f57600080fd5b50610968610cef565b6040518082815260200191505060405180910390f35b34801561098a57600080fd5b50610993610cf5565b6040518082815260200191505060405180910390f35b3480156109b557600080fd5b506109d460048036038101908080359060200190929190505050610cfb565b6040518082815260200191505060405180910390f35b3480156109f657600080fd5b506109ff610d98565b6040518082815260200191505060405180910390f35b348015610a2157600080fd5b50610a56600480360381019080803573ffffffffffffffffffffffffffffffffffffffff169060200190929190505050610da2565b005b6000808284019050838110151515610a6f57600080fd5b8091505092915050565b600080838311151515610a8b57600080fd5b82840390508091505092915050565b60035442101515610c62576000600260009054906101000a900473ffffffffffffffffffffffffffffffffffffffff1673ffffffffffffffffffffffffffffffffffffffff166370a08231306040518263ffffffff167c0100000000000000000000000000000000000000000000000000000000028152600401808273ffffffffffffffffffffffffffffffffffffffff1673ffffffffffffffffffffffffffffffffffffffff168152602001915050602060405180830381600087803b158015610b6457600080fd5b505af1158015610b78573d6000803e3d6000fd5b505050506040513d6020811015610b8e57600080fd5b81019080805190602001909291905050501415610c46576001600a60006101000a81548160ff0219169083151502179055507f032d0b6fb0b369dd3d7406088b1b3ca11d9d7783039824774cf780292a223737600160009054906101000a900473ffffffffffffffffffffffffffffffffffffffff16604051808273ffffffffffffffffffffffffffffffffffffffff1673ffffffffffffffffffffffffffffffffffffffff16815260200191505060405180910390a15b6001600a60016101000a81548160ff0219169083151502179055505b565b60065481565b60045481565b60035481565b60095481565b600260009054906101000a900473ffffffffffffffffffffffffffffffffffffffff1681565b600160009054906101000a900473ffffffffffffffffffffffffffffffffffffffff1681565b60075481565b6000600a60019054906101000a900460ff16905090565b6000600854905090565b60055481565b60085481565b600080600060045442111515610d24576006546103e88502811515610d1c57fe5b049150610d2c565b600554840291505b6004600854111515610d4e57600754606483811515610d4757fe5b0402820191505b68056bc75e2d6310000082811515610d6257fe5b0490506000811115610d8e57610d8b670de0b6b3a7640000820283610a5890919063ffffffff16565b91505b8192505050919050565b6000600954905090565b6000809054906101000a900473ffffffffffffffffffffffffffffffffffffffff1673ffffffffffffffffffffffffffffffffffffffff163373ffffffffffffffffffffffffffffffffffffffff16141515610e66576040517f08c379a000000000000000000000000000000000000000000000000000000000815260040180806020018281038252601e8152602001807f4f6e6c79206f776e65722063616e20646f207468697320616374696f6e21000081525060200191505060405180910390fd5b806000806101000a81548173ffffffffffffffffffffffffffffffffffffffff021916908373ffffffffffffffffffffffffffffffffffffffff160217905550505600a165627a7a72305820c5644ba29d9aee2fcd873226d851799fa676ecb70e9da09dda342470358cf4300029",
  "source": "pragma solidity ^0.4.24;\r\n\r\nimport \"./owner.sol\";\r\nimport \"./interfaces/IERC20.sol\";\r\nimport './libraries/SafeMath.sol';\r\nimport './interfaces/ICrowdsale.sol';\r\n\r\ncontract Crowdsale is Ownable, ICrowdsale\r\n{\r\n    using SafeMath for uint256;\r\n\r\n    address public multisigContractAddress;\r\n    IERC20 public tokenContract;\r\n\r\n    uint256 public deadline;\r\n    uint256 public bonusDeadline;\r\n    uint256 public priceMultiplier;\r\n    uint256 public bonusPriceDivider;\r\n    uint256 public bonusPercentage;\r\n    uint256 public investorCount;\r\n    uint256 public tokensSold;\r\n    //uint256 public leftSold;\r\n\r\n    bool private fundingGoalReached = false;\r\n    bool private crowdsaleClosed = false;\r\n\r\n    event GoalReached(address recipient);\r\n    event FundTransfer(address backer, uint amount);\r\n    \r\n    event BeforeDeadlineBonus(address investor);\r\n    event EarlyInvestorBonus(address investor);\r\n    event AdditionalBonus(address investor);\r\n\r\n    constructor (address _multisigContractAddress, address _tokenAddress) public\r\n    {\r\n        multisigContractAddress = _multisigContractAddress;\r\n        setERC20TokenAddress(_tokenAddress);\r\n\r\n        deadline = now + 10080 minutes;\r\n        bonusDeadline = now + 2880 minutes;\r\n        priceMultiplier = 4;\r\n        bonusPriceDivider = 225;\r\n        bonusPercentage = 20;\r\n        investorCount = 0;\r\n        tokensSold = 0;\r\n        //leftSold = 40000e18;\r\n    }\r\n\r\n    function setERC20TokenAddress(address tokenAddress) private\r\n    {\r\n        tokenContract = IERC20(tokenAddress);\r\n    }\r\n\r\n    function estimateTokens(uint weiAmount) public view returns(uint tokenEstimation)\r\n    {\r\n        uint tokens;\r\n\r\n        if (now <= bonusDeadline)\r\n        {\r\n            tokens = (weiAmount * 1000) / bonusPriceDivider;\r\n        }\r\n        else\r\n        {\r\n            tokens = weiAmount * priceMultiplier;\r\n        }\r\n\r\n        if (investorCount <= 4)\r\n        {\r\n            tokens += (tokens / 100) * bonusPercentage;\r\n        }\r\n\r\n        uint256 additionalBonus = tokens / 100000000000000000000;\r\n        if(additionalBonus > 0)\r\n        {\r\n            tokens = tokens.add(additionalBonus * 1000000000000000000);\r\n        }\r\n\r\n        return tokens;\r\n    }\r\n\r\n    function() payable public\r\n    {\r\n        require(!crowdsaleClosed, \"Crowdsale is closed already.\");\r\n\r\n        uint amount = msg.value;\r\n        require(amount != 0, \"You have to send some ETH to Crowdsale.\");\r\n\r\n        uint tokensForTransfer;\r\n        if (now <= bonusDeadline)\r\n        {\r\n            tokensForTransfer = (amount * 1000) / bonusPriceDivider;\r\n            emit BeforeDeadlineBonus(msg.sender);\r\n        }\r\n        else\r\n        {\r\n            tokensForTransfer = amount * priceMultiplier;\r\n        }\r\n\r\n        if (investorCount <= 4)\r\n        {\r\n            tokensForTransfer += (tokensForTransfer / 100) * bonusPercentage;\r\n            emit EarlyInvestorBonus(msg.sender);\r\n        }\r\n\r\n        uint256 additionalBonus = tokensForTransfer / 100000000000000000000;\r\n        if(additionalBonus > 0)\r\n        {\r\n            tokensForTransfer = tokensForTransfer.add(additionalBonus * 1000000000000000000);\r\n            emit AdditionalBonus(msg.sender);\r\n        }\r\n\r\n        uint256 currentCrowdsaleBalance = tokenContract.balanceOf(this);\r\n\r\n        //if(tokensForTransfer > leftSold)\r\n        if (tokensForTransfer > currentCrowdsaleBalance)\r\n        {\r\n            //uint availablePercentage = (leftSold * 100) / tokensForTransfer;\r\n            uint availablePercentage = (currentCrowdsaleBalance * 100) / tokensForTransfer;\r\n            uint returnAmount = (amount * (100 - availablePercentage)) / 100;\r\n            amount = amount.sub(returnAmount);\r\n\r\n            //tokensForTransfer = leftSold;\r\n            tokensForTransfer = currentCrowdsaleBalance;\r\n            msg.sender.transfer(returnAmount);\r\n        }\r\n\r\n        multisigContractAddress.transfer(amount);\r\n        tokenContract.transfer(msg.sender, tokensForTransfer);\r\n        tokensSold = tokensSold.add(tokensForTransfer);\r\n        //leftSold = leftSold.sub(tokensForTransfer);\r\n        emit FundTransfer(msg.sender, amount);\r\n\r\n        investorCount = investorCount.add(1);\r\n    }\r\n\r\n    modifier afterDeadline()\r\n    {\r\n        if (now >= deadline)\r\n            _;\r\n    }\r\n\r\n    modifier beforeDeadline()\r\n    {\r\n        if (now < deadline)\r\n            _;\r\n    }\r\n\r\n    function checkGoalReached() public afterDeadline\r\n    {\r\n        //if(leftSold == 0)\r\n        if (tokenContract.balanceOf(this) == 0)\r\n        {\r\n            fundingGoalReached = true;\r\n            emit GoalReached(multisigContractAddress);\r\n        }\r\n        crowdsaleClosed = true;\r\n    }\r\n\r\n    function isCrowdsaleClosed() public view returns(bool)\r\n    {\r\n        return crowdsaleClosed;\r\n    }\r\n\r\n    function getInvestorCount() public view returns(uint256)\r\n    {\r\n        return investorCount;\r\n    }\r\n\r\n    function getTokensSold() public view returns(uint256)\r\n    {\r\n        return tokensSold;\r\n    }\r\n}",
  "sourcePath": "C:\\blockchain\\new_version\\hashlottery3\\truffle\\contracts\\Crowdsale.sol",
  "compiler": {
    "name": "solc",
    "version": "0.4.24+commit.e67f0147.Emscripten.clang"
  },
  "schemaVersion": "2.0.1",
  "updatedAt": "2018-12-10T17:52:30.291Z"
}