{
  "contractName": "ERC721",
  "abi": [
    {
      "constant": true,
      "inputs": [],
      "name": "totalSupply",
      "outputs": [
        {
          "name": "",
          "type": "uint256"
        }
      ],
      "payable": false,
      "stateMutability": "view",
      "type": "function"
    },
    {
      "constant": true,
      "inputs": [],
      "name": "tokenName",
      "outputs": [
        {
          "name": "",
          "type": "string"
        }
      ],
      "payable": false,
      "stateMutability": "view",
      "type": "function"
    },
    {
      "constant": true,
      "inputs": [],
      "name": "tokenSymbol",
      "outputs": [
        {
          "name": "",
          "type": "string"
        }
      ],
      "payable": false,
      "stateMutability": "view",
      "type": "function"
    },
    {
      "constant": true,
      "inputs": [],
      "name": "migrationAgent",
      "outputs": [
        {
          "name": "",
          "type": "address"
        }
      ],
      "payable": false,
      "stateMutability": "view",
      "type": "function"
    },
    {
      "constant": true,
      "inputs": [],
      "name": "tokenIdCounter",
      "outputs": [
        {
          "name": "",
          "type": "uint256"
        }
      ],
      "payable": false,
      "stateMutability": "view",
      "type": "function"
    },
    {
      "constant": true,
      "inputs": [],
      "name": "lotteryContract",
      "outputs": [
        {
          "name": "",
          "type": "address"
        }
      ],
      "payable": false,
      "stateMutability": "view",
      "type": "function"
    },
    {
      "constant": false,
      "inputs": [
        {
          "name": "newOwner",
          "type": "address"
        }
      ],
      "name": "transferOwnership",
      "outputs": [],
      "payable": false,
      "stateMutability": "nonpayable",
      "type": "function"
    },
    {
      "inputs": [
        {
          "name": "_tokenName",
          "type": "string"
        },
        {
          "name": "_tokenSymbol",
          "type": "string"
        }
      ],
      "payable": false,
      "stateMutability": "nonpayable",
      "type": "constructor"
    },
    {
      "anonymous": false,
      "inputs": [
        {
          "indexed": true,
          "name": "from",
          "type": "address"
        },
        {
          "indexed": true,
          "name": "to",
          "type": "address"
        },
        {
          "indexed": true,
          "name": "tokenId",
          "type": "uint256"
        }
      ],
      "name": "Transfer",
      "type": "event"
    },
    {
      "anonymous": false,
      "inputs": [
        {
          "indexed": true,
          "name": "owner",
          "type": "address"
        },
        {
          "indexed": true,
          "name": "approved",
          "type": "address"
        },
        {
          "indexed": true,
          "name": "tokenId",
          "type": "uint256"
        }
      ],
      "name": "Approval",
      "type": "event"
    },
    {
      "anonymous": false,
      "inputs": [
        {
          "indexed": true,
          "name": "from",
          "type": "address"
        },
        {
          "indexed": true,
          "name": "who",
          "type": "address"
        },
        {
          "indexed": true,
          "name": "count_tokens",
          "type": "uint256"
        }
      ],
      "name": "Migrate",
      "type": "event"
    },
    {
      "anonymous": false,
      "inputs": [
        {
          "indexed": true,
          "name": "owner",
          "type": "address"
        },
        {
          "indexed": true,
          "name": "tokenId",
          "type": "uint256"
        }
      ],
      "name": "TicketFilled",
      "type": "event"
    },
    {
      "constant": false,
      "inputs": [
        {
          "name": "lotteryAddress",
          "type": "address"
        }
      ],
      "name": "setLotteryAddress",
      "outputs": [],
      "payable": false,
      "stateMutability": "nonpayable",
      "type": "function"
    },
    {
      "constant": false,
      "inputs": [
        {
          "name": "_lottery_seller",
          "type": "address"
        }
      ],
      "name": "setLotterySellerContract",
      "outputs": [],
      "payable": false,
      "stateMutability": "nonpayable",
      "type": "function"
    },
    {
      "constant": true,
      "inputs": [
        {
          "name": "owner",
          "type": "address"
        }
      ],
      "name": "balanceOf",
      "outputs": [
        {
          "name": "",
          "type": "uint256"
        }
      ],
      "payable": false,
      "stateMutability": "view",
      "type": "function"
    },
    {
      "constant": true,
      "inputs": [
        {
          "name": "tokenId",
          "type": "uint256"
        }
      ],
      "name": "ownerOf",
      "outputs": [
        {
          "name": "",
          "type": "address"
        }
      ],
      "payable": false,
      "stateMutability": "view",
      "type": "function"
    },
    {
      "constant": false,
      "inputs": [
        {
          "name": "to",
          "type": "address"
        },
        {
          "name": "tokenId",
          "type": "uint256"
        }
      ],
      "name": "approve",
      "outputs": [],
      "payable": false,
      "stateMutability": "nonpayable",
      "type": "function"
    },
    {
      "constant": true,
      "inputs": [
        {
          "name": "tokenId",
          "type": "uint256"
        }
      ],
      "name": "getApproved",
      "outputs": [
        {
          "name": "",
          "type": "address"
        }
      ],
      "payable": false,
      "stateMutability": "view",
      "type": "function"
    },
    {
      "constant": false,
      "inputs": [
        {
          "name": "from",
          "type": "address"
        },
        {
          "name": "to",
          "type": "address"
        },
        {
          "name": "tokenId",
          "type": "uint256"
        }
      ],
      "name": "transferFrom",
      "outputs": [],
      "payable": false,
      "stateMutability": "nonpayable",
      "type": "function"
    },
    {
      "constant": false,
      "inputs": [
        {
          "name": "to",
          "type": "address"
        },
        {
          "name": "lotteryId",
          "type": "uint256"
        },
        {
          "name": "lotteryDeadline",
          "type": "uint256"
        }
      ],
      "name": "mint",
      "outputs": [
        {
          "name": "tokenId",
          "type": "uint256"
        }
      ],
      "payable": false,
      "stateMutability": "nonpayable",
      "type": "function"
    },
    {
      "constant": false,
      "inputs": [
        {
          "name": "tokenId",
          "type": "uint256"
        },
        {
          "name": "encodedDigit1",
          "type": "bytes32"
        },
        {
          "name": "encodedDigit2",
          "type": "bytes32"
        },
        {
          "name": "encodedDigit3",
          "type": "bytes32"
        },
        {
          "name": "digit1",
          "type": "uint8"
        },
        {
          "name": "digit2",
          "type": "uint8"
        },
        {
          "name": "digit3",
          "type": "uint8"
        },
        {
          "name": "secretPhraseHash",
          "type": "bytes32"
        }
      ],
      "name": "fillLotteryTicket",
      "outputs": [],
      "payable": false,
      "stateMutability": "nonpayable",
      "type": "function"
    },
    {
      "constant": true,
      "inputs": [
        {
          "name": "tokenId",
          "type": "uint256"
        }
      ],
      "name": "getLotteryTicketHash",
      "outputs": [
        {
          "name": "",
          "type": "bytes32"
        }
      ],
      "payable": false,
      "stateMutability": "view",
      "type": "function"
    },
    {
      "constant": true,
      "inputs": [
        {
          "name": "_token_id",
          "type": "uint256"
        }
      ],
      "name": "getTokenData",
      "outputs": [
        {
          "name": "tokenOwner",
          "type": "address"
        },
        {
          "name": "encodedDigit1",
          "type": "bytes32"
        },
        {
          "name": "encodedDigit2",
          "type": "bytes32"
        },
        {
          "name": "encodedDigit3",
          "type": "bytes32"
        },
        {
          "name": "secretPhraseHash",
          "type": "bytes32"
        },
        {
          "name": "lotteryDeadline",
          "type": "uint256"
        }
      ],
      "payable": false,
      "stateMutability": "view",
      "type": "function"
    },
    {
      "constant": true,
      "inputs": [
        {
          "name": "_lottery_id",
          "type": "uint256"
        }
      ],
      "name": "getLotteryTickets",
      "outputs": [
        {
          "name": "",
          "type": "uint256[]"
        }
      ],
      "payable": false,
      "stateMutability": "view",
      "type": "function"
    },
    {
      "constant": true,
      "inputs": [
        {
          "name": "_lottery_id",
          "type": "uint256"
        }
      ],
      "name": "getUsersTickets",
      "outputs": [
        {
          "name": "",
          "type": "uint256[]"
        }
      ],
      "payable": false,
      "stateMutability": "view",
      "type": "function"
    },
    {
      "constant": true,
      "inputs": [
        {
          "name": "lotteryId",
          "type": "uint256"
        },
        {
          "name": "tokenId",
          "type": "uint256"
        }
      ],
      "name": "TEST_GET_TICKET_ENCODED_DIGITS_AND_SECRET",
      "outputs": [
        {
          "name": "encodedDigit1",
          "type": "bytes32"
        },
        {
          "name": "encodedDigit2",
          "type": "bytes32"
        },
        {
          "name": "encodedDigit3",
          "type": "bytes32"
        },
        {
          "name": "secretPhraseHash",
          "type": "bytes32"
        }
      ],
      "payable": false,
      "stateMutability": "view",
      "type": "function"
    },
    {
      "constant": false,
      "inputs": [
        {
          "name": "_agent",
          "type": "address"
        }
      ],
      "name": "setMigrationAgent",
      "outputs": [],
      "payable": false,
      "stateMutability": "nonpayable",
      "type": "function"
    },
    {
      "constant": false,
      "inputs": [],
      "name": "migrate",
      "outputs": [],
      "payable": false,
      "stateMutability": "nonpayable",
      "type": "function"
    },
    {
      "constant": false,
      "inputs": [],
      "name": "finalizeMigration",
      "outputs": [],
      "payable": false,
      "stateMutability": "nonpayable",
      "type": "function"
    }
  ],
  "bytecode": "0x60806040523480156200001157600080fd5b50604051620032ac380380620032ac8339810180604052810190808051820192919060200180518201929190505050336000806101000a81548173ffffffffffffffffffffffffffffffffffffffff021916908373ffffffffffffffffffffffffffffffffffffffff160217905550816003908051906020019062000098929190620000ed565b508060049080519060200190620000b1929190620000ed565b50600060058190555060006007819055506000600c60146101000a81548160ff0219169083151502179055506000600e8190555050506200019c565b828054600181600116156101000203166002900490600052602060002090601f016020900481019282601f106200013057805160ff191683800117855562000161565b8280016001018555821562000161579182015b828111156200016057825182559160200191906001019062000143565b5b50905062000170919062000174565b5090565b6200019991905b80821115620001955760008160009055506001016200017b565b5090565b90565b61310080620001ac6000396000f30060806040526004361061013e576000357c0100000000000000000000000000000000000000000000000000000000900463ffffffff168063081812fc14610143578063095ea7b3146101b0578063156e29f6146101fd57806318160ddd1461026857806323b872dd146102935780632a332b2a1461030057806340ab1af2146103435780636352211e146103865780636c02a931146103f357806370a082311461048357806375e2ff65146104da5780637b61c3201461051d5780638328dbcd146105ad5780638fd3ab801461060457806398bdf6f51461061b578063b09afec114610646578063b29c662a146106f6578063b78b60871461074d578063cb1d3dd114610764578063ce1f67a8146107ad578063cfc4d6e21461082f578063d83d2582146108b1578063f2fde38b14610931578063f9a87d5914610974575b600080fd5b34801561014f57600080fd5b5061016e60048036038101908080359060200190929190505050610a00565b604051808273ffffffffffffffffffffffffffffffffffffffff1673ffffffffffffffffffffffffffffffffffffffff16815260200191505060405180910390f35b3480156101bc57600080fd5b506101fb600480360381019080803573ffffffffffffffffffffffffffffffffffffffff16906020019092919080359060200190929190505050610aba565b005b34801561020957600080fd5b50610252600480360381019080803573ffffffffffffffffffffffffffffffffffffffff1690602001909291908035906020019092919080359060200190929190505050610d0c565b6040518082815260200191505060405180910390f35b34801561027457600080fd5b5061027d61101f565b6040518082815260200191505060405180910390f35b34801561029f57600080fd5b506102fe600480360381019080803573ffffffffffffffffffffffffffffffffffffffff169060200190929190803573ffffffffffffffffffffffffffffffffffffffff16906020019092919080359060200190929190505050611025565b005b34801561030c57600080fd5b50610341600480360381019080803573ffffffffffffffffffffffffffffffffffffffff1690602001909291905050506112e3565b005b34801561034f57600080fd5b50610384600480360381019080803573ffffffffffffffffffffffffffffffffffffffff1690602001909291905050506113eb565b005b34801561039257600080fd5b506103b1600480360381019080803590602001909291905050506115ef565b604051808273ffffffffffffffffffffffffffffffffffffffff1673ffffffffffffffffffffffffffffffffffffffff16815260200191505060405180910390f35b3480156103ff57600080fd5b506104086116d9565b6040518080602001828103825283818151815260200191508051906020019080838360005b8381101561044857808201518184015260208101905061042d565b50505050905090810190601f1680156104755780820380516001836020036101000a031916815260200191505b509250505060405180910390f35b34801561048f57600080fd5b506104c4600480360381019080803573ffffffffffffffffffffffffffffffffffffffff169060200190929190505050611777565b6040518082815260200191505060405180910390f35b3480156104e657600080fd5b5061051b600480360381019080803573ffffffffffffffffffffffffffffffffffffffff169060200190929190505050611864565b005b34801561052957600080fd5b50610532611af3565b6040518080602001828103825283818151815260200191508051906020019080838360005b83811015610572578082015181840152602081019050610557565b50505050905090810190601f16801561059f5780820380516001836020036101000a031916815260200191505b509250505060405180910390f35b3480156105b957600080fd5b506105c2611b91565b604051808273ffffffffffffffffffffffffffffffffffffffff1673ffffffffffffffffffffffffffffffffffffffff16815260200191505060405180910390f35b34801561061057600080fd5b50610619611bb7565b005b34801561062757600080fd5b50610630612233565b6040518082815260200191505060405180910390f35b34801561065257600080fd5b5061067160048036038101908080359060200190929190505050612239565b604051808773ffffffffffffffffffffffffffffffffffffffff1673ffffffffffffffffffffffffffffffffffffffff1681526020018660001916600019168152602001856000191660001916815260200184600019166000191681526020018360001916600019168152602001828152602001965050505050505060405180910390f35b34801561070257600080fd5b5061070b612301565b604051808273ffffffffffffffffffffffffffffffffffffffff1673ffffffffffffffffffffffffffffffffffffffff16815260200191505060405180910390f35b34801561075957600080fd5b50610762612327565b005b34801561077057600080fd5b5061078f60048036038101908080359060200190929190505050612471565b60405180826000191660001916815260200191505060405180910390f35b3480156107b957600080fd5b506107d860048036038101908080359060200190929190505050612491565b6040518080602001828103825283818151815260200191508051906020019060200280838360005b8381101561081b578082015181840152602081019050610800565b505050509050019250505060405180910390f35b34801561083b57600080fd5b5061085a60048036038101908080359060200190929190505050612539565b6040518080602001828103825283818151815260200191508051906020019060200280838360005b8381101561089d578082015181840152602081019050610882565b505050509050019250505060405180910390f35b3480156108bd57600080fd5b506108e660048036038101908080359060200190929190803590602001909291905050506125a4565b60405180856000191660001916815260200184600019166000191681526020018360001916600019168152602001826000191660001916815260200194505050505060405180910390f35b34801561093d57600080fd5b50610972600480360381019080803573ffffffffffffffffffffffffffffffffffffffff169060200190929190505050612675565b005b34801561098057600080fd5b506109fe60048036038101908080359060200190929190803560001916906020019092919080356000191690602001909291908035600019169060200190929190803560ff169060200190929190803560ff169060200190929190803560ff169060200190929190803560001916906020019092919050505061277c565b005b6000610a0b82612c1f565b1515610a7f576040517f08c379a000000000000000000000000000000000000000000000000000000000815260040180806020018281038252601e8152602001807f53706563696669656420746f6b656e20646f65736e27742065786973742e000081525060200191505060405180910390fd5b6009600083815260200190815260200160002060009054906101000a900473ffffffffffffffffffffffffffffffffffffffff169050919050565b6000610ac5826115ef565b90508073ffffffffffffffffffffffffffffffffffffffff168373ffffffffffffffffffffffffffffffffffffffff1614151515610b6b576040517f08c379a00000000000000000000000000000000000000000000000000000000081526004018080602001828103825260108152602001807f496e76616c696420616464726573732e0000000000000000000000000000000081525060200191505060405180910390fd5b8073ffffffffffffffffffffffffffffffffffffffff163373ffffffffffffffffffffffffffffffffffffffff16141515610c5a576040517f08c379a00000000000000000000000000000000000000000000000000000000081526004018080602001828103825260468152602001807f46756e6374696f6e2063616e2062652063616c6c6564206f6e6c792066726f6d81526020017f206163636f756e742d6f776e6572206f6620746865207370656369666965642081526020017f746f6b656e2e000000000000000000000000000000000000000000000000000081525060600191505060405180910390fd5b826009600084815260200190815260200160002060006101000a81548173ffffffffffffffffffffffffffffffffffffffff021916908373ffffffffffffffffffffffffffffffffffffffff160217905550818373ffffffffffffffffffffffffffffffffffffffff168273ffffffffffffffffffffffffffffffffffffffff167f8c5be1e5ebec7d5bd14f71427d1e84f3dd0314c0f7b2291e5b200ac8c7c3b92560405160405180910390a4505050565b600080600660009054906101000a900473ffffffffffffffffffffffffffffffffffffffff1673ffffffffffffffffffffffffffffffffffffffff163373ffffffffffffffffffffffffffffffffffffffff16141515610dfa576040517f08c379a00000000000000000000000000000000000000000000000000000000081526004018080602001828103825260338152602001807f4f6e6c79204c6f747465727920636f6e74726163742063616e206d696e74207481526020017f6865206c6f7474657279207469636b6574732e0000000000000000000000000081525060400191505060405180910390fd5b600073ffffffffffffffffffffffffffffffffffffffff168573ffffffffffffffffffffffffffffffffffffffff1614151515610e9f576040517f08c379a00000000000000000000000000000000000000000000000000000000081526004018080602001828103825260108152602001807f496e76616c696420616464726573732e0000000000000000000000000000000081525060200191505060405180910390fd5b6007549050610eae8582612c94565b826008600083815260200190815260200160002060060181905550600160008581526020019081526020016000208190806001815401808255809150509060018203906000526020600020016000909192909190915055506002600085815260200190815260200160002060008673ffffffffffffffffffffffffffffffffffffffff1673ffffffffffffffffffffffffffffffffffffffff168152602001908152602001600020819080600181540180825580915050906001820390600052602060002001600090919290919091505550808573ffffffffffffffffffffffffffffffffffffffff16600073ffffffffffffffffffffffffffffffffffffffff167fddf252ad1be2c89b69c2b068fc378daa952ba7f163c4a11628f55a4df523b3ef60405160405180910390a4610ff26001600554612e5d90919063ffffffff16565b60058190555061100e6001600754612e5d90919063ffffffff16565b600781905550809150509392505050565b60055481565b61102f3382612e7e565b15156110ef576040517f08c379a00000000000000000000000000000000000000000000000000000000081526004018080602001828103825260508152602001807f43616c6c696e672061646472657373206973206e6f7420616e206f776e65722081526020017f616e64206e6f7420616c6c6f77656420746f207472616e73666572207468652081526020017f73706563696669656420746f6b656e2e0000000000000000000000000000000081525060600191505060405180910390fd5b8273ffffffffffffffffffffffffffffffffffffffff1661110f826115ef565b73ffffffffffffffffffffffffffffffffffffffff161415156111c0576040517f08c379a000000000000000000000000000000000000000000000000000000000815260040180806020018281038252603f8152602001807f5370656369666965642066726f6d2061646472657373206973206e6f7420746881526020017f65206f776e6572206f66207468652073706563696669656420746f6b656e2e0081525060400191505060405180910390fd5b600073ffffffffffffffffffffffffffffffffffffffff168273ffffffffffffffffffffffffffffffffffffffff1614151515611265576040517f08c379a00000000000000000000000000000000000000000000000000000000081526004018080602001828103825260108152602001807f496e76616c696420616464726573732e0000000000000000000000000000000081525060200191505060405180910390fd5b61126f8382612f02565b6112798382612fc3565b6112838282612c94565b808273ffffffffffffffffffffffffffffffffffffffff168473ffffffffffffffffffffffffffffffffffffffff167fddf252ad1be2c89b69c2b068fc378daa952ba7f163c4a11628f55a4df523b3ef60405160405180910390a4505050565b6000809054906101000a900473ffffffffffffffffffffffffffffffffffffffff1673ffffffffffffffffffffffffffffffffffffffff163373ffffffffffffffffffffffffffffffffffffffff161415156113a7576040517f08c379a000000000000000000000000000000000000000000000000000000000815260040180806020018281038252601e8152602001807f4f6e6c79206f776e65722063616e20646f207468697320616374696f6e21000081525060200191505060405180910390fd5b80600b60006101000a81548173ffffffffffffffffffffffffffffffffffffffff021916908373ffffffffffffffffffffffffffffffffffffffff16021790555050565b6000600660009054906101000a900473ffffffffffffffffffffffffffffffffffffffff1673ffffffffffffffffffffffffffffffffffffffff161415156114c1576040517f08c379a000000000000000000000000000000000000000000000000000000000815260040180806020018281038252602c8152602001807f4c6f747465727920436f6e74726163742068617320616c72656164792062656581526020017f6e207370656369666965642e000000000000000000000000000000000000000081525060400191505060405180910390fd5b6000809054906101000a900473ffffffffffffffffffffffffffffffffffffffff1673ffffffffffffffffffffffffffffffffffffffff163373ffffffffffffffffffffffffffffffffffffffff161415156115ab576040517f08c379a00000000000000000000000000000000000000000000000000000000081526004018080602001828103825260338152602001807f4c6f747465727920436f6e74726163742063616e20626520736574206f6e6c7981526020017f20627920636f6e7472616374204f776e65722e0000000000000000000000000081525060400191505060405180910390fd5b80600660006101000a81548173ffffffffffffffffffffffffffffffffffffffff021916908373ffffffffffffffffffffffffffffffffffffffff16021790555050565b6000806008600084815260200190815260200160002060000160009054906101000a900473ffffffffffffffffffffffffffffffffffffffff169050600073ffffffffffffffffffffffffffffffffffffffff168173ffffffffffffffffffffffffffffffffffffffff16141515156116d0576040517f08c379a00000000000000000000000000000000000000000000000000000000081526004018080602001828103825260108152602001807f496e76616c696420616464726573732e0000000000000000000000000000000081525060200191505060405180910390fd5b80915050919050565b60038054600181600116156101000203166002900480601f01602080910402602001604051908101604052809291908181526020018280546001816001161561010002031660029004801561176f5780601f106117445761010080835404028352916020019161176f565b820191906000526020600020905b81548152906001019060200180831161175257829003601f168201915b505050505081565b60008073ffffffffffffffffffffffffffffffffffffffff168273ffffffffffffffffffffffffffffffffffffffff161415151561181d576040517f08c379a00000000000000000000000000000000000000000000000000000000081526004018080602001828103825260108152602001807f496e76616c696420616464726573732e0000000000000000000000000000000081525060200191505060405180910390fd5b600a60008373ffffffffffffffffffffffffffffffffffffffff1673ffffffffffffffffffffffffffffffffffffffff168152602001908152602001600020549050919050565b6000600c60009054906101000a900473ffffffffffffffffffffffffffffffffffffffff1673ffffffffffffffffffffffffffffffffffffffff1614151561193a576040517f08c379a00000000000000000000000000000000000000000000000000000000081526004018080602001828103825260278152602001807f4d6967726174696f6e206167656e742069732073706563696669656420616c7281526020017f656164792121210000000000000000000000000000000000000000000000000081525060400191505060405180910390fd5b6000809054906101000a900473ffffffffffffffffffffffffffffffffffffffff1673ffffffffffffffffffffffffffffffffffffffff163373ffffffffffffffffffffffffffffffffffffffff16141515611a24576040517f08c379a00000000000000000000000000000000000000000000000000000000081526004018080602001828103825260278152602001807f4f6e6c79204f776e65722063616e207365747570204d6967726174696f6e206181526020017f67656e742121210000000000000000000000000000000000000000000000000081525060400191505060405180910390fd5b60001515600c60149054906101000a900460ff161515141515611aaf576040517f08c379a000000000000000000000000000000000000000000000000000000000815260040180806020018281038252601d8152602001807f436f6e747261637420776173206d6967726174656420616c726561647900000081525060200191505060405180910390fd5b80600c60006101000a81548173ffffffffffffffffffffffffffffffffffffffff021916908373ffffffffffffffffffffffffffffffffffffffff16021790555050565b60048054600181600116156101000203166002900480601f016020809104026020016040519081016040528092919081815260200182805460018160011615610100020316600290048015611b895780601f10611b5e57610100808354040283529160200191611b89565b820191906000526020600020905b815481529060010190602001808311611b6c57829003601f168201915b505050505081565b600c60009054906101000a900473ffffffffffffffffffffffffffffffffffffffff1681565b600080600080600080600060606000806000600c60009054906101000a900473ffffffffffffffffffffffffffffffffffffffff1673ffffffffffffffffffffffffffffffffffffffff1614151515611c9e576040517f08c379a00000000000000000000000000000000000000000000000000000000081526004018080602001828103825260238152602001807f4d6967726174696f6e206167656e74206973206e6f742073706563696669656481526020017f212121000000000000000000000000000000000000000000000000000000000081525060400191505060405180910390fd5b6000600d60003373ffffffffffffffffffffffffffffffffffffffff1673ffffffffffffffffffffffffffffffffffffffff16815260200190815260200160002054141515611d55576040517f08c379a00000000000000000000000000000000000000000000000000000000081526004018080602001828103825260178152602001807f436c69656e74206d6967726174656420616c726561647900000000000000000081525060200191505060405180910390fd5b60009950600b60009054906101000a900473ffffffffffffffffffffffffffffffffffffffff1673ffffffffffffffffffffffffffffffffffffffff1663e87e121d6040518163ffffffff167c0100000000000000000000000000000000000000000000000000000000028152600401602060405180830381600087803b158015611ddf57600080fd5b505af1158015611df3573d6000803e3d6000fd5b505050506040513d6020811015611e0957600080fd5b81019080805190602001909291905050509850600197505b8888111515612166576002600089815260200190815260200160002060003373ffffffffffffffffffffffffffffffffffffffff1673ffffffffffffffffffffffffffffffffffffffff1681526020019081526020016000209650600095505b8680549050861015612159578686815481101515611e9b57fe5b906000526020600020015494506008600086815260200190815260200160002093506003604051908082528060200260200182016040528015611eed5781602001602082028038833980820191505090505b5092508360010154836000815181101515611f0457fe5b9060200190602002019060001916908160001916815250508360020154836001815181101515611f3057fe5b9060200190602002019060001916908160001916815250508360030154836002815181101515611f5c57fe5b9060200190602002019060001916908160001916815250508360040154915083600601549050600c60009054906101000a900473ffffffffffffffffffffffffffffffffffffffff1673ffffffffffffffffffffffffffffffffffffffff166332b3a18d3385858c868b6040518763ffffffff167c0100000000000000000000000000000000000000000000000000000000028152600401808773ffffffffffffffffffffffffffffffffffffffff1673ffffffffffffffffffffffffffffffffffffffff168152602001806020018660001916600019168152602001858152602001848152602001838152602001828103825287818151815260200191508051906020019060200280838360005b8381101561208657808201518184015260208101905061206b565b50505050905001975050505050505050600060405180830381600087803b1580156120b057600080fd5b505af11580156120c4573d6000803e3d6000fd5b505050506001600e6000828254019250508190555060018a01995060086000868152602001908152602001600020600080820160006101000a81549073ffffffffffffffffffffffffffffffffffffffff021916905560018201600090556002820160009055600382016000905560048201600090556005820160009055600682016000905550508580600101965050611e81565b8780600101985050611e21565b89600d60003373ffffffffffffffffffffffffffffffffffffffff1673ffffffffffffffffffffffffffffffffffffffff1681526020019081526020016000208190555089600c60009054906101000a900473ffffffffffffffffffffffffffffffffffffffff1673ffffffffffffffffffffffffffffffffffffffff163373ffffffffffffffffffffffffffffffffffffffff167f18df02dcc52b9c494f391df09661519c0069bd8540141946280399408205ca1a60405160405180910390a450505050505050505050565b60075481565b6000806000806000806008600088815260200190815260200160002060000160009054906101000a900473ffffffffffffffffffffffffffffffffffffffff166008600089815260200190815260200160002060010154600860008a815260200190815260200160002060020154600860008b815260200190815260200160002060030154600860008c815260200190815260200160002060040154600860008d81526020019081526020016000206006015495509550955095509550955091939550919395565b600660009054906101000a900473ffffffffffffffffffffffffffffffffffffffff1681565b600c60009054906101000a900473ffffffffffffffffffffffffffffffffffffffff1673ffffffffffffffffffffffffffffffffffffffff163373ffffffffffffffffffffffffffffffffffffffff16141515612412576040517f08c379a00000000000000000000000000000000000000000000000000000000081526004018080602001828103825260218152602001807f4f6e6c79204d6967726174696f6e206167656e742063616e20646f206974212181526020017f210000000000000000000000000000000000000000000000000000000000000081525060400191505060405180910390fd5b6000600c60006101000a81548173ffffffffffffffffffffffffffffffffffffffff021916908373ffffffffffffffffffffffffffffffffffffffff1602179055506001600c60146101000a81548160ff021916908315150217905550565b600060086000838152602001908152602001600020600501549050919050565b60606002600083815260200190815260200160002060003373ffffffffffffffffffffffffffffffffffffffff1673ffffffffffffffffffffffffffffffffffffffff16815260200190815260200160002080548060200260200160405190810160405280929190818152602001828054801561252d57602002820191906000526020600020905b815481526020019060010190808311612519575b50505050509050919050565b60606001600083815260200190815260200160002080548060200260200160405190810160405280929190818152602001828054801561259857602002820191906000526020600020905b815481526020019060010190808311612584575b50505050509050919050565b600080600080600080600160008981526020019081526020016000209150600090505b8180549050811015612669578682828154811015156125e257fe5b9060005260206000200154141561265c5760086000888152602001908152602001600020600101546008600089815260200190815260200160002060020154600860008a815260200190815260200160002060030154600860008b815260200190815260200160002060040154955095509550955061266a565b80806001019150506125c7565b5b505092959194509250565b6000809054906101000a900473ffffffffffffffffffffffffffffffffffffffff1673ffffffffffffffffffffffffffffffffffffffff163373ffffffffffffffffffffffffffffffffffffffff16141515612739576040517f08c379a000000000000000000000000000000000000000000000000000000000815260040180806020018281038252601e8152602001807f4f6e6c79206f776e65722063616e20646f207468697320616374696f6e21000081525060200191505060405180910390fd5b806000806101000a81548173ffffffffffffffffffffffffffffffffffffffff021916908373ffffffffffffffffffffffffffffffffffffffff16021790555050565b61278588612c1f565b15156127f9576040517f08c379a000000000000000000000000000000000000000000000000000000000815260040180806020018281038252601e8152602001807f53706563696669656420746f6b656e20646f65736e27742065786973742e000081525060200191505060405180910390fd5b6008600089815260200190815260200160002060000160009054906101000a900473ffffffffffffffffffffffffffffffffffffffff1673ffffffffffffffffffffffffffffffffffffffff163373ffffffffffffffffffffffffffffffffffffffff161415156128f8576040517f08c379a000000000000000000000000000000000000000000000000000000000815260040180806020018281038252602c8152602001807f4f6e6c79207469636b6574206f776e65722063616e2066696c6c2061206c6f7481526020017f74657279207469636b65742e000000000000000000000000000000000000000081525060400191505060405180910390fd5b600b60009054906101000a900473ffffffffffffffffffffffffffffffffffffffff1673ffffffffffffffffffffffffffffffffffffffff16639194c80f6040518163ffffffff167c0100000000000000000000000000000000000000000000000000000000028152600401602060405180830381600087803b15801561297e57600080fd5b505af1158015612992573d6000803e3d6000fd5b505050506040513d60208110156129a857600080fd5b81019080805190602001909291905050501515612a2d576040517f08c379a000000000000000000000000000000000000000000000000000000000815260040180806020018281038252601e8152602001807f546f6f206c61746520666f722066696c6c696e672061207469636b65742e000081525060200191505060405180910390fd5b86600860008a8152602001908152602001600020600101816000191690555085600860008a8152602001908152602001600020600201816000191690555084600860008a8152602001908152602001600020600301816000191690555080600860008a81526020019081526020016000206004018160001916905550838383604051602001808460ff1660ff167f01000000000000000000000000000000000000000000000000000000000000000281526001018360ff1660ff167f01000000000000000000000000000000000000000000000000000000000000000281526001018260ff1660ff167f010000000000000000000000000000000000000000000000000000000000000002815260010193505050506040516020818303038152906040526040518082805190602001908083835b602083101515612b865780518252602082019150602081019050602083039250612b61565b6001836020036101000a0380198251168184511680821785525050505050509050019150506040518091039020600860008a81526020019081526020016000206005018160001916905550873373ffffffffffffffffffffffffffffffffffffffff167ffb6783809e470ca3e516b914efd95e8095d230429692efe92b76af15413472cb60405160405180910390a35050505050505050565b6000806008600084815260200190815260200160002060000160009054906101000a900473ffffffffffffffffffffffffffffffffffffffff169050600073ffffffffffffffffffffffffffffffffffffffff168173ffffffffffffffffffffffffffffffffffffffff161415915050919050565b600073ffffffffffffffffffffffffffffffffffffffff166008600083815260200190815260200160002060000160009054906101000a900473ffffffffffffffffffffffffffffffffffffffff1673ffffffffffffffffffffffffffffffffffffffff16141515612d6e576040517f08c379a00000000000000000000000000000000000000000000000000000000081526004018080602001828103825260108152602001807f496e76616c696420616464726573732e0000000000000000000000000000000081525060200191505060405180910390fd5b816008600083815260200190815260200160002060000160006101000a81548173ffffffffffffffffffffffffffffffffffffffff021916908373ffffffffffffffffffffffffffffffffffffffff160217905550612e166001600a60008573ffffffffffffffffffffffffffffffffffffffff1673ffffffffffffffffffffffffffffffffffffffff16815260200190815260200160002054612e5d90919063ffffffff16565b600a60008473ffffffffffffffffffffffffffffffffffffffff1673ffffffffffffffffffffffffffffffffffffffff168152602001908152602001600020819055505050565b6000808284019050838110151515612e7457600080fd5b8091505092915050565b600080612e8a836115ef565b90508073ffffffffffffffffffffffffffffffffffffffff168473ffffffffffffffffffffffffffffffffffffffff161480612ef957508373ffffffffffffffffffffffffffffffffffffffff16612ee184610a00565b73ffffffffffffffffffffffffffffffffffffffff16145b91505092915050565b600073ffffffffffffffffffffffffffffffffffffffff166009600083815260200190815260200160002060009054906101000a900473ffffffffffffffffffffffffffffffffffffffff1673ffffffffffffffffffffffffffffffffffffffff16141515612fbf5760006009600083815260200190815260200160002060006101000a81548173ffffffffffffffffffffffffffffffffffffffff021916908373ffffffffffffffffffffffffffffffffffffffff1602179055505b5050565b6130166001600a60008573ffffffffffffffffffffffffffffffffffffffff1673ffffffffffffffffffffffffffffffffffffffff168152602001908152602001600020546130b390919063ffffffff16565b600a60008473ffffffffffffffffffffffffffffffffffffffff1673ffffffffffffffffffffffffffffffffffffffff1681526020019081526020016000208190555060006008600083815260200190815260200160002060000160006101000a81548173ffffffffffffffffffffffffffffffffffffffff021916908373ffffffffffffffffffffffffffffffffffffffff1602179055505050565b6000808383111515156130c557600080fd5b828403905080915050929150505600a165627a7a723058206126c178418b475edc9030b9770f2f2ad863c785080a22f01c280691036ccf390029",
  "source": "pragma solidity ^0.4.24;\r\n\r\nimport \"./interfaces/ILottery.sol\";\r\nimport \"./interfaces/IERC721.sol\";\r\nimport \"./libraries/SafeMath.sol\";\r\nimport \"./interfaces/IMigrationAgent721.sol\";\r\nimport \"./owner.sol\";\r\n\r\ncontract ERC721 is Ownable\r\n{\r\n  using SafeMath for uint256;\r\n\r\n  struct lotteryTicket\r\n  {\r\n    address tokenOwner;\r\n    bytes32 encodedDigit1;\r\n    bytes32 encodedDigit2;\r\n    bytes32 encodedDigit3;\r\n    bytes32 secretPhraseHash;\r\n    bytes32 combinationHash;\r\n    uint lotteryDeadline;\r\n  }\r\n  mapping (uint256 => uint256[]) private lotteryTickets;\r\n  mapping (uint256 => mapping(address => uint256[])) private lotteryUsersTickets;\r\n\r\n  string public tokenName;\r\n  string public tokenSymbol;\r\n  uint256 public totalSupply;\r\n  address public lotteryContract;\r\n  uint256 public tokenIdCounter;\r\n\r\n  mapping (uint256 => lotteryTicket) private tokens;\r\n  mapping (uint256 => address) private tokenApprovals;\r\n  mapping (address => uint256) private ownedTokensCount;\r\n\r\n  ILottery private lottery;\r\n  address public migrationAgent;\r\n  bool private is_migrated; // is the contract migrated.\r\n  mapping (address => uint) private migrated_clients;\r\n  uint private totalMigrated;\r\n\r\n  event Transfer(address indexed from, address indexed to, uint256 indexed tokenId);\r\n  event Approval(address indexed owner, address indexed approved, uint256 indexed tokenId);\r\n  event Migrate(address indexed from, address indexed who, uint256 indexed count_tokens);\r\n  event TicketFilled(address indexed owner, uint256 indexed tokenId);\r\n\r\n  constructor(string _tokenName, string _tokenSymbol) public\r\n  {\r\n    tokenName = _tokenName;\r\n    tokenSymbol = _tokenSymbol;\r\n    totalSupply = 0;\r\n    tokenIdCounter = 0;\r\n    is_migrated = false;\r\n    totalMigrated = 0;\r\n  }\r\n\r\n  function setLotteryAddress(address lotteryAddress) public onlyOwner\r\n  {\r\n      lottery = ILottery(lotteryAddress);\r\n  }\r\n\r\n  function setLotterySellerContract(address _lottery_seller) public\r\n  {\r\n    require(lotteryContract == 0, \"Lottery Contract has already been specified.\");\r\n    require(msg.sender == owner, \"Lottery Contract can be set only by contract Owner.\");\r\n    lotteryContract = _lottery_seller;\r\n  }\r\n\r\n  function balanceOf(address owner) public view returns (uint256)\r\n  {\r\n    require(owner != address(0), \"Invalid address.\");\r\n    return ownedTokensCount[owner];\r\n  }\r\n\r\n  function ownerOf(uint256 tokenId) public view returns (address)\r\n  {\r\n    address owner = tokens[tokenId].tokenOwner;\r\n    require(owner != address(0), \"Invalid address.\");\r\n    return owner;\r\n  }\r\n\r\n  function approve(address to, uint256 tokenId) public\r\n  {\r\n    address owner = ownerOf(tokenId);\r\n    require(to != owner, \"Invalid address.\");\r\n    require(msg.sender == owner, \"Function can be called only from account-owner of the specified token.\");\r\n\r\n    tokenApprovals[tokenId] = to;\r\n    emit Approval(owner, to, tokenId);\r\n  }\r\n\r\n  function getApproved(uint256 tokenId) public view returns (address)\r\n  {\r\n    require(exists(tokenId), \"Specified token doesn't exist.\");\r\n    return tokenApprovals[tokenId];\r\n  }\r\n\r\n  function transferFrom(address from, address to, uint256 tokenId) public\r\n  {\r\n    require(isApprovedOrOwner(msg.sender, tokenId), \"Calling address is not an owner and not allowed to transfer the specified token.\");\r\n    require(ownerOf(tokenId) == from, \"Specified from address is not the owner of the specified token.\");\r\n    require(to != address(0), \"Invalid address.\");\r\n\r\n    clearApproval(from, tokenId);\r\n    removeTokenFrom(from, tokenId);\r\n\r\n    addTokenTo(to, tokenId);\r\n\r\n    emit Transfer(from, to, tokenId);\r\n  }\r\n\r\n  function exists(uint256 tokenId) internal view returns (bool)\r\n  {\r\n    address owner = tokens[tokenId].tokenOwner;\r\n    return owner != address(0);\r\n  }\r\n\r\n  function isApprovedOrOwner(address spender, uint256 tokenId) internal view returns (bool)\r\n  {\r\n    address owner = ownerOf(tokenId);\r\n    return (spender == owner || getApproved(tokenId) == spender);\r\n  }\r\n\r\n  function mint(address to, uint256 lotteryId, uint256 lotteryDeadline) public returns(uint256 tokenId)\r\n  {\r\n    require(msg.sender == lotteryContract, \"Only Lottery contract can mint the lottery tickets.\");\r\n    require(to != address(0), \"Invalid address.\");\r\n\r\n    uint256 createdTokenId = tokenIdCounter;\r\n\r\n    addTokenTo(to, createdTokenId);\r\n    tokens[createdTokenId].lotteryDeadline = lotteryDeadline;\r\n    lotteryTickets[lotteryId].push(createdTokenId);\r\n    lotteryUsersTickets[lotteryId][to].push(createdTokenId);\r\n    emit Transfer(address(0), to, createdTokenId);\r\n\r\n    totalSupply = totalSupply.add(1);\r\n    tokenIdCounter = tokenIdCounter.add(1);\r\n\r\n    return createdTokenId;\r\n  }\r\n\r\n  //function fillLotteryTicket(uint256 tokenId, uint8 digit1, uint8 digit2, uint8 digit3, bytes32 encodedCombination) public\r\n  function fillLotteryTicket(uint256 tokenId, bytes32 encodedDigit1, bytes32 encodedDigit2, bytes32 encodedDigit3, uint8 digit1, uint8 digit2, uint8 digit3, bytes32 secretPhraseHash) public\r\n  {\r\n    require(exists(tokenId), \"Specified token doesn't exist.\");\r\n    require(msg.sender == tokens[tokenId].tokenOwner, \"Only ticket owner can fill a lottery ticket.\");\r\n    //require(now < tokens[tokenId].lotteryDeadline, \"Too late for filling a ticket.\");\r\n    require(lottery.isFillingTicketsAllowed(), \"Too late for filling a ticket.\");\r\n\r\n    //require(digit1 >= 1 && digit1 <= 99, \"Digit 1 is not between 1 and 99.\");\r\n    //require(digit2 >= 1 && digit2 <= 99, \"Digit 2 is not between 1 and 99.\");\r\n    //require(digit3 >= 1 && digit3 <= 99, \"Digit 3 is not between 1 and 99.\");\r\n    //require(digit1 == digit2 || digit1 == digit3 || digit2 == digit3, \"All digits should be unique.\");\r\n    //tokens[tokenId].hash = keccak256(abi.encodePacked(digit1, digit2, digit3));\r\n\r\n    tokens[tokenId].encodedDigit1 = encodedDigit1;\r\n    tokens[tokenId].encodedDigit2 = encodedDigit2;\r\n    tokens[tokenId].encodedDigit3 = encodedDigit3;\r\n    tokens[tokenId].secretPhraseHash = secretPhraseHash;\r\n    tokens[tokenId].combinationHash = keccak256(abi.encodePacked(digit1, digit2, digit3));\r\n\r\n    emit TicketFilled(msg.sender, tokenId);\r\n  }\r\n\r\n  function getLotteryTicketHash(uint256 tokenId) public view returns(bytes32) \r\n  {\r\n     return tokens[tokenId].combinationHash;\r\n  }\r\n\r\n  function burn(uint256 tokenId) internal\r\n  {\r\n    address owner = ownerOf(tokenId);\r\n    clearApproval(owner, tokenId);\r\n    removeTokenFrom(owner, tokenId);\r\n\r\n    totalSupply = totalSupply.sub(1);\r\n    emit Transfer(owner, address(0), tokenId);\r\n  }\r\n\r\n  function addTokenTo(address to, uint256 tokenId) internal\r\n  {\r\n    require(tokens[tokenId].tokenOwner == address(0), \"Invalid address.\");\r\n\r\n    tokens[tokenId].tokenOwner = to;\r\n    ownedTokensCount[to] = ownedTokensCount[to].add(1);\r\n  }\r\n\r\n  function removeTokenFrom(address from, uint256 tokenId) internal\r\n  {\r\n    ownedTokensCount[from] = ownedTokensCount[from].sub(1);\r\n    tokens[tokenId].tokenOwner = address(0);\r\n  }\r\n\r\n  function clearApproval(address owner, uint256 tokenId) private\r\n  {\r\n    if (tokenApprovals[tokenId] != address(0))\r\n    {\r\n      tokenApprovals[tokenId] = address(0);\r\n    }\r\n  }\r\n\r\n  function getTokenData(uint256 _token_id) public view returns (address tokenOwner, bytes32 encodedDigit1, bytes32 encodedDigit2, bytes32 encodedDigit3, bytes32 secretPhraseHash, uint lotteryDeadline) \r\n  {\r\n      return (tokens[_token_id].tokenOwner, tokens[_token_id].encodedDigit1, tokens[_token_id].encodedDigit2, tokens[_token_id].encodedDigit3, tokens[_token_id].secretPhraseHash, tokens[_token_id].lotteryDeadline);\r\n  }\r\n\r\n  function getLotteryTickets(uint256 _lottery_id) public view returns(uint256[]) {\r\n     return lotteryTickets[_lottery_id];\r\n  }\r\n\r\n  function getUsersTickets(uint256 _lottery_id) public view returns(uint256[]) {\r\n        return lotteryUsersTickets[_lottery_id][msg.sender];\r\n  }\r\n\r\n  function TEST_GET_TICKET_ENCODED_DIGITS_AND_SECRET(uint256 lotteryId, uint256 tokenId) public view returns (bytes32 encodedDigit1, bytes32 encodedDigit2, bytes32 encodedDigit3, bytes32 secretPhraseHash)\r\n  {\r\n    uint256[] array = lotteryTickets[lotteryId];\r\n    for (uint i = 0; i < array.length; i++)\r\n    {\r\n        if(array[i] == tokenId)\r\n        {\r\n            return (tokens[tokenId].encodedDigit1, tokens[tokenId].encodedDigit2, tokens[tokenId].encodedDigit3, tokens[tokenId].secretPhraseHash);\r\n        }\r\n    }\r\n  }\r\n\r\n\r\n  // migration part\r\n  function setMigrationAgent(address _agent) external {\r\n        require(migrationAgent == 0, \"Migration agent is specified already!!!\");\r\n        require(msg.sender == owner, \"Only Owner can setup Migration agent!!!\");\r\n        require(is_migrated == false, 'Contract was migrated already');\r\n        migrationAgent = _agent;\r\n  }\r\n\r\n  function migrate() external {\r\n        require(migrationAgent != 0, \"Migration agent is not specified!!!\");\r\n        require(migrated_clients[msg.sender] == 0, \"Client migrated already\");\r\n\r\n        // search by laps\r\n        uint client_tickets = 0;\r\n        uint256 current_lap = lottery.getCurrentLotteryId();\r\n        for(uint lap=1; lap<=current_lap; lap++){\r\n          // get client's tokens\r\n          uint256[] storage tickets = lotteryUsersTickets[lap][msg.sender];\r\n          for(uint i=0; i<tickets.length; i++){\r\n            uint ticket_num = tickets[i];\r\n            lotteryTicket storage _token = tokens[ticket_num];\r\n            bytes32[] memory digs = new bytes32[](3);\r\n            digs[0] = _token.encodedDigit1;\r\n            digs[1] = _token.encodedDigit2;\r\n            digs[2] = _token.encodedDigit3;\r\n            //bytes32[] memory digs = new bytes32[](_token.encodedDigit1, _token.encodedDigit2, _token.encodedDigit3);\r\n            bytes32 _secret = _token.secretPhraseHash;\r\n            uint _deadline = _token.lotteryDeadline;\r\n            IMigrationAgent721(migrationAgent).migrateToken(msg.sender, digs, _secret, lap, _deadline, ticket_num);\r\n            totalMigrated += 1;\r\n            client_tickets += 1;\r\n            delete tokens[ticket_num];\r\n          }\r\n          //tickets = new uint256[](0);\r\n        }\r\n        migrated_clients[msg.sender] = client_tickets;\r\n\r\n        emit Migrate(msg.sender, migrationAgent, client_tickets);\r\n  }\r\n\r\n  function finalizeMigration() public{\r\n        require(msg.sender == migrationAgent, \"Only Migration agent can do it!!!\");\r\n        migrationAgent = 0;\r\n        is_migrated = true;\r\n  }\r\n}",
  "sourcePath": "C:\\blockchain\\new_version\\hashlottery3\\truffle\\contracts\\ERC721.sol",
  "compiler": {
    "name": "solc",
    "version": "0.4.24+commit.e67f0147.Emscripten.clang"
  },
  "schemaVersion": "2.0.1",
  "updatedAt": "2018-12-10T17:52:30.628Z"
}