{
  "contractName": "ERC721NEW",
  "abi": [
    {
      "constant": true,
      "inputs": [],
      "name": "totalSupply",
      "outputs": [
        {
          "name": "",
          "type": "uint256"
        }
      ],
      "payable": false,
      "stateMutability": "view",
      "type": "function"
    },
    {
      "constant": true,
      "inputs": [],
      "name": "tokenName",
      "outputs": [
        {
          "name": "",
          "type": "string"
        }
      ],
      "payable": false,
      "stateMutability": "view",
      "type": "function"
    },
    {
      "constant": true,
      "inputs": [],
      "name": "tokenSymbol",
      "outputs": [
        {
          "name": "",
          "type": "string"
        }
      ],
      "payable": false,
      "stateMutability": "view",
      "type": "function"
    },
    {
      "constant": true,
      "inputs": [],
      "name": "migrationAgent",
      "outputs": [
        {
          "name": "",
          "type": "address"
        }
      ],
      "payable": false,
      "stateMutability": "view",
      "type": "function"
    },
    {
      "constant": true,
      "inputs": [],
      "name": "tokenIdCounter",
      "outputs": [
        {
          "name": "",
          "type": "uint256"
        }
      ],
      "payable": false,
      "stateMutability": "view",
      "type": "function"
    },
    {
      "constant": true,
      "inputs": [],
      "name": "lotteryContract",
      "outputs": [
        {
          "name": "",
          "type": "address"
        }
      ],
      "payable": false,
      "stateMutability": "view",
      "type": "function"
    },
    {
      "constant": false,
      "inputs": [
        {
          "name": "newOwner",
          "type": "address"
        }
      ],
      "name": "transferOwnership",
      "outputs": [],
      "payable": false,
      "stateMutability": "nonpayable",
      "type": "function"
    },
    {
      "inputs": [
        {
          "name": "_tokenName",
          "type": "string"
        },
        {
          "name": "_tokenSymbol",
          "type": "string"
        },
        {
          "name": "lotteryAddress",
          "type": "address"
        }
      ],
      "payable": false,
      "stateMutability": "nonpayable",
      "type": "constructor"
    },
    {
      "anonymous": false,
      "inputs": [
        {
          "indexed": true,
          "name": "from",
          "type": "address"
        },
        {
          "indexed": true,
          "name": "to",
          "type": "address"
        },
        {
          "indexed": true,
          "name": "tokenId",
          "type": "uint256"
        }
      ],
      "name": "Transfer",
      "type": "event"
    },
    {
      "anonymous": false,
      "inputs": [
        {
          "indexed": true,
          "name": "owner",
          "type": "address"
        },
        {
          "indexed": true,
          "name": "approved",
          "type": "address"
        },
        {
          "indexed": true,
          "name": "tokenId",
          "type": "uint256"
        }
      ],
      "name": "Approval",
      "type": "event"
    },
    {
      "anonymous": false,
      "inputs": [
        {
          "indexed": true,
          "name": "from",
          "type": "address"
        },
        {
          "indexed": true,
          "name": "who",
          "type": "address"
        },
        {
          "indexed": true,
          "name": "count_tokens",
          "type": "uint256"
        }
      ],
      "name": "Migrate",
      "type": "event"
    },
    {
      "anonymous": false,
      "inputs": [
        {
          "indexed": true,
          "name": "owner",
          "type": "address"
        },
        {
          "indexed": true,
          "name": "tokenId",
          "type": "uint256"
        }
      ],
      "name": "TicketFilled",
      "type": "event"
    },
    {
      "constant": false,
      "inputs": [
        {
          "name": "lotteryAddress",
          "type": "address"
        }
      ],
      "name": "setLotteryAddress",
      "outputs": [],
      "payable": false,
      "stateMutability": "nonpayable",
      "type": "function"
    },
    {
      "constant": false,
      "inputs": [
        {
          "name": "_lottery_seller",
          "type": "address"
        }
      ],
      "name": "setLotterySellerContract",
      "outputs": [],
      "payable": false,
      "stateMutability": "nonpayable",
      "type": "function"
    },
    {
      "constant": true,
      "inputs": [
        {
          "name": "owner",
          "type": "address"
        }
      ],
      "name": "balanceOf",
      "outputs": [
        {
          "name": "",
          "type": "uint256"
        }
      ],
      "payable": false,
      "stateMutability": "view",
      "type": "function"
    },
    {
      "constant": true,
      "inputs": [
        {
          "name": "tokenId",
          "type": "uint256"
        }
      ],
      "name": "ownerOf",
      "outputs": [
        {
          "name": "",
          "type": "address"
        }
      ],
      "payable": false,
      "stateMutability": "view",
      "type": "function"
    },
    {
      "constant": false,
      "inputs": [
        {
          "name": "to",
          "type": "address"
        },
        {
          "name": "tokenId",
          "type": "uint256"
        }
      ],
      "name": "approve",
      "outputs": [],
      "payable": false,
      "stateMutability": "nonpayable",
      "type": "function"
    },
    {
      "constant": true,
      "inputs": [
        {
          "name": "tokenId",
          "type": "uint256"
        }
      ],
      "name": "getApproved",
      "outputs": [
        {
          "name": "",
          "type": "address"
        }
      ],
      "payable": false,
      "stateMutability": "view",
      "type": "function"
    },
    {
      "constant": false,
      "inputs": [
        {
          "name": "from",
          "type": "address"
        },
        {
          "name": "to",
          "type": "address"
        },
        {
          "name": "tokenId",
          "type": "uint256"
        }
      ],
      "name": "transferFrom",
      "outputs": [],
      "payable": false,
      "stateMutability": "nonpayable",
      "type": "function"
    },
    {
      "constant": false,
      "inputs": [
        {
          "name": "to",
          "type": "address"
        },
        {
          "name": "lotteryId",
          "type": "uint256"
        },
        {
          "name": "lotteryDeadline",
          "type": "uint256"
        }
      ],
      "name": "mint",
      "outputs": [
        {
          "name": "tokenId",
          "type": "uint256"
        }
      ],
      "payable": false,
      "stateMutability": "nonpayable",
      "type": "function"
    },
    {
      "constant": false,
      "inputs": [
        {
          "name": "tokenId",
          "type": "uint256"
        },
        {
          "name": "encodedDigit1",
          "type": "bytes32"
        },
        {
          "name": "encodedDigit2",
          "type": "bytes32"
        },
        {
          "name": "encodedDigit3",
          "type": "bytes32"
        },
        {
          "name": "digit1",
          "type": "uint8"
        },
        {
          "name": "digit2",
          "type": "uint8"
        },
        {
          "name": "digit3",
          "type": "uint8"
        },
        {
          "name": "secretPhraseHash",
          "type": "bytes32"
        }
      ],
      "name": "fillLotteryTicket",
      "outputs": [],
      "payable": false,
      "stateMutability": "nonpayable",
      "type": "function"
    },
    {
      "constant": true,
      "inputs": [
        {
          "name": "tokenId",
          "type": "uint256"
        }
      ],
      "name": "getLotteryTicketHash",
      "outputs": [
        {
          "name": "",
          "type": "bytes32"
        }
      ],
      "payable": false,
      "stateMutability": "view",
      "type": "function"
    },
    {
      "constant": true,
      "inputs": [
        {
          "name": "_token_id",
          "type": "uint256"
        }
      ],
      "name": "getTokenData",
      "outputs": [
        {
          "name": "tokenOwner",
          "type": "address"
        },
        {
          "name": "encodedDigit1",
          "type": "bytes32"
        },
        {
          "name": "encodedDigit2",
          "type": "bytes32"
        },
        {
          "name": "encodedDigit3",
          "type": "bytes32"
        },
        {
          "name": "secretPhraseHash",
          "type": "bytes32"
        },
        {
          "name": "lotteryDeadline",
          "type": "uint256"
        }
      ],
      "payable": false,
      "stateMutability": "view",
      "type": "function"
    },
    {
      "constant": true,
      "inputs": [
        {
          "name": "_lottery_id",
          "type": "uint256"
        }
      ],
      "name": "getLotteryTickets",
      "outputs": [
        {
          "name": "",
          "type": "uint256[]"
        }
      ],
      "payable": false,
      "stateMutability": "view",
      "type": "function"
    },
    {
      "constant": true,
      "inputs": [
        {
          "name": "_lottery_id",
          "type": "uint256"
        }
      ],
      "name": "getUsersTickets",
      "outputs": [
        {
          "name": "",
          "type": "uint256[]"
        }
      ],
      "payable": false,
      "stateMutability": "view",
      "type": "function"
    },
    {
      "constant": true,
      "inputs": [
        {
          "name": "lotteryId",
          "type": "uint256"
        },
        {
          "name": "tokenId",
          "type": "uint256"
        }
      ],
      "name": "TEST_GET_TICKET_ENCODED_DIGITS_AND_SECRET",
      "outputs": [
        {
          "name": "encodedDigit1",
          "type": "bytes32"
        },
        {
          "name": "encodedDigit2",
          "type": "bytes32"
        },
        {
          "name": "encodedDigit3",
          "type": "bytes32"
        },
        {
          "name": "secretPhraseHash",
          "type": "bytes32"
        }
      ],
      "payable": false,
      "stateMutability": "view",
      "type": "function"
    },
    {
      "constant": false,
      "inputs": [
        {
          "name": "_client",
          "type": "address"
        },
        {
          "name": "_digs",
          "type": "bytes32[]"
        },
        {
          "name": "_secret",
          "type": "bytes32"
        },
        {
          "name": "_lap",
          "type": "uint256"
        },
        {
          "name": "_deadline",
          "type": "uint256"
        },
        {
          "name": "_combinationHash",
          "type": "bytes32"
        },
        {
          "name": "_ticket",
          "type": "uint256"
        }
      ],
      "name": "receiveMigratedData",
      "outputs": [],
      "payable": false,
      "stateMutability": "nonpayable",
      "type": "function"
    },
    {
      "constant": false,
      "inputs": [
        {
          "name": "_agent",
          "type": "address"
        }
      ],
      "name": "setMigrationAgent",
      "outputs": [],
      "payable": false,
      "stateMutability": "nonpayable",
      "type": "function"
    },
    {
      "constant": false,
      "inputs": [],
      "name": "finalizeMigration",
      "outputs": [],
      "payable": false,
      "stateMutability": "nonpayable",
      "type": "function"
    }
  ],
  "bytecode": "0x60806040523480156200001157600080fd5b50604051620030fc380380620030fc833981018060405281019080805182019291906020018051820192919060200180519060200190929190505050336000806101000a81548173ffffffffffffffffffffffffffffffffffffffff021916908373ffffffffffffffffffffffffffffffffffffffff1602179055508260039080519060200190620000a59291906200021e565b508160049080519060200190620000be9291906200021e565b5060006005819055506000600781905550620000e98162000115640100000000026401000000009004565b6000600c60146101000a81548160ff0219169083151502179055506000600e81905550505050620002cd565b6000809054906101000a900473ffffffffffffffffffffffffffffffffffffffff1673ffffffffffffffffffffffffffffffffffffffff163373ffffffffffffffffffffffffffffffffffffffff16141515620001da576040517f08c379a000000000000000000000000000000000000000000000000000000000815260040180806020018281038252601e8152602001807f4f6e6c79206f776e65722063616e20646f207468697320616374696f6e21000081525060200191505060405180910390fd5b80600b60006101000a81548173ffffffffffffffffffffffffffffffffffffffff021916908373ffffffffffffffffffffffffffffffffffffffff16021790555050565b828054600181600116156101000203166002900490600052602060002090601f016020900481019282601f106200026157805160ff191683800117855562000292565b8280016001018555821562000292579182015b828111156200029157825182559160200191906001019062000274565b5b509050620002a19190620002a5565b5090565b620002ca91905b80821115620002c6576000816000905550600101620002ac565b5090565b90565b612e1f80620002dd6000396000f30060806040526004361061013e576000357c0100000000000000000000000000000000000000000000000000000000900463ffffffff168063081812fc14610143578063095ea7b3146101b0578063156e29f6146101fd57806318160ddd1461026857806323b872dd146102935780632a332b2a1461030057806340ab1af2146103435780636352211e146103865780636a3bd44f146103f35780636c02a9311461048857806370a082311461051857806375e2ff651461056f5780637b61c320146105b25780638328dbcd1461064257806398bdf6f514610699578063b09afec1146106c4578063b29c662a14610774578063b78b6087146107cb578063cb1d3dd1146107e2578063ce1f67a81461082b578063cfc4d6e2146108ad578063d83d25821461092f578063f2fde38b146109af578063f9a87d59146109f2575b600080fd5b34801561014f57600080fd5b5061016e60048036038101908080359060200190929190505050610a7e565b604051808273ffffffffffffffffffffffffffffffffffffffff1673ffffffffffffffffffffffffffffffffffffffff16815260200191505060405180910390f35b3480156101bc57600080fd5b506101fb600480360381019080803573ffffffffffffffffffffffffffffffffffffffff16906020019092919080359060200190929190505050610b38565b005b34801561020957600080fd5b50610252600480360381019080803573ffffffffffffffffffffffffffffffffffffffff1690602001909291908035906020019092919080359060200190929190505050610d8a565b6040518082815260200191505060405180910390f35b34801561027457600080fd5b5061027d61109d565b6040518082815260200191505060405180910390f35b34801561029f57600080fd5b506102fe600480360381019080803573ffffffffffffffffffffffffffffffffffffffff169060200190929190803573ffffffffffffffffffffffffffffffffffffffff169060200190929190803590602001909291905050506110a3565b005b34801561030c57600080fd5b50610341600480360381019080803573ffffffffffffffffffffffffffffffffffffffff169060200190929190505050611361565b005b34801561034f57600080fd5b50610384600480360381019080803573ffffffffffffffffffffffffffffffffffffffff169060200190929190505050611469565b005b34801561039257600080fd5b506103b16004803603810190808035906020019092919050505061166d565b604051808273ffffffffffffffffffffffffffffffffffffffff1673ffffffffffffffffffffffffffffffffffffffff16815260200191505060405180910390f35b3480156103ff57600080fd5b50610486600480360381019080803573ffffffffffffffffffffffffffffffffffffffff16906020019092919080359060200190820180359060200191909192939192939080356000191690602001909291908035906020019092919080359060200190929190803560001916906020019092919080359060200190929190505050611757565b005b34801561049457600080fd5b5061049d611a74565b6040518080602001828103825283818151815260200191508051906020019080838360005b838110156104dd5780820151818401526020810190506104c2565b50505050905090810190601f16801561050a5780820380516001836020036101000a031916815260200191505b509250505060405180910390f35b34801561052457600080fd5b50610559600480360381019080803573ffffffffffffffffffffffffffffffffffffffff169060200190929190505050611b12565b6040518082815260200191505060405180910390f35b34801561057b57600080fd5b506105b0600480360381019080803573ffffffffffffffffffffffffffffffffffffffff169060200190929190505050611bff565b005b3480156105be57600080fd5b506105c7611e8e565b6040518080602001828103825283818151815260200191508051906020019080838360005b838110156106075780820151818401526020810190506105ec565b50505050905090810190601f1680156106345780820380516001836020036101000a031916815260200191505b509250505060405180910390f35b34801561064e57600080fd5b50610657611f2c565b604051808273ffffffffffffffffffffffffffffffffffffffff1673ffffffffffffffffffffffffffffffffffffffff16815260200191505060405180910390f35b3480156106a557600080fd5b506106ae611f52565b6040518082815260200191505060405180910390f35b3480156106d057600080fd5b506106ef60048036038101908080359060200190929190505050611f58565b604051808773ffffffffffffffffffffffffffffffffffffffff1673ffffffffffffffffffffffffffffffffffffffff1681526020018660001916600019168152602001856000191660001916815260200184600019166000191681526020018360001916600019168152602001828152602001965050505050505060405180910390f35b34801561078057600080fd5b50610789612020565b604051808273ffffffffffffffffffffffffffffffffffffffff1673ffffffffffffffffffffffffffffffffffffffff16815260200191505060405180910390f35b3480156107d757600080fd5b506107e0612046565b005b3480156107ee57600080fd5b5061080d60048036038101908080359060200190929190505050612190565b60405180826000191660001916815260200191505060405180910390f35b34801561083757600080fd5b50610856600480360381019080803590602001909291905050506121b0565b6040518080602001828103825283818151815260200191508051906020019060200280838360005b8381101561089957808201518184015260208101905061087e565b505050509050019250505060405180910390f35b3480156108b957600080fd5b506108d860048036038101908080359060200190929190505050612258565b6040518080602001828103825283818151815260200191508051906020019060200280838360005b8381101561091b578082015181840152602081019050610900565b505050509050019250505060405180910390f35b34801561093b57600080fd5b5061096460048036038101908080359060200190929190803590602001909291905050506122c3565b60405180856000191660001916815260200184600019166000191681526020018360001916600019168152602001826000191660001916815260200194505050505060405180910390f35b3480156109bb57600080fd5b506109f0600480360381019080803573ffffffffffffffffffffffffffffffffffffffff169060200190929190505050612394565b005b3480156109fe57600080fd5b50610a7c60048036038101908080359060200190929190803560001916906020019092919080356000191690602001909291908035600019169060200190929190803560ff169060200190929190803560ff169060200190929190803560ff169060200190929190803560001916906020019092919050505061249b565b005b6000610a898261293e565b1515610afd576040517f08c379a000000000000000000000000000000000000000000000000000000000815260040180806020018281038252601e8152602001807f53706563696669656420746f6b656e20646f65736e27742065786973742e000081525060200191505060405180910390fd5b6009600083815260200190815260200160002060009054906101000a900473ffffffffffffffffffffffffffffffffffffffff169050919050565b6000610b438261166d565b90508073ffffffffffffffffffffffffffffffffffffffff168373ffffffffffffffffffffffffffffffffffffffff1614151515610be9576040517f08c379a00000000000000000000000000000000000000000000000000000000081526004018080602001828103825260108152602001807f496e76616c696420616464726573732e0000000000000000000000000000000081525060200191505060405180910390fd5b8073ffffffffffffffffffffffffffffffffffffffff163373ffffffffffffffffffffffffffffffffffffffff16141515610cd8576040517f08c379a00000000000000000000000000000000000000000000000000000000081526004018080602001828103825260468152602001807f46756e6374696f6e2063616e2062652063616c6c6564206f6e6c792066726f6d81526020017f206163636f756e742d6f776e6572206f6620746865207370656369666965642081526020017f746f6b656e2e000000000000000000000000000000000000000000000000000081525060600191505060405180910390fd5b826009600084815260200190815260200160002060006101000a81548173ffffffffffffffffffffffffffffffffffffffff021916908373ffffffffffffffffffffffffffffffffffffffff160217905550818373ffffffffffffffffffffffffffffffffffffffff168273ffffffffffffffffffffffffffffffffffffffff167f8c5be1e5ebec7d5bd14f71427d1e84f3dd0314c0f7b2291e5b200ac8c7c3b92560405160405180910390a4505050565b600080600660009054906101000a900473ffffffffffffffffffffffffffffffffffffffff1673ffffffffffffffffffffffffffffffffffffffff163373ffffffffffffffffffffffffffffffffffffffff16141515610e78576040517f08c379a00000000000000000000000000000000000000000000000000000000081526004018080602001828103825260338152602001807f4f6e6c79204c6f747465727920636f6e74726163742063616e206d696e74207481526020017f6865206c6f7474657279207469636b6574732e0000000000000000000000000081525060400191505060405180910390fd5b600073ffffffffffffffffffffffffffffffffffffffff168573ffffffffffffffffffffffffffffffffffffffff1614151515610f1d576040517f08c379a00000000000000000000000000000000000000000000000000000000081526004018080602001828103825260108152602001807f496e76616c696420616464726573732e0000000000000000000000000000000081525060200191505060405180910390fd5b6007549050610f2c85826129b3565b826008600083815260200190815260200160002060060181905550600160008581526020019081526020016000208190806001815401808255809150509060018203906000526020600020016000909192909190915055506002600085815260200190815260200160002060008673ffffffffffffffffffffffffffffffffffffffff1673ffffffffffffffffffffffffffffffffffffffff168152602001908152602001600020819080600181540180825580915050906001820390600052602060002001600090919290919091505550808573ffffffffffffffffffffffffffffffffffffffff16600073ffffffffffffffffffffffffffffffffffffffff167fddf252ad1be2c89b69c2b068fc378daa952ba7f163c4a11628f55a4df523b3ef60405160405180910390a46110706001600554612b7c90919063ffffffff16565b60058190555061108c6001600754612b7c90919063ffffffff16565b600781905550809150509392505050565b60055481565b6110ad3382612b9d565b151561116d576040517f08c379a00000000000000000000000000000000000000000000000000000000081526004018080602001828103825260508152602001807f43616c6c696e672061646472657373206973206e6f7420616e206f776e65722081526020017f616e64206e6f7420616c6c6f77656420746f207472616e73666572207468652081526020017f73706563696669656420746f6b656e2e0000000000000000000000000000000081525060600191505060405180910390fd5b8273ffffffffffffffffffffffffffffffffffffffff1661118d8261166d565b73ffffffffffffffffffffffffffffffffffffffff1614151561123e576040517f08c379a000000000000000000000000000000000000000000000000000000000815260040180806020018281038252603f8152602001807f5370656369666965642066726f6d2061646472657373206973206e6f7420746881526020017f65206f776e6572206f66207468652073706563696669656420746f6b656e2e0081525060400191505060405180910390fd5b600073ffffffffffffffffffffffffffffffffffffffff168273ffffffffffffffffffffffffffffffffffffffff16141515156112e3576040517f08c379a00000000000000000000000000000000000000000000000000000000081526004018080602001828103825260108152602001807f496e76616c696420616464726573732e0000000000000000000000000000000081525060200191505060405180910390fd5b6112ed8382612c21565b6112f78382612ce2565b61130182826129b3565b808273ffffffffffffffffffffffffffffffffffffffff168473ffffffffffffffffffffffffffffffffffffffff167fddf252ad1be2c89b69c2b068fc378daa952ba7f163c4a11628f55a4df523b3ef60405160405180910390a4505050565b6000809054906101000a900473ffffffffffffffffffffffffffffffffffffffff1673ffffffffffffffffffffffffffffffffffffffff163373ffffffffffffffffffffffffffffffffffffffff16141515611425576040517f08c379a000000000000000000000000000000000000000000000000000000000815260040180806020018281038252601e8152602001807f4f6e6c79206f776e65722063616e20646f207468697320616374696f6e21000081525060200191505060405180910390fd5b80600b60006101000a81548173ffffffffffffffffffffffffffffffffffffffff021916908373ffffffffffffffffffffffffffffffffffffffff16021790555050565b6000600660009054906101000a900473ffffffffffffffffffffffffffffffffffffffff1673ffffffffffffffffffffffffffffffffffffffff1614151561153f576040517f08c379a000000000000000000000000000000000000000000000000000000000815260040180806020018281038252602c8152602001807f4c6f747465727920436f6e74726163742068617320616c72656164792062656581526020017f6e207370656369666965642e000000000000000000000000000000000000000081525060400191505060405180910390fd5b6000809054906101000a900473ffffffffffffffffffffffffffffffffffffffff1673ffffffffffffffffffffffffffffffffffffffff163373ffffffffffffffffffffffffffffffffffffffff16141515611629576040517f08c379a00000000000000000000000000000000000000000000000000000000081526004018080602001828103825260338152602001807f4c6f747465727920436f6e74726163742063616e20626520736574206f6e6c7981526020017f20627920636f6e7472616374204f776e65722e0000000000000000000000000081525060400191505060405180910390fd5b80600660006101000a81548173ffffffffffffffffffffffffffffffffffffffff021916908373ffffffffffffffffffffffffffffffffffffffff16021790555050565b6000806008600084815260200190815260200160002060000160009054906101000a900473ffffffffffffffffffffffffffffffffffffffff169050600073ffffffffffffffffffffffffffffffffffffffff168173ffffffffffffffffffffffffffffffffffffffff161415151561174e576040517f08c379a00000000000000000000000000000000000000000000000000000000081526004018080602001828103825260108152602001807f496e76616c696420616464726573732e0000000000000000000000000000000081525060200191505060405180910390fd5b80915050919050565b600c60009054906101000a900473ffffffffffffffffffffffffffffffffffffffff1673ffffffffffffffffffffffffffffffffffffffff163373ffffffffffffffffffffffffffffffffffffffff16141515611842576040517f08c379a000000000000000000000000000000000000000000000000000000000815260040180806020018281038252602a8152602001807f4f6e6c79204d6967726174696f6e206167656e742063616e2063616c6c73207481526020017f686973206d6574686f640000000000000000000000000000000000000000000081525060400191505060405180910390fd5b60e0604051908101604052808973ffffffffffffffffffffffffffffffffffffffff16815260200188886000818110151561187957fe5b905060200201356000191660001916815260200188886001818110151561189c57fe5b90506020020135600019166000191681526020018888600281811015156118bf57fe5b90506020020135600019166000191681526020018660001916815260200183600019168152602001848152506008600083815260200190815260200160002060008201518160000160006101000a81548173ffffffffffffffffffffffffffffffffffffffff021916908373ffffffffffffffffffffffffffffffffffffffff1602179055506020820151816001019060001916905560408201518160020190600019169055606082015181600301906000191690556080820151816004019060001916905560a0820151816005019060001916905560c08201518160060155905050600160008581526020019081526020016000208190806001815401808255809150509060018203906000526020600020016000909192909190915055506002600085815260200190815260200160002060008973ffffffffffffffffffffffffffffffffffffffff1673ffffffffffffffffffffffffffffffffffffffff16815260200190815260200160002081908060018154018082558091505090600182039060005260206000200160009091929091909150555060016005600082825401925050819055505050505050505050565b60038054600181600116156101000203166002900480601f016020809104026020016040519081016040528092919081815260200182805460018160011615610100020316600290048015611b0a5780601f10611adf57610100808354040283529160200191611b0a565b820191906000526020600020905b815481529060010190602001808311611aed57829003601f168201915b505050505081565b60008073ffffffffffffffffffffffffffffffffffffffff168273ffffffffffffffffffffffffffffffffffffffff1614151515611bb8576040517f08c379a00000000000000000000000000000000000000000000000000000000081526004018080602001828103825260108152602001807f496e76616c696420616464726573732e0000000000000000000000000000000081525060200191505060405180910390fd5b600a60008373ffffffffffffffffffffffffffffffffffffffff1673ffffffffffffffffffffffffffffffffffffffff168152602001908152602001600020549050919050565b6000600c60009054906101000a900473ffffffffffffffffffffffffffffffffffffffff1673ffffffffffffffffffffffffffffffffffffffff16141515611cd5576040517f08c379a00000000000000000000000000000000000000000000000000000000081526004018080602001828103825260278152602001807f4d6967726174696f6e206167656e742069732073706563696669656420616c7281526020017f656164792121210000000000000000000000000000000000000000000000000081525060400191505060405180910390fd5b6000809054906101000a900473ffffffffffffffffffffffffffffffffffffffff1673ffffffffffffffffffffffffffffffffffffffff163373ffffffffffffffffffffffffffffffffffffffff16141515611dbf576040517f08c379a00000000000000000000000000000000000000000000000000000000081526004018080602001828103825260278152602001807f4f6e6c79204f776e65722063616e207365747570204d6967726174696f6e206181526020017f67656e742121210000000000000000000000000000000000000000000000000081525060400191505060405180910390fd5b60001515600c60149054906101000a900460ff161515141515611e4a576040517f08c379a000000000000000000000000000000000000000000000000000000000815260040180806020018281038252601d8152602001807f436f6e747261637420776173206d6967726174656420616c726561647900000081525060200191505060405180910390fd5b80600c60006101000a81548173ffffffffffffffffffffffffffffffffffffffff021916908373ffffffffffffffffffffffffffffffffffffffff16021790555050565b60048054600181600116156101000203166002900480601f016020809104026020016040519081016040528092919081815260200182805460018160011615610100020316600290048015611f245780601f10611ef957610100808354040283529160200191611f24565b820191906000526020600020905b815481529060010190602001808311611f0757829003601f168201915b505050505081565b600c60009054906101000a900473ffffffffffffffffffffffffffffffffffffffff1681565b60075481565b6000806000806000806008600088815260200190815260200160002060000160009054906101000a900473ffffffffffffffffffffffffffffffffffffffff166008600089815260200190815260200160002060010154600860008a815260200190815260200160002060020154600860008b815260200190815260200160002060030154600860008c815260200190815260200160002060040154600860008d81526020019081526020016000206006015495509550955095509550955091939550919395565b600660009054906101000a900473ffffffffffffffffffffffffffffffffffffffff1681565b600c60009054906101000a900473ffffffffffffffffffffffffffffffffffffffff1673ffffffffffffffffffffffffffffffffffffffff163373ffffffffffffffffffffffffffffffffffffffff16141515612131576040517f08c379a00000000000000000000000000000000000000000000000000000000081526004018080602001828103825260218152602001807f4f6e6c79204d6967726174696f6e206167656e742063616e20646f206974212181526020017f210000000000000000000000000000000000000000000000000000000000000081525060400191505060405180910390fd5b6000600c60006101000a81548173ffffffffffffffffffffffffffffffffffffffff021916908373ffffffffffffffffffffffffffffffffffffffff1602179055506001600c60146101000a81548160ff021916908315150217905550565b600060086000838152602001908152602001600020600501549050919050565b60606002600083815260200190815260200160002060003373ffffffffffffffffffffffffffffffffffffffff1673ffffffffffffffffffffffffffffffffffffffff16815260200190815260200160002080548060200260200160405190810160405280929190818152602001828054801561224c57602002820191906000526020600020905b815481526020019060010190808311612238575b50505050509050919050565b6060600160008381526020019081526020016000208054806020026020016040519081016040528092919081815260200182805480156122b757602002820191906000526020600020905b8154815260200190600101908083116122a3575b50505050509050919050565b600080600080600080600160008981526020019081526020016000209150600090505b81805490508110156123885786828281548110151561230157fe5b9060005260206000200154141561237b5760086000888152602001908152602001600020600101546008600089815260200190815260200160002060020154600860008a815260200190815260200160002060030154600860008b8152602001908152602001600020600401549550955095509550612389565b80806001019150506122e6565b5b505092959194509250565b6000809054906101000a900473ffffffffffffffffffffffffffffffffffffffff1673ffffffffffffffffffffffffffffffffffffffff163373ffffffffffffffffffffffffffffffffffffffff16141515612458576040517f08c379a000000000000000000000000000000000000000000000000000000000815260040180806020018281038252601e8152602001807f4f6e6c79206f776e65722063616e20646f207468697320616374696f6e21000081525060200191505060405180910390fd5b806000806101000a81548173ffffffffffffffffffffffffffffffffffffffff021916908373ffffffffffffffffffffffffffffffffffffffff16021790555050565b6124a48861293e565b1515612518576040517f08c379a000000000000000000000000000000000000000000000000000000000815260040180806020018281038252601e8152602001807f53706563696669656420746f6b656e20646f65736e27742065786973742e000081525060200191505060405180910390fd5b6008600089815260200190815260200160002060000160009054906101000a900473ffffffffffffffffffffffffffffffffffffffff1673ffffffffffffffffffffffffffffffffffffffff163373ffffffffffffffffffffffffffffffffffffffff16141515612617576040517f08c379a000000000000000000000000000000000000000000000000000000000815260040180806020018281038252602c8152602001807f4f6e6c79207469636b6574206f776e65722063616e2066696c6c2061206c6f7481526020017f74657279207469636b65742e000000000000000000000000000000000000000081525060400191505060405180910390fd5b600b60009054906101000a900473ffffffffffffffffffffffffffffffffffffffff1673ffffffffffffffffffffffffffffffffffffffff16639194c80f6040518163ffffffff167c0100000000000000000000000000000000000000000000000000000000028152600401602060405180830381600087803b15801561269d57600080fd5b505af11580156126b1573d6000803e3d6000fd5b505050506040513d60208110156126c757600080fd5b8101908080519060200190929190505050151561274c576040517f08c379a000000000000000000000000000000000000000000000000000000000815260040180806020018281038252601e8152602001807f546f6f206c61746520666f722066696c6c696e672061207469636b65742e000081525060200191505060405180910390fd5b86600860008a8152602001908152602001600020600101816000191690555085600860008a8152602001908152602001600020600201816000191690555084600860008a8152602001908152602001600020600301816000191690555080600860008a81526020019081526020016000206004018160001916905550838383604051602001808460ff1660ff167f01000000000000000000000000000000000000000000000000000000000000000281526001018360ff1660ff167f01000000000000000000000000000000000000000000000000000000000000000281526001018260ff1660ff167f010000000000000000000000000000000000000000000000000000000000000002815260010193505050506040516020818303038152906040526040518082805190602001908083835b6020831015156128a55780518252602082019150602081019050602083039250612880565b6001836020036101000a0380198251168184511680821785525050505050509050019150506040518091039020600860008a81526020019081526020016000206005018160001916905550873373ffffffffffffffffffffffffffffffffffffffff167ffb6783809e470ca3e516b914efd95e8095d230429692efe92b76af15413472cb60405160405180910390a35050505050505050565b6000806008600084815260200190815260200160002060000160009054906101000a900473ffffffffffffffffffffffffffffffffffffffff169050600073ffffffffffffffffffffffffffffffffffffffff168173ffffffffffffffffffffffffffffffffffffffff161415915050919050565b600073ffffffffffffffffffffffffffffffffffffffff166008600083815260200190815260200160002060000160009054906101000a900473ffffffffffffffffffffffffffffffffffffffff1673ffffffffffffffffffffffffffffffffffffffff16141515612a8d576040517f08c379a00000000000000000000000000000000000000000000000000000000081526004018080602001828103825260108152602001807f496e76616c696420616464726573732e0000000000000000000000000000000081525060200191505060405180910390fd5b816008600083815260200190815260200160002060000160006101000a81548173ffffffffffffffffffffffffffffffffffffffff021916908373ffffffffffffffffffffffffffffffffffffffff160217905550612b356001600a60008573ffffffffffffffffffffffffffffffffffffffff1673ffffffffffffffffffffffffffffffffffffffff16815260200190815260200160002054612b7c90919063ffffffff16565b600a60008473ffffffffffffffffffffffffffffffffffffffff1673ffffffffffffffffffffffffffffffffffffffff168152602001908152602001600020819055505050565b6000808284019050838110151515612b9357600080fd5b8091505092915050565b600080612ba98361166d565b90508073ffffffffffffffffffffffffffffffffffffffff168473ffffffffffffffffffffffffffffffffffffffff161480612c1857508373ffffffffffffffffffffffffffffffffffffffff16612c0084610a7e565b73ffffffffffffffffffffffffffffffffffffffff16145b91505092915050565b600073ffffffffffffffffffffffffffffffffffffffff166009600083815260200190815260200160002060009054906101000a900473ffffffffffffffffffffffffffffffffffffffff1673ffffffffffffffffffffffffffffffffffffffff16141515612cde5760006009600083815260200190815260200160002060006101000a81548173ffffffffffffffffffffffffffffffffffffffff021916908373ffffffffffffffffffffffffffffffffffffffff1602179055505b5050565b612d356001600a60008573ffffffffffffffffffffffffffffffffffffffff1673ffffffffffffffffffffffffffffffffffffffff16815260200190815260200160002054612dd290919063ffffffff16565b600a60008473ffffffffffffffffffffffffffffffffffffffff1673ffffffffffffffffffffffffffffffffffffffff1681526020019081526020016000208190555060006008600083815260200190815260200160002060000160006101000a81548173ffffffffffffffffffffffffffffffffffffffff021916908373ffffffffffffffffffffffffffffffffffffffff1602179055505050565b600080838311151515612de457600080fd5b828403905080915050929150505600a165627a7a72305820bab60127ca614a92ecd6181db4fd2b6eeec89fabef612675a3bb443446f9f4db0029",
  "source": "pragma solidity ^0.4.24;\r\n\r\nimport \"./interfaces/ILottery.sol\";\r\nimport \"./interfaces/IERC721NEW.sol\";\r\nimport \"./libraries/SafeMath.sol\";\r\nimport \"./owner.sol\";\r\n\r\ncontract ERC721NEW is IERC721NEW, Ownable\r\n{\r\n\r\n  using SafeMath for uint256;\r\n\r\n  struct lotteryTicket\r\n  {\r\n    address tokenOwner;\r\n    bytes32 encodedDigit1;\r\n    bytes32 encodedDigit2;\r\n    bytes32 encodedDigit3;\r\n    bytes32 secretPhraseHash;\r\n    bytes32 combinationHash;\r\n    uint lotteryDeadline;\r\n  }\r\n  mapping (uint256 => uint256[]) private lotteryTickets;\r\n  mapping (uint256 => mapping(address => uint256[])) private lotteryUsersTickets;\r\n\r\n  string public tokenName;\r\n  string public tokenSymbol;\r\n  uint256 public totalSupply;\r\n  address public lotteryContract;\r\n  uint256 public tokenIdCounter;\r\n\r\n  mapping (uint256 => lotteryTicket) private tokens;\r\n  mapping (uint256 => address) private tokenApprovals;\r\n  mapping (address => uint256) private ownedTokensCount;\r\n\r\n  ILottery private lottery;\r\n  address public migrationAgent;\r\n  bool private is_migrated; // is the contract migrated.\r\n  mapping (address => uint) private migrated_clients;\r\n  uint private totalMigrated;\r\n\r\n  event Transfer(address indexed from, address indexed to, uint256 indexed tokenId);\r\n  event Approval(address indexed owner, address indexed approved, uint256 indexed tokenId);\r\n  event Migrate(address indexed from, address indexed who, uint256 indexed count_tokens);\r\n  event TicketFilled(address indexed owner, uint256 indexed tokenId);\r\n\r\n  constructor(string _tokenName, string _tokenSymbol, address lotteryAddress) public\r\n  {\r\n    tokenName = _tokenName;\r\n    tokenSymbol = _tokenSymbol;\r\n    totalSupply = 0;\r\n    tokenIdCounter = 0;\r\n    setLotteryAddress(lotteryAddress);\r\n    is_migrated = false;\r\n    totalMigrated = 0;\r\n  }\r\n\r\n  function setLotteryAddress(address lotteryAddress) public onlyOwner\r\n  {\r\n      lottery = ILottery(lotteryAddress);\r\n  }\r\n\r\n  function setLotterySellerContract(address _lottery_seller) public\r\n  {\r\n    require(lotteryContract == 0, \"Lottery Contract has already been specified.\");\r\n    require(msg.sender == owner, \"Lottery Contract can be set only by contract Owner.\");\r\n    lotteryContract = _lottery_seller;\r\n  }\r\n\r\n  function balanceOf(address owner) public view returns (uint256)\r\n  {\r\n    require(owner != address(0), \"Invalid address.\");\r\n    return ownedTokensCount[owner];\r\n  }\r\n\r\n  function ownerOf(uint256 tokenId) public view returns (address)\r\n  {\r\n    address owner = tokens[tokenId].tokenOwner;\r\n    require(owner != address(0), \"Invalid address.\");\r\n    return owner;\r\n  }\r\n\r\n  function approve(address to, uint256 tokenId) public\r\n  {\r\n    address owner = ownerOf(tokenId);\r\n    require(to != owner, \"Invalid address.\");\r\n    require(msg.sender == owner, \"Function can be called only from account-owner of the specified token.\");\r\n\r\n    tokenApprovals[tokenId] = to;\r\n    emit Approval(owner, to, tokenId);\r\n  }\r\n\r\n  function getApproved(uint256 tokenId) public view returns (address)\r\n  {\r\n    require(exists(tokenId), \"Specified token doesn't exist.\");\r\n    return tokenApprovals[tokenId];\r\n  }\r\n\r\n  function transferFrom(address from, address to, uint256 tokenId) public\r\n  {\r\n    require(isApprovedOrOwner(msg.sender, tokenId), \"Calling address is not an owner and not allowed to transfer the specified token.\");\r\n    require(ownerOf(tokenId) == from, \"Specified from address is not the owner of the specified token.\");\r\n    require(to != address(0), \"Invalid address.\");\r\n\r\n    clearApproval(from, tokenId);\r\n    removeTokenFrom(from, tokenId);\r\n\r\n    addTokenTo(to, tokenId);\r\n\r\n    emit Transfer(from, to, tokenId);\r\n  }\r\n\r\n  function exists(uint256 tokenId) internal view returns (bool)\r\n  {\r\n    address owner = tokens[tokenId].tokenOwner;\r\n    return owner != address(0);\r\n  }\r\n\r\n  function isApprovedOrOwner(address spender, uint256 tokenId) internal view returns (bool)\r\n  {\r\n    address owner = ownerOf(tokenId);\r\n    return (spender == owner || getApproved(tokenId) == spender);\r\n  }\r\n\r\n  function mint(address to, uint256 lotteryId, uint256 lotteryDeadline) public returns(uint256 tokenId)\r\n  {\r\n    require(msg.sender == lotteryContract, \"Only Lottery contract can mint the lottery tickets.\");\r\n    require(to != address(0), \"Invalid address.\");\r\n\r\n    uint256 createdTokenId = tokenIdCounter;\r\n\r\n    addTokenTo(to, createdTokenId);\r\n    tokens[createdTokenId].lotteryDeadline = lotteryDeadline;\r\n    lotteryTickets[lotteryId].push(createdTokenId);\r\n    lotteryUsersTickets[lotteryId][to].push(createdTokenId);\r\n    emit Transfer(address(0), to, createdTokenId);\r\n\r\n    totalSupply = totalSupply.add(1);\r\n    tokenIdCounter = tokenIdCounter.add(1);\r\n\r\n    return createdTokenId;\r\n  }\r\n\r\n  //function fillLotteryTicket(uint256 tokenId, uint8 digit1, uint8 digit2, uint8 digit3) public\r\n  function fillLotteryTicket(uint256 tokenId, bytes32 encodedDigit1, bytes32 encodedDigit2, bytes32 encodedDigit3, uint8 digit1, uint8 digit2, uint8 digit3, bytes32 secretPhraseHash) public\r\n  {\r\n    require(exists(tokenId), \"Specified token doesn't exist.\");\r\n    require(msg.sender == tokens[tokenId].tokenOwner, \"Only ticket owner can fill a lottery ticket.\");\r\n    //require(now < tokens[tokenId].lotteryDeadline, \"Too late for filling a ticket.\");\r\n    require(lottery.isFillingTicketsAllowed(), \"Too late for filling a ticket.\");\r\n\r\n    //require(digit1 >= 1 && digit1 <= 99, \"Digit 1 is not between 1 and 99.\");\r\n    //require(digit2 >= 1 && digit2 <= 99, \"Digit 2 is not between 1 and 99.\");\r\n    //require(digit3 >= 1 && digit3 <= 99, \"Digit 3 is not between 1 and 99.\");\r\n    //require(digit1 == digit2 || digit1 == digit3 || digit2 == digit3, \"All digits should be unique.\");\r\n    //tokens[tokenId].hash = keccak256(abi.encodePacked(digit1, digit2, digit3));\r\n\r\n    tokens[tokenId].encodedDigit1 = encodedDigit1;\r\n    tokens[tokenId].encodedDigit2 = encodedDigit2;\r\n    tokens[tokenId].encodedDigit3 = encodedDigit3;\r\n    tokens[tokenId].secretPhraseHash = secretPhraseHash;\r\n    tokens[tokenId].combinationHash = keccak256(abi.encodePacked(digit1, digit2, digit3));\r\n\r\n    emit TicketFilled(msg.sender, tokenId);\r\n  }\r\n\r\n  function getLotteryTicketHash(uint256 tokenId) public view returns(bytes32) \r\n  {\r\n     return tokens[tokenId].combinationHash;\r\n  }\r\n\r\n  function burn(uint256 tokenId) internal\r\n  {\r\n    address owner = ownerOf(tokenId);\r\n    clearApproval(owner, tokenId);\r\n    removeTokenFrom(owner, tokenId);\r\n\r\n    totalSupply = totalSupply.sub(1);\r\n    emit Transfer(owner, address(0), tokenId);\r\n  }\r\n\r\n  function addTokenTo(address to, uint256 tokenId) internal\r\n  {\r\n    require(tokens[tokenId].tokenOwner == address(0), \"Invalid address.\");\r\n\r\n    tokens[tokenId].tokenOwner = to;\r\n    ownedTokensCount[to] = ownedTokensCount[to].add(1);\r\n  }\r\n\r\n  function removeTokenFrom(address from, uint256 tokenId) internal\r\n  {\r\n    ownedTokensCount[from] = ownedTokensCount[from].sub(1);\r\n    tokens[tokenId].tokenOwner = address(0);\r\n  }\r\n\r\n  function clearApproval(address owner, uint256 tokenId) private\r\n  {\r\n    if (tokenApprovals[tokenId] != address(0))\r\n    {\r\n      tokenApprovals[tokenId] = address(0);\r\n    }\r\n  }\r\n\r\n  function getTokenData(uint256 _token_id) public view returns (address tokenOwner, bytes32 encodedDigit1, bytes32 encodedDigit2, bytes32 encodedDigit3, bytes32 secretPhraseHash,\r\n  uint lotteryDeadline) {\r\n      return (tokens[_token_id].tokenOwner, tokens[_token_id].encodedDigit1, tokens[_token_id].encodedDigit2, tokens[_token_id].encodedDigit3,\r\n      tokens[_token_id].secretPhraseHash, tokens[_token_id].lotteryDeadline);\r\n  }\r\n\r\n  function getLotteryTickets(uint256 _lottery_id) public view returns(uint256[]) {\r\n     return lotteryTickets[_lottery_id];\r\n  }\r\n\r\n  function getUsersTickets(uint256 _lottery_id) public view returns(uint256[]) {\r\n        return lotteryUsersTickets[_lottery_id][msg.sender];\r\n  }\r\n\r\n  function TEST_GET_TICKET_ENCODED_DIGITS_AND_SECRET(uint256 lotteryId, uint256 tokenId) public view returns (bytes32 encodedDigit1, bytes32 encodedDigit2, bytes32 encodedDigit3, bytes32 secretPhraseHash)\r\n  {\r\n    uint256[] array = lotteryTickets[lotteryId];\r\n    for (uint i = 0; i < array.length; i++)\r\n    {\r\n        if(array[i] == tokenId)\r\n        {\r\n            return (tokens[tokenId].encodedDigit1, tokens[tokenId].encodedDigit2, tokens[tokenId].encodedDigit3, tokens[tokenId].secretPhraseHash);\r\n        }\r\n    }\r\n  }\r\n\r\n  // migration part\r\n  function receiveMigratedData(address _client, bytes32[] _digs, bytes32 _secret, uint _lap, uint _deadline, bytes32 _combinationHash, uint _ticket) external {\r\n    require(msg.sender == migrationAgent, \"Only Migration agent can calls this method\");\r\n\r\n    //lotteryTicket memory new_ticket = lotteryTicket(_client, _digs[0], _digs[1], _digs[2], _secret, _deadline);\r\n    tokens[_ticket] = lotteryTicket(_client, _digs[0], _digs[1], _digs[2], _secret, _combinationHash, _deadline);\r\n\r\n    lotteryTickets[_lap].push(_ticket);\r\n    lotteryUsersTickets[_lap][_client].push(_ticket);\r\n    totalSupply += 1;\r\n  }\r\n\r\n  function setMigrationAgent(address _agent) external {\r\n        require(migrationAgent == 0, \"Migration agent is specified already!!!\");\r\n        require(msg.sender == owner, \"Only Owner can setup Migration agent!!!\");\r\n        require(is_migrated == false, 'Contract was migrated already');\r\n        migrationAgent = _agent;\r\n  }\r\n\r\n\r\n  function finalizeMigration() public{\r\n        require(msg.sender == migrationAgent, \"Only Migration agent can do it!!!\");\r\n        migrationAgent = 0;\r\n        is_migrated = true;\r\n  }\r\n}",
  "sourcePath": "C:\\blockchain\\new_version\\hashlottery3\\truffle\\contracts\\ERC721_new.sol",
  "compiler": {
    "name": "solc",
    "version": "0.4.24+commit.e67f0147.Emscripten.clang"
  },
  "schemaVersion": "2.0.1",
  "updatedAt": "2018-12-10T17:48:05.007Z"
}