{
  "contractName": "LotterySeller",
  "abi": [
    {
      "constant": true,
      "inputs": [],
      "name": "profitWallet",
      "outputs": [
        {
          "name": "",
          "type": "address"
        }
      ],
      "payable": false,
      "stateMutability": "view",
      "type": "function"
    },
    {
      "constant": true,
      "inputs": [],
      "name": "deadline",
      "outputs": [
        {
          "name": "",
          "type": "uint256"
        }
      ],
      "payable": false,
      "stateMutability": "view",
      "type": "function"
    },
    {
      "constant": true,
      "inputs": [],
      "name": "prizeFundWallet",
      "outputs": [
        {
          "name": "",
          "type": "address"
        }
      ],
      "payable": false,
      "stateMutability": "view",
      "type": "function"
    },
    {
      "constant": true,
      "inputs": [],
      "name": "lotteryAddress",
      "outputs": [
        {
          "name": "",
          "type": "address"
        }
      ],
      "payable": false,
      "stateMutability": "view",
      "type": "function"
    },
    {
      "constant": true,
      "inputs": [
        {
          "name": "",
          "type": "uint256"
        }
      ],
      "name": "lotHistory",
      "outputs": [
        {
          "name": "",
          "type": "bool"
        }
      ],
      "payable": false,
      "stateMutability": "view",
      "type": "function"
    },
    {
      "constant": true,
      "inputs": [],
      "name": "ticketContract",
      "outputs": [
        {
          "name": "",
          "type": "address"
        }
      ],
      "payable": false,
      "stateMutability": "view",
      "type": "function"
    },
    {
      "constant": true,
      "inputs": [],
      "name": "lotteryLotNumber",
      "outputs": [
        {
          "name": "",
          "type": "uint256"
        }
      ],
      "payable": false,
      "stateMutability": "view",
      "type": "function"
    },
    {
      "constant": true,
      "inputs": [],
      "name": "price",
      "outputs": [
        {
          "name": "",
          "type": "uint256"
        }
      ],
      "payable": false,
      "stateMutability": "view",
      "type": "function"
    },
    {
      "constant": true,
      "inputs": [],
      "name": "start",
      "outputs": [
        {
          "name": "",
          "type": "uint256"
        }
      ],
      "payable": false,
      "stateMutability": "view",
      "type": "function"
    },
    {
      "constant": false,
      "inputs": [
        {
          "name": "newOwner",
          "type": "address"
        }
      ],
      "name": "transferOwnership",
      "outputs": [],
      "payable": false,
      "stateMutability": "nonpayable",
      "type": "function"
    },
    {
      "inputs": [],
      "payable": false,
      "stateMutability": "nonpayable",
      "type": "constructor"
    },
    {
      "anonymous": false,
      "inputs": [
        {
          "indexed": false,
          "name": "buyer",
          "type": "address"
        },
        {
          "indexed": false,
          "name": "ticketsSold",
          "type": "uint256"
        }
      ],
      "name": "ticketsSold",
      "type": "event"
    },
    {
      "anonymous": false,
      "inputs": [
        {
          "indexed": false,
          "name": "lotNumber",
          "type": "uint256"
        }
      ],
      "name": "newLotNumberSetup",
      "type": "event"
    },
    {
      "constant": false,
      "inputs": [
        {
          "name": "_deadline",
          "type": "uint256"
        },
        {
          "name": "_start",
          "type": "uint256"
        },
        {
          "name": "_lotteryLotNumber",
          "type": "uint256"
        }
      ],
      "name": "setNewLotteryLot",
      "outputs": [],
      "payable": false,
      "stateMutability": "nonpayable",
      "type": "function"
    },
    {
      "constant": false,
      "inputs": [
        {
          "name": "_price",
          "type": "uint256"
        }
      ],
      "name": "setPrice",
      "outputs": [],
      "payable": false,
      "stateMutability": "nonpayable",
      "type": "function"
    },
    {
      "constant": false,
      "inputs": [
        {
          "name": "_ticketContractAddress",
          "type": "address"
        }
      ],
      "name": "setTicketAddress",
      "outputs": [],
      "payable": false,
      "stateMutability": "nonpayable",
      "type": "function"
    },
    {
      "constant": false,
      "inputs": [
        {
          "name": "_profitWalletAddress",
          "type": "address"
        }
      ],
      "name": "setProfitWallet",
      "outputs": [],
      "payable": false,
      "stateMutability": "nonpayable",
      "type": "function"
    },
    {
      "constant": false,
      "inputs": [
        {
          "name": "_prizeFundWalletAddress",
          "type": "address"
        }
      ],
      "name": "setPrizeFundWallet",
      "outputs": [],
      "payable": false,
      "stateMutability": "nonpayable",
      "type": "function"
    },
    {
      "constant": false,
      "inputs": [
        {
          "name": "_lotteryAddress",
          "type": "address"
        }
      ],
      "name": "setLottery",
      "outputs": [],
      "payable": false,
      "stateMutability": "nonpayable",
      "type": "function"
    },
    {
      "constant": false,
      "inputs": [],
      "name": "buyTickets",
      "outputs": [],
      "payable": true,
      "stateMutability": "payable",
      "type": "function"
    },
    {
      "constant": true,
      "inputs": [],
      "name": "getBalance",
      "outputs": [
        {
          "name": "",
          "type": "uint256"
        }
      ],
      "payable": false,
      "stateMutability": "view",
      "type": "function"
    },
    {
      "constant": true,
      "inputs": [],
      "name": "getPrice",
      "outputs": [
        {
          "name": "",
          "type": "uint256"
        }
      ],
      "payable": false,
      "stateMutability": "view",
      "type": "function"
    },
    {
      "constant": true,
      "inputs": [],
      "name": "getSaleDeadline",
      "outputs": [
        {
          "name": "",
          "type": "uint256"
        }
      ],
      "payable": false,
      "stateMutability": "view",
      "type": "function"
    },
    {
      "constant": true,
      "inputs": [],
      "name": "getSaleStart",
      "outputs": [
        {
          "name": "",
          "type": "uint256"
        }
      ],
      "payable": false,
      "stateMutability": "view",
      "type": "function"
    }
  ],
  "bytecode": "0x608060405234801561001057600080fd5b50336000806101000a81548173ffffffffffffffffffffffffffffffffffffffff021916908373ffffffffffffffffffffffffffffffffffffffff16021790555042600681905550611358806100676000396000f30060806040526004361061011d576000357c0100000000000000000000000000000000000000000000000000000000900463ffffffff16806303dd6a771461012257806312065fe0146101655780632301d7751461019057806329dcb0cf146101e757806332df0a8814610212578063338d2335146102695780633beedf6d146102945780634da56477146102eb57806358a86e1d146103305780635ac8c9bc1461038757806391b7f5ed146103b2578063969235a4146103df57806398d5fdca1461040a578063a035b1fe14610435578063be9a655514610460578063c81998261461048b578063da276b5114610495578063da2ca9b5146104d6578063ed9a5bbb14610519578063f298083b1461055c578063f2fde38b1461059f575b600080fd5b34801561012e57600080fd5b50610163600480360381019080803573ffffffffffffffffffffffffffffffffffffffff1690602001909291905050506105e2565b005b34801561017157600080fd5b5061017a6106ea565b6040518082815260200191505060405180910390f35b34801561019c57600080fd5b506101a5610709565b604051808273ffffffffffffffffffffffffffffffffffffffff1673ffffffffffffffffffffffffffffffffffffffff16815260200191505060405180910390f35b3480156101f357600080fd5b506101fc61072f565b6040518082815260200191505060405180910390f35b34801561021e57600080fd5b50610227610735565b604051808273ffffffffffffffffffffffffffffffffffffffff1673ffffffffffffffffffffffffffffffffffffffff16815260200191505060405180910390f35b34801561027557600080fd5b5061027e61075b565b6040518082815260200191505060405180910390f35b3480156102a057600080fd5b506102a9610765565b604051808273ffffffffffffffffffffffffffffffffffffffff1673ffffffffffffffffffffffffffffffffffffffff16815260200191505060405180910390f35b3480156102f757600080fd5b506103166004803603810190808035906020019092919050505061078b565b604051808215151515815260200191505060405180910390f35b34801561033c57600080fd5b506103456107ab565b604051808273ffffffffffffffffffffffffffffffffffffffff1673ffffffffffffffffffffffffffffffffffffffff16815260200191505060405180910390f35b34801561039357600080fd5b5061039c6107d1565b6040518082815260200191505060405180910390f35b3480156103be57600080fd5b506103dd600480360381019080803590602001909291905050506107d7565b005b3480156103eb57600080fd5b506103f46108a5565b6040518082815260200191505060405180910390f35b34801561041657600080fd5b5061041f6108af565b6040518082815260200191505060405180910390f35b34801561044157600080fd5b5061044a6108b9565b6040518082815260200191505060405180910390f35b34801561046c57600080fd5b506104756108bf565b6040518082815260200191505060405180910390f35b6104936108c5565b005b3480156104a157600080fd5b506104d4600480360381019080803590602001909291908035906020019092919080359060200190929190505050610d33565b005b3480156104e257600080fd5b50610517600480360381019080803573ffffffffffffffffffffffffffffffffffffffff169060200190929190505050610f0d565b005b34801561052557600080fd5b5061055a600480360381019080803573ffffffffffffffffffffffffffffffffffffffff169060200190929190505050611015565b005b34801561056857600080fd5b5061059d600480360381019080803573ffffffffffffffffffffffffffffffffffffffff16906020019092919050505061111d565b005b3480156105ab57600080fd5b506105e0600480360381019080803573ffffffffffffffffffffffffffffffffffffffff169060200190929190505050611225565b005b6000809054906101000a900473ffffffffffffffffffffffffffffffffffffffff1673ffffffffffffffffffffffffffffffffffffffff163373ffffffffffffffffffffffffffffffffffffffff161415156106a6576040517f08c379a000000000000000000000000000000000000000000000000000000000815260040180806020018281038252601e8152602001807f4f6e6c79206f776e65722063616e20646f207468697320616374696f6e21000081525060200191505060405180910390fd5b80600260006101000a81548173ffffffffffffffffffffffffffffffffffffffff021916908373ffffffffffffffffffffffffffffffffffffffff16021790555050565b60003073ffffffffffffffffffffffffffffffffffffffff1631905090565b600160009054906101000a900473ffffffffffffffffffffffffffffffffffffffff1681565b60055481565b600260009054906101000a900473ffffffffffffffffffffffffffffffffffffffff1681565b6000600554905090565b600360009054906101000a900473ffffffffffffffffffffffffffffffffffffffff1681565b60096020528060005260406000206000915054906101000a900460ff1681565b600460009054906101000a900473ffffffffffffffffffffffffffffffffffffffff1681565b60085481565b6000809054906101000a900473ffffffffffffffffffffffffffffffffffffffff1673ffffffffffffffffffffffffffffffffffffffff163373ffffffffffffffffffffffffffffffffffffffff1614151561089b576040517f08c379a000000000000000000000000000000000000000000000000000000000815260040180806020018281038252601e8152602001807f4f6e6c79206f776e65722063616e20646f207468697320616374696f6e21000081525060200191505060405180910390fd5b8060078190555050565b6000600654905090565b6000600754905090565b60075481565b60065481565b60008060008060006006544211151561096c576040517f08c379a00000000000000000000000000000000000000000000000000000000081526004018080602001828103825260328152602001807f5468652073616c6520666f72207468652063757272656e74206c6f747465727981526020017f206c6f74206973206e6f74206f70656e6564000000000000000000000000000081525060400191505060405180910390fd5b60055442101515610a0b576040517f08c379a00000000000000000000000000000000000000000000000000000000081526004018080602001828103825260368152602001807f5468652073616c6520666f72207468652063757272656e74206c6f747465727981526020017f206c6f7420697320616c726561647920636c6f7365640000000000000000000081525060400191505060405180910390fd5b34945060075485811515610a1b57fe5b049150600a606486811515610a2c57fe5b04029350605a606486811515610a3e57fe5b04029250600160009054906101000a900473ffffffffffffffffffffffffffffffffffffffff1673ffffffffffffffffffffffffffffffffffffffff166364690c3c856008546040518363ffffffff167c0100000000000000000000000000000000000000000000000000000000028152600401808281526020019150506000604051808303818588803b158015610ad557600080fd5b505af1158015610ae9573d6000803e3d6000fd5b5050505050600260009054906101000a900473ffffffffffffffffffffffffffffffffffffffff1673ffffffffffffffffffffffffffffffffffffffff1663d0ea53de846008546040518363ffffffff167c0100000000000000000000000000000000000000000000000000000000028152600401808281526020019150506000604051808303818588803b158015610b8157600080fd5b505af1158015610b95573d6000803e3d6000fd5b5050505050600090505b81811015610cc157600460009054906101000a900473ffffffffffffffffffffffffffffffffffffffff1673ffffffffffffffffffffffffffffffffffffffff1663156e29f6336008546005546040518463ffffffff167c0100000000000000000000000000000000000000000000000000000000028152600401808473ffffffffffffffffffffffffffffffffffffffff1673ffffffffffffffffffffffffffffffffffffffff1681526020018381526020018281526020019350505050602060405180830381600087803b158015610c7857600080fd5b505af1158015610c8c573d6000803e3d6000fd5b505050506040513d6020811015610ca257600080fd5b8101908080519060200190929190505050508080600101915050610b9f565b7f6c97649dabd6ced984e48121ce9147c8306cee5675b5c4ac8aacc1d0a9df37ab3383604051808373ffffffffffffffffffffffffffffffffffffffff1673ffffffffffffffffffffffffffffffffffffffff1681526020018281526020019250505060405180910390a15050505050565b600360009054906101000a900473ffffffffffffffffffffffffffffffffffffffff1673ffffffffffffffffffffffffffffffffffffffff163373ffffffffffffffffffffffffffffffffffffffff16141515610df8576040517f08c379a000000000000000000000000000000000000000000000000000000000815260040180806020018281038252601c8152602001807f4f6e6c79204c6f74746572792063616e20736574204e6577204c6f740000000081525060200191505060405180910390fd5b6009600082815260200190815260200160002060009054906101000a900460ff16151515610e8e576040517f08c379a000000000000000000000000000000000000000000000000000000000815260040180806020018281038252601c8152602001807f596f752063616e206e6f7420736574206e756d6265722074776963650000000081525060200191505060405180910390fd5b82600581905550816006819055508060088190555060016009600083815260200190815260200160002060006101000a81548160ff0219169083151502179055507f2038c707dbdc335bbce2303771061bffd74ef1491b81ac85a928d606b3b4333e6008546040518082815260200191505060405180910390a1505050565b6000809054906101000a900473ffffffffffffffffffffffffffffffffffffffff1673ffffffffffffffffffffffffffffffffffffffff163373ffffffffffffffffffffffffffffffffffffffff16141515610fd1576040517f08c379a000000000000000000000000000000000000000000000000000000000815260040180806020018281038252601e8152602001807f4f6e6c79206f776e65722063616e20646f207468697320616374696f6e21000081525060200191505060405180910390fd5b80600160006101000a81548173ffffffffffffffffffffffffffffffffffffffff021916908373ffffffffffffffffffffffffffffffffffffffff16021790555050565b6000809054906101000a900473ffffffffffffffffffffffffffffffffffffffff1673ffffffffffffffffffffffffffffffffffffffff163373ffffffffffffffffffffffffffffffffffffffff161415156110d9576040517f08c379a000000000000000000000000000000000000000000000000000000000815260040180806020018281038252601e8152602001807f4f6e6c79206f776e65722063616e20646f207468697320616374696f6e21000081525060200191505060405180910390fd5b80600460006101000a81548173ffffffffffffffffffffffffffffffffffffffff021916908373ffffffffffffffffffffffffffffffffffffffff16021790555050565b6000809054906101000a900473ffffffffffffffffffffffffffffffffffffffff1673ffffffffffffffffffffffffffffffffffffffff163373ffffffffffffffffffffffffffffffffffffffff161415156111e1576040517f08c379a000000000000000000000000000000000000000000000000000000000815260040180806020018281038252601e8152602001807f4f6e6c79206f776e65722063616e20646f207468697320616374696f6e21000081525060200191505060405180910390fd5b80600360006101000a81548173ffffffffffffffffffffffffffffffffffffffff021916908373ffffffffffffffffffffffffffffffffffffffff16021790555050565b6000809054906101000a900473ffffffffffffffffffffffffffffffffffffffff1673ffffffffffffffffffffffffffffffffffffffff163373ffffffffffffffffffffffffffffffffffffffff161415156112e9576040517f08c379a000000000000000000000000000000000000000000000000000000000815260040180806020018281038252601e8152602001807f4f6e6c79206f776e65722063616e20646f207468697320616374696f6e21000081525060200191505060405180910390fd5b806000806101000a81548173ffffffffffffffffffffffffffffffffffffffff021916908373ffffffffffffffffffffffffffffffffffffffff160217905550505600a165627a7a723058207a1e8f2c638b83ad349c954e554f1c59a3d45ceb52ac631c51e2795df490fd130029",
  "source": "pragma solidity ^0.4.24;\r\n\r\nimport \"./owner.sol\";\r\nimport \"./interfaces/IERC721.sol\";\r\nimport \"./interfaces/IPrizeFundWallet.sol\";\r\nimport \"./interfaces/IProfitWallet.sol\";\r\n\r\ncontract LotterySeller is Ownable\r\n{\r\n    IProfitWallet public profitWallet;\r\n    IPrizeFundWallet public prizeFundWallet;\r\n    //ILottery public lotteryAddress;\r\n    address public lotteryAddress;\r\n    IERC721 public ticketContract;\r\n\r\n    uint public deadline;\r\n    uint public start;\r\n    uint public price;\r\n    uint public lotteryLotNumber;\r\n\r\n    mapping(uint => bool) public lotHistory;\r\n\r\n    event ticketsSold(address buyer, uint ticketsSold);\r\n    event newLotNumberSetup(uint lotNumber);\r\n\r\n    constructor () public\r\n    {\r\n        start = now;\r\n    }\r\n\r\n    function setNewLotteryLot(uint _deadline, uint _start, uint _lotteryLotNumber) public {\r\n        require(msg.sender == lotteryAddress, \"Only Lottery can set New Lot\");\r\n        require(!lotHistory[_lotteryLotNumber], \"You can not set number twice\");\r\n        deadline = _deadline;\r\n        start = _start;\r\n        lotteryLotNumber = _lotteryLotNumber;\r\n        lotHistory[_lotteryLotNumber] = true;\r\n        emit newLotNumberSetup(lotteryLotNumber);\r\n    }\r\n\r\n    function setPrice (uint _price) public onlyOwner{\r\n        price = _price;\r\n    }\r\n\r\n    function setTicketAddress(address _ticketContractAddress) public onlyOwner\r\n    {\r\n        ticketContract = IERC721(_ticketContractAddress);\r\n    }\r\n\r\n    function setProfitWallet(address _profitWalletAddress) public onlyOwner\r\n    {\r\n        profitWallet = IProfitWallet(_profitWalletAddress);\r\n    }\r\n\r\n    function setPrizeFundWallet(address _prizeFundWalletAddress) public onlyOwner\r\n    {\r\n        prizeFundWallet = IPrizeFundWallet(_prizeFundWalletAddress);\r\n    }\r\n\r\n    function setLottery(address _lotteryAddress) public onlyOwner\r\n    {\r\n        //lotteryAddress = ILottery(_lotteryAddress);\r\n        lotteryAddress = _lotteryAddress;\r\n    }\r\n\r\n    function buyTickets() public payable afterStart beforeDeadline\r\n    {\r\n        uint amount = msg.value;\r\n        uint profitAmount;\r\n        uint prizeAmount;\r\n        uint ticketsToSale;\r\n\r\n        ticketsToSale = amount / price;\r\n        profitAmount = amount / 100 * 10;\r\n        prizeAmount = amount / 100 * 90;\r\n\r\n        profitWallet.receiveProfit.value(profitAmount)(lotteryLotNumber);\r\n        prizeFundWallet.putFundsToPrizeWallet.value(prizeAmount)(lotteryLotNumber);\r\n\r\n        for (uint i = 0; i < ticketsToSale; i++) {\r\n            ticketContract.mint(msg.sender, lotteryLotNumber, deadline);\r\n        }\r\n\r\n        emit ticketsSold(msg.sender, ticketsToSale);\r\n    }\r\n\r\n    modifier afterStart()\r\n    {\r\n        require(now > start, \"The sale for the current lottery lot is not opened\");\r\n        _;\r\n    }\r\n\r\n    modifier beforeDeadline()\r\n    {\r\n        require(now < deadline, \"The sale for the current lottery lot is already closed\");\r\n        _;\r\n    }\r\n    \r\n    function getBalance() public view returns (uint256) {\r\n        return address(this).balance;\r\n    } \r\n\r\n    function getPrice() public view returns (uint256) {\r\n        return price;\r\n    }\r\n\r\n    function getSaleDeadline() public view returns (uint256) {\r\n        return deadline;\r\n    }\r\n\r\n    function getSaleStart() public view returns (uint256) {\r\n        return start;\r\n    }\r\n    \r\n}\r\n",
  "sourcePath": "C:\\blockchain\\new_version\\hashlottery3\\truffle\\contracts\\LotterySeller.sol",
  "compiler": {
    "name": "solc",
    "version": "0.4.24+commit.e67f0147.Emscripten.clang"
  },
  "schemaVersion": "2.0.1",
  "updatedAt": "2018-12-10T17:52:30.270Z"
}