{
  "contractName": "Lottery",
  "abi": [
    {
      "constant": true,
      "inputs": [],
      "name": "profitWallet",
      "outputs": [
        {
          "name": "",
          "type": "address"
        }
      ],
      "payable": false,
      "stateMutability": "view",
      "type": "function"
    },
    {
      "constant": true,
      "inputs": [],
      "name": "prizeFundWallet",
      "outputs": [
        {
          "name": "",
          "type": "address"
        }
      ],
      "payable": false,
      "stateMutability": "view",
      "type": "function"
    },
    {
      "constant": true,
      "inputs": [],
      "name": "currentLotteryId",
      "outputs": [
        {
          "name": "",
          "type": "uint256"
        }
      ],
      "payable": false,
      "stateMutability": "view",
      "type": "function"
    },
    {
      "constant": true,
      "inputs": [
        {
          "name": "",
          "type": "uint256"
        }
      ],
      "name": "lotteryHistory",
      "outputs": [
        {
          "name": "digit1",
          "type": "uint8"
        },
        {
          "name": "digit2",
          "type": "uint8"
        },
        {
          "name": "digit3",
          "type": "uint8"
        },
        {
          "name": "generated",
          "type": "bool"
        },
        {
          "name": "dateTimeGenerated",
          "type": "uint256"
        },
        {
          "name": "combinationHash",
          "type": "bytes32"
        }
      ],
      "payable": false,
      "stateMutability": "view",
      "type": "function"
    },
    {
      "constant": true,
      "inputs": [],
      "name": "oracleAddress",
      "outputs": [
        {
          "name": "",
          "type": "address"
        }
      ],
      "payable": false,
      "stateMutability": "view",
      "type": "function"
    },
    {
      "constant": true,
      "inputs": [],
      "name": "lotterySeller",
      "outputs": [
        {
          "name": "",
          "type": "address"
        }
      ],
      "payable": false,
      "stateMutability": "view",
      "type": "function"
    },
    {
      "constant": false,
      "inputs": [
        {
          "name": "newOwner",
          "type": "address"
        }
      ],
      "name": "transferOwnership",
      "outputs": [],
      "payable": false,
      "stateMutability": "nonpayable",
      "type": "function"
    },
    {
      "inputs": [],
      "payable": false,
      "stateMutability": "nonpayable",
      "type": "constructor"
    },
    {
      "constant": false,
      "inputs": [
        {
          "name": "_oracleAddress",
          "type": "address"
        }
      ],
      "name": "setOracleAddress",
      "outputs": [],
      "payable": false,
      "stateMutability": "nonpayable",
      "type": "function"
    },
    {
      "constant": false,
      "inputs": [
        {
          "name": "_profitWalletAddress",
          "type": "address"
        }
      ],
      "name": "setProfitWalletContract",
      "outputs": [],
      "payable": false,
      "stateMutability": "nonpayable",
      "type": "function"
    },
    {
      "constant": false,
      "inputs": [
        {
          "name": "_prizeFundWallet",
          "type": "address"
        }
      ],
      "name": "setPrizeFundWalletContract",
      "outputs": [],
      "payable": false,
      "stateMutability": "nonpayable",
      "type": "function"
    },
    {
      "constant": false,
      "inputs": [
        {
          "name": "_lotterySeller",
          "type": "address"
        }
      ],
      "name": "setLotterySellerContract",
      "outputs": [],
      "payable": false,
      "stateMutability": "nonpayable",
      "type": "function"
    },
    {
      "constant": false,
      "inputs": [],
      "name": "startNewLottery",
      "outputs": [
        {
          "name": "startedSuccessfully",
          "type": "bool"
        }
      ],
      "payable": false,
      "stateMutability": "nonpayable",
      "type": "function"
    },
    {
      "constant": true,
      "inputs": [
        {
          "name": "lotteryId",
          "type": "uint256"
        }
      ],
      "name": "isRewardingAllowed",
      "outputs": [
        {
          "name": "isAllowed",
          "type": "bool"
        }
      ],
      "payable": false,
      "stateMutability": "view",
      "type": "function"
    },
    {
      "constant": true,
      "inputs": [
        {
          "name": "lotteryId",
          "type": "uint256"
        }
      ],
      "name": "isSubmittingTicketsForRewardAllowed",
      "outputs": [
        {
          "name": "",
          "type": "bool"
        }
      ],
      "payable": false,
      "stateMutability": "view",
      "type": "function"
    },
    {
      "constant": true,
      "inputs": [],
      "name": "isSellingTicketsAllowed",
      "outputs": [
        {
          "name": "isAllowed",
          "type": "bool"
        }
      ],
      "payable": false,
      "stateMutability": "view",
      "type": "function"
    },
    {
      "constant": true,
      "inputs": [],
      "name": "isFillingTicketsAllowed",
      "outputs": [
        {
          "name": "isAllowed",
          "type": "bool"
        }
      ],
      "payable": false,
      "stateMutability": "view",
      "type": "function"
    },
    {
      "constant": true,
      "inputs": [],
      "name": "isReturningTicketsForCurrentLotteryAllowed",
      "outputs": [
        {
          "name": "isAllowed",
          "type": "bool"
        }
      ],
      "payable": false,
      "stateMutability": "view",
      "type": "function"
    },
    {
      "constant": true,
      "inputs": [],
      "name": "isTokensTransferAllowed",
      "outputs": [
        {
          "name": "",
          "type": "bool"
        }
      ],
      "payable": false,
      "stateMutability": "view",
      "type": "function"
    },
    {
      "constant": true,
      "inputs": [],
      "name": "getNextLotteryStart",
      "outputs": [
        {
          "name": "",
          "type": "uint256"
        }
      ],
      "payable": false,
      "stateMutability": "view",
      "type": "function"
    },
    {
      "constant": true,
      "inputs": [],
      "name": "getPrizeDestributionTime",
      "outputs": [
        {
          "name": "",
          "type": "uint256"
        }
      ],
      "payable": false,
      "stateMutability": "view",
      "type": "function"
    },
    {
      "constant": true,
      "inputs": [
        {
          "name": "lotteryId",
          "type": "uint256"
        },
        {
          "name": "digit1",
          "type": "uint8"
        },
        {
          "name": "digit2",
          "type": "uint8"
        },
        {
          "name": "digit3",
          "type": "uint8"
        }
      ],
      "name": "checkCombination",
      "outputs": [
        {
          "name": "isWinning",
          "type": "bool"
        }
      ],
      "payable": false,
      "stateMutability": "view",
      "type": "function"
    },
    {
      "constant": true,
      "inputs": [
        {
          "name": "lotteryId",
          "type": "uint256"
        }
      ],
      "name": "getWinningCombination",
      "outputs": [
        {
          "name": "winningDigit1",
          "type": "uint8"
        },
        {
          "name": "winningDigit2",
          "type": "uint8"
        },
        {
          "name": "winningDigit3",
          "type": "uint8"
        }
      ],
      "payable": false,
      "stateMutability": "view",
      "type": "function"
    },
    {
      "constant": true,
      "inputs": [
        {
          "name": "lotteryId",
          "type": "uint256"
        }
      ],
      "name": "getWinningHash",
      "outputs": [
        {
          "name": "",
          "type": "bytes32"
        }
      ],
      "payable": false,
      "stateMutability": "view",
      "type": "function"
    },
    {
      "constant": false,
      "inputs": [
        {
          "name": "digit1",
          "type": "uint8"
        },
        {
          "name": "digit2",
          "type": "uint8"
        },
        {
          "name": "digit3",
          "type": "uint8"
        }
      ],
      "name": "setWinningCombination",
      "outputs": [
        {
          "name": "",
          "type": "uint8"
        }
      ],
      "payable": false,
      "stateMutability": "nonpayable",
      "type": "function"
    },
    {
      "constant": true,
      "inputs": [],
      "name": "getCurrentLotteryId",
      "outputs": [
        {
          "name": "",
          "type": "uint256"
        }
      ],
      "payable": false,
      "stateMutability": "view",
      "type": "function"
    },
    {
      "constant": true,
      "inputs": [],
      "name": "getLotteryResultsGeneration",
      "outputs": [
        {
          "name": "",
          "type": "uint256"
        }
      ],
      "payable": false,
      "stateMutability": "view",
      "type": "function"
    },
    {
      "constant": true,
      "inputs": [],
      "name": "getLotteryState",
      "outputs": [
        {
          "name": "",
          "type": "uint256"
        }
      ],
      "payable": false,
      "stateMutability": "view",
      "type": "function"
    },
    {
      "constant": true,
      "inputs": [
        {
          "name": "_lottery_id",
          "type": "uint256"
        }
      ],
      "name": "getLotteryHistory",
      "outputs": [
        {
          "name": "winningDigit1",
          "type": "uint8"
        },
        {
          "name": "winningDigit2",
          "type": "uint8"
        },
        {
          "name": "winningDigit3",
          "type": "uint8"
        },
        {
          "name": "dateTime",
          "type": "uint256"
        }
      ],
      "payable": false,
      "stateMutability": "view",
      "type": "function"
    }
  ],
  "bytecode": "0x608060405234801561001057600080fd5b50336000806101000a81548173ffffffffffffffffffffffffffffffffffffffff021916908373ffffffffffffffffffffffffffffffffffffffff1602179055506000600960006101000a81548160ff0219169083151502179055506000600960016101000a81548160ff0219169083151502179055506000600960026101000a81548160ff02191690831515021790555060006002819055506000600881905550611f79806100c16000396000f30060806040526004361061016a576000357c0100000000000000000000000000000000000000000000000000000000900463ffffffff1680631a260ca01461016f57806321406f95146101d35780632301d7751461023f5780632a3a05711461029657806332df0a88146102fe5780633dd73a171461035557806340ab1af214610384578063492844fb146103c75780634c69c00f146104105780635384e6cf14610453578063539775f3146104965780635727cb59146104f7578063658415d8146105265780636938fc0b1461056b5780636b68c03c1461059a5780636be4097c146105c55780636d6fe230146105f0578063747a663b146106725780637a07bb66146106a15780639194c80f146106cc578063a89ae4ba146106fb578063e249884b14610752578063e41d90601461077d578063e87e121d146107a8578063e8cc6893146107d3578063ebe856641461082a578063f2fde38b1461086d578063fce19c2e146108b0575b600080fd5b34801561017b57600080fd5b506101b7600480360381019080803560ff169060200190929190803560ff169060200190929190803560ff1690602001909291905050506108f5565b604051808260ff1660ff16815260200191505060405180910390f35b3480156101df57600080fd5b5061022560048036038101908080359060200190929190803560ff169060200190929190803560ff169060200190929190803560ff169060200190929190505050610e9e565b604051808215151515815260200191505060405180910390f35b34801561024b57600080fd5b50610254610f30565b604051808273ffffffffffffffffffffffffffffffffffffffff1673ffffffffffffffffffffffffffffffffffffffff16815260200191505060405180910390f35b3480156102a257600080fd5b506102c160048036038101908080359060200190929190505050610f56565b604051808560ff1660ff1681526020018460ff1660ff1681526020018360ff1660ff16815260200182815260200194505050505060405180910390f35b34801561030a57600080fd5b50610313610fbe565b604051808273ffffffffffffffffffffffffffffffffffffffff1673ffffffffffffffffffffffffffffffffffffffff16815260200191505060405180910390f35b34801561036157600080fd5b5061036a610fe4565b604051808215151515815260200191505060405180910390f35b34801561039057600080fd5b506103c5600480360381019080803573ffffffffffffffffffffffffffffffffffffffff169060200190929190505050610ffb565b005b3480156103d357600080fd5b506103f260048036038101908080359060200190929190505050611103565b60405180826000191660001916815260200191505060405180910390f35b34801561041c57600080fd5b50610451600480360381019080803573ffffffffffffffffffffffffffffffffffffffff169060200190929190505050611201565b005b34801561045f57600080fd5b50610494600480360381019080803573ffffffffffffffffffffffffffffffffffffffff169060200190929190505050611309565b005b3480156104a257600080fd5b506104c160048036038101908080359060200190929190505050611411565b604051808460ff1660ff1681526020018360ff1660ff1681526020018260ff1660ff168152602001935050505060405180910390f35b34801561050357600080fd5b5061050c611549565b604051808215151515815260200191505060405180910390f35b34801561053257600080fd5b50610551600480360381019080803590602001909291905050506118ee565b604051808215151515815260200191505060405180910390f35b34801561057757600080fd5b50610580611944565b604051808215151515815260200191505060405180910390f35b3480156105a657600080fd5b506105af611975565b6040518082815260200191505060405180910390f35b3480156105d157600080fd5b506105da6119f7565b6040518082815260200191505060405180910390f35b3480156105fc57600080fd5b5061061b600480360381019080803590602001909291905050506119fd565b604051808760ff1660ff1681526020018660ff1660ff1681526020018560ff1660ff168152602001841515151581526020018381526020018260001916600019168152602001965050505050505060405180910390f35b34801561067e57600080fd5b50610687611a6d565b604051808215151515815260200191505060405180910390f35b3480156106ad57600080fd5b506106b6611aaa565b6040518082815260200191505060405180910390f35b3480156106d857600080fd5b506106e1611ab4565b604051808215151515815260200191505060405180910390f35b34801561070757600080fd5b50610710611ae5565b604051808273ffffffffffffffffffffffffffffffffffffffff1673ffffffffffffffffffffffffffffffffffffffff16815260200191505060405180910390f35b34801561075e57600080fd5b50610767611b0b565b6040518082815260200191505060405180910390f35b34801561078957600080fd5b50610792611b43565b6040518082815260200191505060405180910390f35b3480156107b457600080fd5b506107bd611b4d565b6040518082815260200191505060405180910390f35b3480156107df57600080fd5b506107e8611b57565b604051808273ffffffffffffffffffffffffffffffffffffffff1673ffffffffffffffffffffffffffffffffffffffff16815260200191505060405180910390f35b34801561083657600080fd5b5061086b600480360381019080803573ffffffffffffffffffffffffffffffffffffffff169060200190929190505050611b7d565b005b34801561087957600080fd5b506108ae600480360381019080803573ffffffffffffffffffffffffffffffffffffffff169060200190929190505050611c85565b005b3480156108bc57600080fd5b506108db60048036038101908080359060200190929190505050611d8c565b604051808215151515815260200191505060405180910390f35b6000806000600960039054906101000a900473ffffffffffffffffffffffffffffffffffffffff1673ffffffffffffffffffffffffffffffffffffffff163373ffffffffffffffffffffffffffffffffffffffff161415156109e5576040517f08c379a00000000000000000000000000000000000000000000000000000000081526004018080602001828103825260238152602001807f4f6e6c79204f7261636c652063616e2063616c6c20746869732066756e63746981526020017f6f6e2e000000000000000000000000000000000000000000000000000000000081525060400191505060405180910390fd5b60016000600254815260200190815260200160002091508160000160039054906101000a900460ff16151515610aa9576040517f08c379a000000000000000000000000000000000000000000000000000000000815260040180806020018281038252602f8152602001807f57696e6e696e6720636f6d62696e6174696f6e2068617320616c72656164792081526020017f6265656e2067656e6572617465642e000000000000000000000000000000000081525060400191505060405180910390fd5b6000600b60009054906101000a900473ffffffffffffffffffffffffffffffffffffffff1673ffffffffffffffffffffffffffffffffffffffff166312065fe06040518163ffffffff167c0100000000000000000000000000000000000000000000000000000000028152600401602060405180830381600087803b158015610b3157600080fd5b505af1158015610b45573d6000803e3d6000fd5b505050506040513d6020811015610b5b57600080fd5b81019080805190602001909291905050501415610b9f576001600960026101000a81548160ff021916908315150217905550610b95611549565b5060009250610e95565b429050610bb8603c600554611dcf90919063ffffffff16565b811015610bc85760039250610e95565b610bde603c600554611df090919063ffffffff16565b811115610bf657610bed611e11565b60029250610e95565b60c0604051908101604052808760ff1681526020018660ff1681526020018560ff168152602001600115158152602001428152602001878787604051602001808460ff1660ff167f01000000000000000000000000000000000000000000000000000000000000000281526001018360ff1660ff167f01000000000000000000000000000000000000000000000000000000000000000281526001018260ff1660ff167f010000000000000000000000000000000000000000000000000000000000000002815260010193505050506040516020818303038152906040526040518082805190602001908083835b602083101515610d095780518252602082019150602081019050602083039250610ce4565b6001836020036101000a03801982511681845116808217855250505050505090500191505060405180910390206000191681525060016000600254815260200190815260200160002060008201518160000160006101000a81548160ff021916908360ff16021790555060208201518160000160016101000a81548160ff021916908360ff16021790555060408201518160000160026101000a81548160ff021916908360ff16021790555060608201518160000160036101000a81548160ff0219169083151502179055506080820151816001015560a08201518160020190600019169055905050600a60009054906101000a900473ffffffffffffffffffffffffffffffffffffffff1673ffffffffffffffffffffffffffffffffffffffff1663d035ceff6040518163ffffffff167c0100000000000000000000000000000000000000000000000000000000028152600401600060405180830381600087803b158015610e7857600080fd5b505af1158015610e8c573d6000803e3d6000fd5b50505050600192505b50509392505050565b6000806001600087815260200190815260200160002090508060000160009054906101000a900460ff1660ff168560ff16148015610ef257508060000160019054906101000a900460ff1660ff168460ff16145b8015610f1457508060000160029054906101000a900460ff1660ff168360ff16145b15610f225760019150610f27565b600091505b50949350505050565b600a60009054906101000a900473ffffffffffffffffffffffffffffffffffffffff1681565b60008060008060006001600087815260200190815260200160002090508060000160009054906101000a900460ff168160000160019054906101000a900460ff168260000160029054906101000a900460ff1683600101549450945094509450509193509193565b600b60009054906101000a900473ffffffffffffffffffffffffffffffffffffffff1681565b6000600960019054906101000a900460ff16905090565b6000809054906101000a900473ffffffffffffffffffffffffffffffffffffffff1673ffffffffffffffffffffffffffffffffffffffff163373ffffffffffffffffffffffffffffffffffffffff161415156110bf576040517f08c379a000000000000000000000000000000000000000000000000000000000815260040180806020018281038252601e8152602001807f4f6e6c79206f776e65722063616e20646f207468697320616374696f6e21000081525060200191505060405180910390fd5b80600c60006101000a81548173ffffffffffffffffffffffffffffffffffffffff021916908373ffffffffffffffffffffffffffffffffffffffff16021790555050565b60008060016000848152602001908152602001600020905060008160000160009054906101000a900460ff1660ff16141515156111f4576040517f08c379a00000000000000000000000000000000000000000000000000000000081526004018080602001828103825260448152602001807f57696e6e696e6720636f6d62696e6174696f6e206861736e2774206265656e2081526020017f67656e6572617465642079657420666f7220737065636966696564206c6f747481526020017f6572792e0000000000000000000000000000000000000000000000000000000081525060600191505060405180910390fd5b8060020154915050919050565b6000809054906101000a900473ffffffffffffffffffffffffffffffffffffffff1673ffffffffffffffffffffffffffffffffffffffff163373ffffffffffffffffffffffffffffffffffffffff161415156112c5576040517f08c379a000000000000000000000000000000000000000000000000000000000815260040180806020018281038252601e8152602001807f4f6e6c79206f776e65722063616e20646f207468697320616374696f6e21000081525060200191505060405180910390fd5b80600960036101000a81548173ffffffffffffffffffffffffffffffffffffffff021916908373ffffffffffffffffffffffffffffffffffffffff16021790555050565b6000809054906101000a900473ffffffffffffffffffffffffffffffffffffffff1673ffffffffffffffffffffffffffffffffffffffff163373ffffffffffffffffffffffffffffffffffffffff161415156113cd576040517f08c379a000000000000000000000000000000000000000000000000000000000815260040180806020018281038252601e8152602001807f4f6e6c79206f776e65722063616e20646f207468697320616374696f6e21000081525060200191505060405180910390fd5b80600a60006101000a81548173ffffffffffffffffffffffffffffffffffffffff021916908373ffffffffffffffffffffffffffffffffffffffff16021790555050565b60008060008060016000868152602001908152602001600020905060008160000160009054906101000a900460ff1660ff1614151515611505576040517f08c379a00000000000000000000000000000000000000000000000000000000081526004018080602001828103825260448152602001807f57696e6e696e6720636f6d62696e6174696f6e206861736e2774206265656e2081526020017f67656e6572617465642079657420666f7220737065636966696564206c6f747481526020017f6572792e0000000000000000000000000000000000000000000000000000000081525060600191505060405180910390fd5b8060000160009054906101000a900460ff168160000160019054906101000a900460ff168260000160029054906101000a900460ff16935093509350509193909250565b6000600960039054906101000a900473ffffffffffffffffffffffffffffffffffffffff1673ffffffffffffffffffffffffffffffffffffffff163373ffffffffffffffffffffffffffffffffffffffff1614806115d257503073ffffffffffffffffffffffffffffffffffffffff163373ffffffffffffffffffffffffffffffffffffffff16145b151561166c576040517f08c379a00000000000000000000000000000000000000000000000000000000081526004018080602001828103825260358152602001807f4f6e6c79204f7261636c65206f72204c6f747465727920697473656c6620636181526020017f6e2063616c6c20746869732066756e6374696f6e2e000000000000000000000081525060400191505060405180910390fd5b600960029054906101000a900460ff161515611727576008544210151515611722576040517f08c379a000000000000000000000000000000000000000000000000000000000815260040180806020018281038252602c8152602001807f4c657373207468616e20323420686f757273207061737365642066726f6d206c81526020017f617374206c6f74746572792e000000000000000000000000000000000000000081525060400191505060405180910390fd5b611743565b6000600960026101000a81548160ff0219169083151502179055505b6000600960006101000a81548160ff0219169083151502179055506000600960016101000a81548160ff02191690831515021790555061178f6001600254611df090919063ffffffff16565b600281905550426003819055506117b260b4600354611df090919063ffffffff16565b6004819055506117ce6078600454611df090919063ffffffff16565b6005819055506117ea603c600554611df090919063ffffffff16565b6006819055506118066078600654611df090919063ffffffff16565b6007819055506118226078600754611df090919063ffffffff16565b600881905550600c60009054906101000a900473ffffffffffffffffffffffffffffffffffffffff1673ffffffffffffffffffffffffffffffffffffffff1663da276b516004546003546002546040518463ffffffff167c0100000000000000000000000000000000000000000000000000000000028152600401808481526020018381526020018281526020019350505050600060405180830381600087803b1580156118cf57600080fd5b505af11580156118e3573d6000803e3d6000fd5b505050506001905090565b60008060025483141561193957429050600960009054906101000a900460ff16801561191c57506005548110155b801561192a57506007548111155b15611938576001915061193e565b5b600091505b50919050565b600080429050600354811015801561195e57506004548111155b1561196c5760019150611971565b600091505b5090565b600060055442101561198a57600190506119f4565b600554421015806119c45750600060016000600254815260200190815260200160002060000160009054906101000a900460ff1660ff1614155b80156119d1575060075442105b156119df57600290506119f4565b600754421015156119f357600390506119f4565b5b90565b60025481565b60016020528060005260406000206000915090508060000160009054906101000a900460ff16908060000160019054906101000a900460ff16908060000160029054906101000a900460ff16908060000160039054906101000a900460ff16908060010154908060020154905086565b60008060006002541115611aa1574290506004548110158015611a9257506006548111155b15611aa05760009150611aa6565b5b600191505b5090565b6000600854905090565b6000804290506003548110158015611ace57506005548111155b15611adc5760019150611ae1565b600091505b5090565b600960039054906101000a900473ffffffffffffffffffffffffffffffffffffffff1681565b600080600554421015611b22576005549150611b3f565b611b3961012c600854611df090919063ffffffff16565b90508091505b5090565b6000600754905090565b6000600254905090565b600c60009054906101000a900473ffffffffffffffffffffffffffffffffffffffff1681565b6000809054906101000a900473ffffffffffffffffffffffffffffffffffffffff1673ffffffffffffffffffffffffffffffffffffffff163373ffffffffffffffffffffffffffffffffffffffff16141515611c41576040517f08c379a000000000000000000000000000000000000000000000000000000000815260040180806020018281038252601e8152602001807f4f6e6c79206f776e65722063616e20646f207468697320616374696f6e21000081525060200191505060405180910390fd5b80600b60006101000a81548173ffffffffffffffffffffffffffffffffffffffff021916908373ffffffffffffffffffffffffffffffffffffffff16021790555050565b6000809054906101000a900473ffffffffffffffffffffffffffffffffffffffff1673ffffffffffffffffffffffffffffffffffffffff163373ffffffffffffffffffffffffffffffffffffffff16141515611d49576040517f08c379a000000000000000000000000000000000000000000000000000000000815260040180806020018281038252601e8152602001807f4f6e6c79206f776e65722063616e20646f207468697320616374696f6e21000081525060200191505060405180910390fd5b806000806101000a81548173ffffffffffffffffffffffffffffffffffffffff021916908373ffffffffffffffffffffffffffffffffffffffff16021790555050565b6000600254821415611db15760075442101515611dac5760019050611dca565b611dc5565b600254821015611dc45760019050611dca565b5b600090505b919050565b600080838311151515611de157600080fd5b82840390508091505092915050565b6000808284019050838110151515611e0757600080fd5b8091505092915050565b600a60009054906101000a900473ffffffffffffffffffffffffffffffffffffffff1673ffffffffffffffffffffffffffffffffffffffff1663d112bbfa6002546040518263ffffffff167c010000000000000000000000000000000000000000000000000000000002815260040180828152602001915050600060405180830381600087803b158015611ea457600080fd5b505af1158015611eb8573d6000803e3d6000fd5b505050506001600960016101000a81548160ff021916908315150217905550611eee61012c600554611df090919063ffffffff16565b600581905550611f0b61012c600654611df090919063ffffffff16565b600681905550611f2861012c600754611df090919063ffffffff16565b600781905550611f4561012c600854611df090919063ffffffff16565b6008819055505600a165627a7a72305820eba2ec5b274806ce1f32d41b568846d98cb995217d8c65404e013ad225d654100029",
  "source": "pragma solidity ^0.4.24;\r\n\r\nimport \"./owner.sol\";\r\nimport \"./libraries/SafeMath.sol\";\r\nimport \"./interfaces/IProfitWallet.sol\";\r\nimport \"./interfaces/IPrizeFundWallet.sol\";\r\nimport \"./interfaces/ILotterySeller.sol\";\r\nimport \"./interfaces/ILottery.sol\";\r\n\r\ncontract Lottery is Ownable\r\n{\r\n    using SafeMath for uint256;\r\n\r\n    struct Combination\r\n    {\r\n        uint8 digit1;\r\n        uint8 digit2;\r\n        uint8 digit3;\r\n        bool generated;\r\n        uint256 dateTimeGenerated;\r\n        bytes32 combinationHash;\r\n    }\r\n    mapping (uint => Combination) public lotteryHistory;\r\n    uint256 public currentLotteryId;\r\n\r\n    uint256 private currentLotteryStarted;\r\n    uint256 private currentLotteryTicketSaleEnds;\r\n    uint256 private currentLotteryResultsGeneration;\r\n    uint256 private currentLotteryDividendsUnlocked;\r\n    uint256 private currentLotteryRewardingUnlocked;\r\n    uint256 private nextLotteryStart;\r\n\r\n    bool private winningResultsGeneratedForCurrentLottery;\r\n    bool private canReturnTicketsForCurrentLottery;\r\n    bool private canRestartCurrentLottery;\r\n    \r\n    address public oracleAddress;\r\n    IProfitWallet public profitWallet;\r\n    IPrizeFundWallet public prizeFundWallet;\r\n    ILotterySeller public lotterySeller;\r\n    \r\n    constructor () public\r\n    {\r\n        winningResultsGeneratedForCurrentLottery = false;\r\n        canReturnTicketsForCurrentLottery = false;\r\n        canRestartCurrentLottery = false;\r\n        currentLotteryId = 0;\r\n        nextLotteryStart = 0;\r\n    }\r\n    \r\n    function setOracleAddress(address _oracleAddress) public onlyOwner\r\n    {\r\n        oracleAddress = _oracleAddress;\r\n    }\r\n\r\n    function setProfitWalletContract(address _profitWalletAddress) public onlyOwner\r\n    {\r\n        profitWallet = IProfitWallet(_profitWalletAddress);\r\n    }\r\n\r\n    function setPrizeFundWalletContract(address _prizeFundWallet) public onlyOwner\r\n    {\r\n        prizeFundWallet = IPrizeFundWallet(_prizeFundWallet);\r\n    }\r\n\r\n    function setLotterySellerContract(address _lotterySeller) public onlyOwner\r\n    {\r\n        lotterySeller = ILotterySeller(_lotterySeller);\r\n    }\r\n\r\n    /*function canNewLotteryStart() public view returns(bool canStart)\r\n    {\r\n        if(now >= nextLotteryStart)\r\n        {\r\n            return true;\r\n        }\r\n        return false;   \r\n    }*/\r\n\r\n    function startNewLottery() public returns(bool startedSuccessfully)\r\n    {\r\n        require(msg.sender == oracleAddress || msg.sender == address(this), \"Only Oracle or Lottery itself can call this function.\");\r\n        \r\n        if (!canRestartCurrentLottery)\r\n        {\r\n            require(now >= nextLotteryStart, \"Less than 24 hours passed from last lottery.\");\r\n        }\r\n        else\r\n        {\r\n            canRestartCurrentLottery = false;\r\n        }\r\n        \r\n        winningResultsGeneratedForCurrentLottery = false;\r\n        canReturnTicketsForCurrentLottery = false;\r\n        currentLotteryId = currentLotteryId.add(1);\r\n        currentLotteryStarted = now;\r\n        // currentLotteryTicketSaleEnds = currentLotteryStarted.add(47 hours);\r\n        // currentLotteryResultsGeneration = currentLotteryTicketSaleEnds.add(1 hours);\r\n        // currentLotteryDividendsUnlocked = currentLotteryResultsGeneration.add(1 hours);\r\n        // currentLotteryRewardingUnlocked = currentLotteryDividendsUnlocked.add(23 hours);\r\n        // nextLotteryStart = currentLotteryRewardingUnlocked.add(24 hours);\r\n        currentLotteryTicketSaleEnds = currentLotteryStarted.add(3 minutes);\r\n        currentLotteryResultsGeneration = currentLotteryTicketSaleEnds.add(2 minutes);\r\n        currentLotteryDividendsUnlocked = currentLotteryResultsGeneration.add(1 minutes);\r\n        currentLotteryRewardingUnlocked = currentLotteryDividendsUnlocked.add(2 minutes);\r\n        nextLotteryStart = currentLotteryRewardingUnlocked.add(2 minutes);\r\n\r\n        lotterySeller.setNewLotteryLot(currentLotteryTicketSaleEnds, currentLotteryStarted, currentLotteryId);\r\n\r\n        return true;\r\n    }\r\n\r\n    // called if Oracle failed to send the winning digits in functionCallTime\r\n    // moves time of lottery\r\n    // prize fund gets company profit for current lottery\r\n    // players are able to return tickets and get ETH back or continue playing\r\n    function moveLotteryTimeFrame() private\r\n    {\r\n        profitWallet.sendProfitToPrizeFundWallet(currentLotteryId);\r\n        canReturnTicketsForCurrentLottery = true;\r\n        // currentLotteryResultsGeneration = currentLotteryResultsGeneration.add(24 hours);\r\n        // currentLotteryDividendsUnlocked = currentLotteryDividendsUnlocked.add(24 hours);\r\n        // currentLotteryRewardingUnlocked = currentLotteryRewardingUnlocked.add(24 hours);\r\n        // nextLotteryStart = nextLotteryStart.add(24 hours);\r\n        currentLotteryResultsGeneration = currentLotteryResultsGeneration.add(5 minutes);\r\n        currentLotteryDividendsUnlocked = currentLotteryDividendsUnlocked.add(5 minutes);\r\n        currentLotteryRewardingUnlocked = currentLotteryRewardingUnlocked.add(5 minutes);\r\n        nextLotteryStart = nextLotteryStart.add(5 minutes);\r\n    }\r\n\r\n    function isRewardingAllowed(uint256 lotteryId) public view returns(bool isAllowed)\r\n    {\r\n        if (lotteryId == currentLotteryId)\r\n        {\r\n            if (now >= currentLotteryRewardingUnlocked)\r\n            {\r\n                return true;\r\n            }\r\n        }\r\n        else if (lotteryId < currentLotteryId)\r\n        {\r\n            return true;\r\n        }\r\n        return false;   \r\n    }\r\n\r\n    function isSubmittingTicketsForRewardAllowed(uint256 lotteryId) public view returns(bool)\r\n    {\r\n        if (lotteryId == currentLotteryId)\r\n        {\r\n            uint256 functionCallTime = now;\r\n            if (winningResultsGeneratedForCurrentLottery && functionCallTime >= currentLotteryResultsGeneration && functionCallTime <= currentLotteryRewardingUnlocked)\r\n            {\r\n                return true;\r\n            }\r\n        }\r\n        return false;   \r\n    }\r\n\r\n    function isSellingTicketsAllowed() public view returns(bool isAllowed)\r\n    {\r\n        uint256 functionCallTime = now;\r\n        if (functionCallTime >= currentLotteryStarted && functionCallTime <= currentLotteryTicketSaleEnds)\r\n        {\r\n            return true;\r\n        }\r\n        return false;   \r\n    }\r\n\r\n    function isFillingTicketsAllowed(/*uint256 lotteryId*/) public view returns(bool isAllowed)\r\n    {\r\n        //if (lotteryId == currentLotteryId)\r\n        //{\r\n            uint256 functionCallTime = now;\r\n            if (functionCallTime >= currentLotteryStarted && functionCallTime <= currentLotteryResultsGeneration)\r\n            {\r\n                return true;\r\n            }\r\n        //}\r\n        return false;   \r\n    }\r\n\r\n    function isReturningTicketsForCurrentLotteryAllowed() public view returns(bool isAllowed)\r\n    {\r\n        return canReturnTicketsForCurrentLottery;   \r\n    }\r\n\r\n    /*function isWithdrawingDividendsAllowed(uint256 lotteryId) public view returns(bool isAllowed)\r\n    {\r\n        if (lotteryId == currentLotteryId)\r\n        {\r\n            uint256 functionCallTime = now;\r\n            if(functionCallTime >= currentLotteryTicketSaleEnds && functionCallTime <= currentLotteryDividendsUnlocked)\r\n            {\r\n                return false;\r\n            }\r\n        }\r\n        else if (lotteryId > currentLotteryId)\r\n        {\r\n            return false;\r\n        }\r\n        return true;   \r\n    }*/\r\n\r\n    function isTokensTransferAllowed() public view returns(bool)\r\n    {\r\n        if (currentLotteryId > 0) {\r\n            uint256 functionCallTime = now;\r\n            if(functionCallTime >= currentLotteryTicketSaleEnds && functionCallTime <= currentLotteryDividendsUnlocked)\r\n            {\r\n                return false;\r\n            }\r\n        }\r\n        return true;   \r\n    }\r\n\r\n    function getNextLotteryStart() public view returns(uint256)\r\n    {\r\n        return nextLotteryStart;\r\n    }\r\n\r\n    function getPrizeDestributionTime() public view returns(uint256)\r\n    {\r\n        return currentLotteryRewardingUnlocked;\r\n    }\r\n\r\n    // compare ticket digits with winning digits\r\n    function checkCombination(uint256 lotteryId, uint8 digit1, uint8 digit2, uint8 digit3) public view returns(bool isWinning)\r\n    {\r\n        Combination winningCombination = lotteryHistory[lotteryId];\r\n        //require(winningCombination.digit1 != 0, \"Winning combination hasn't been generated yet.\");\r\n        if (digit1 == winningCombination.digit1 && digit2 == winningCombination.digit2 && digit3 == winningCombination.digit3)\r\n        {\r\n            return true;\r\n        }\r\n        return false;\r\n    }\r\n\r\n    // get the winning digits\r\n    function getWinningCombination(uint256 lotteryId) public view returns(uint8 winningDigit1, uint8 winningDigit2, uint8 winningDigit3)\r\n    {\r\n        Combination winningCombination = lotteryHistory[lotteryId];\r\n        require(winningCombination.digit1 != 0, \"Winning combination hasn't been generated yet for specified lottery.\");\r\n        return (winningCombination.digit1, winningCombination.digit2, winningCombination.digit3);\r\n    }\r\n\r\n    // get the winning hash\r\n    function getWinningHash(uint256 lotteryId) public view returns(bytes32)\r\n    {\r\n        Combination winningCombination = lotteryHistory[lotteryId];\r\n        require(winningCombination.digit1 != 0, \"Winning combination hasn't been generated yet for specified lottery.\");\r\n        return winningCombination.combinationHash;\r\n    }\r\n\r\n    // called by Oracle, sets the winning digits\r\n    /*bytes32 constant lateStatus = \"LATE\";\r\n    bytes32 constant earlyStatus = \"EARLY\";\r\n    bytes32 constant okStatus = \"OK\";\r\n    bytes32 constant zeroFundsStatus = \"ZERO_FUNDS\";*/\r\n    uint8 constant lateStatus = 2;\r\n    uint8 constant earlyStatus = 3;\r\n    uint8 constant okStatus = 1;\r\n    uint8 constant zeroFundsStatus = 0;\r\n    function setWinningCombination(uint8 digit1, uint8 digit2, uint8 digit3) public returns (uint8)  \r\n    {\r\n        require(msg.sender == oracleAddress, \"Only Oracle can call this function.\");\r\n\r\n        Combination winningCombination = lotteryHistory[currentLotteryId];\r\n        require(!winningCombination.generated, \"Winning combination has already been generated.\");\r\n\r\n        if  (prizeFundWallet.getBalance() == 0)\r\n        {\r\n            canRestartCurrentLottery = true;\r\n            startNewLottery();\r\n            return zeroFundsStatus;\r\n        }\r\n\r\n        uint256 functionCallTime = now;\r\n        if (functionCallTime < currentLotteryResultsGeneration.sub(1 minutes))\r\n        {\r\n            return earlyStatus;\r\n        }\r\n        else if (functionCallTime > currentLotteryResultsGeneration.add(1 minutes))\r\n        {\r\n            moveLotteryTimeFrame();\r\n            return lateStatus;\r\n        }\r\n        else\r\n        {\r\n            lotteryHistory[currentLotteryId] = Combination(digit1, digit2, digit3, true, now, keccak256(abi.encodePacked(digit1, digit2, digit3)));\r\n            //profitWallet.enableDividendWithdrawals(currentLotteryId);\r\n            profitWallet.closeCurrentLap();\r\n            return okStatus;\r\n        }\r\n    }\r\n\r\n    function getCurrentLotteryId() public view returns(uint256)\r\n    {\r\n        return currentLotteryId;\r\n    }\r\n\r\n    function getLotteryResultsGeneration() public view returns(uint256) \r\n    {   \r\n        if (now < currentLotteryResultsGeneration) {\r\n            return currentLotteryResultsGeneration;\r\n        } else {\r\n            // uint256 next_start = nextLotteryStart.add(48 hours);\r\n            uint256 next_start = nextLotteryStart.add(5 minutes);\r\n            return next_start;\r\n        }\r\n    }\r\n    \r\n    function getLotteryState() public view returns (uint256)\r\n    {\r\n        if (now < currentLotteryResultsGeneration) {\r\n            return 1;\r\n        } else if ((now >= currentLotteryResultsGeneration || lotteryHistory[currentLotteryId].digit1 != 0) && now < currentLotteryRewardingUnlocked) {\r\n            return 2;\r\n        } else if (now >= currentLotteryRewardingUnlocked) {\r\n            return 3;\r\n        }\r\n    }\r\n\r\n    function getLotteryHistory(uint256 _lottery_id) public view returns(uint8 winningDigit1, uint8 winningDigit2, uint8 winningDigit3, uint256 dateTime)\r\n    {\r\n        Combination lotCombination = lotteryHistory[_lottery_id];\r\n        \r\n        return (lotCombination.digit1, lotCombination.digit2, lotCombination.digit3, lotCombination.dateTimeGenerated);\r\n    }\r\n}",
  "sourcePath": "C:\\blockchain\\new_version\\hashlottery3\\truffle\\contracts\\Lottery.sol",
  "compiler": {
    "name": "solc",
    "version": "0.4.24+commit.e67f0147.Emscripten.clang"
  },
  "schemaVersion": "2.0.1",
  "updatedAt": "2018-12-10T17:52:30.594Z"
}