{
  "contractName": "MigrationAgent721",
  "abi": [
    {
      "constant": true,
      "inputs": [],
      "name": "sourceContract",
      "outputs": [
        {
          "name": "",
          "type": "address"
        }
      ],
      "payable": false,
      "stateMutability": "view",
      "type": "function"
    },
    {
      "constant": true,
      "inputs": [],
      "name": "targetContract",
      "outputs": [
        {
          "name": "",
          "type": "address"
        }
      ],
      "payable": false,
      "stateMutability": "view",
      "type": "function"
    },
    {
      "constant": false,
      "inputs": [
        {
          "name": "newOwner",
          "type": "address"
        }
      ],
      "name": "transferOwnership",
      "outputs": [],
      "payable": false,
      "stateMutability": "nonpayable",
      "type": "function"
    },
    {
      "inputs": [
        {
          "name": "_source",
          "type": "address"
        }
      ],
      "payable": false,
      "stateMutability": "nonpayable",
      "type": "constructor"
    },
    {
      "constant": false,
      "inputs": [
        {
          "name": "_new_ticket",
          "type": "address"
        }
      ],
      "name": "setTargetToken",
      "outputs": [],
      "payable": false,
      "stateMutability": "nonpayable",
      "type": "function"
    },
    {
      "constant": false,
      "inputs": [
        {
          "name": "_client",
          "type": "address"
        },
        {
          "name": "_digs",
          "type": "bytes32[]"
        },
        {
          "name": "_secret",
          "type": "bytes32"
        },
        {
          "name": "_lap",
          "type": "uint256"
        },
        {
          "name": "_deadline",
          "type": "uint256"
        },
        {
          "name": "_combinationHash",
          "type": "bytes32"
        },
        {
          "name": "_ticket",
          "type": "uint256"
        }
      ],
      "name": "migrateToken",
      "outputs": [],
      "payable": false,
      "stateMutability": "nonpayable",
      "type": "function"
    },
    {
      "constant": false,
      "inputs": [],
      "name": "finalizeMigration",
      "outputs": [],
      "payable": false,
      "stateMutability": "nonpayable",
      "type": "function"
    }
  ],
  "bytecode": "0x608060405234801561001057600080fd5b50604051602080610bfc83398101806040528101908080519060200190929190505050336000806101000a81548173ffffffffffffffffffffffffffffffffffffffff021916908373ffffffffffffffffffffffffffffffffffffffff16021790555080600160006101000a81548173ffffffffffffffffffffffffffffffffffffffff021916908373ffffffffffffffffffffffffffffffffffffffff16021790555050610b38806100c46000396000f300608060405260043610610078576000357c0100000000000000000000000000000000000000000000000000000000900463ffffffff1680631b66cb001461007d578063a444ae41146100c0578063b78b608714610117578063bd90df701461012e578063f2fde38b14610185578063f64e637a146101c8575b600080fd5b34801561008957600080fd5b506100be600480360381019080803573ffffffffffffffffffffffffffffffffffffffff169060200190929190505050610288565b005b3480156100cc57600080fd5b506100d56104c9565b604051808273ffffffffffffffffffffffffffffffffffffffff1673ffffffffffffffffffffffffffffffffffffffff16815260200191505060405180910390f35b34801561012357600080fd5b5061012c6104ef565b005b34801561013a57600080fd5b506101436106e1565b604051808273ffffffffffffffffffffffffffffffffffffffff1673ffffffffffffffffffffffffffffffffffffffff16815260200191505060405180910390f35b34801561019157600080fd5b506101c6600480360381019080803573ffffffffffffffffffffffffffffffffffffffff169060200190929190505050610707565b005b3480156101d457600080fd5b50610286600480360381019080803573ffffffffffffffffffffffffffffffffffffffff169060200190929190803590602001908201803590602001908080602002602001604051908101604052809392919081815260200183836020028082843782019150505050505091929192908035600019169060200190929190803590602001909291908035906020019092919080356000191690602001909291908035906020019092919050505061080e565b005b6000809054906101000a900473ffffffffffffffffffffffffffffffffffffffff1673ffffffffffffffffffffffffffffffffffffffff163373ffffffffffffffffffffffffffffffffffffffff1614151561034c576040517f08c379a000000000000000000000000000000000000000000000000000000000815260040180806020018281038252601e8152602001807f4f6e6c79206f776e65722063616e20646f207468697320616374696f6e21000081525060200191505060405180910390fd5b6000600260009054906101000a900473ffffffffffffffffffffffffffffffffffffffff1673ffffffffffffffffffffffffffffffffffffffff16141515610422576040517f08c379a00000000000000000000000000000000000000000000000000000000081526004018080602001828103825260238152602001807f54617267657420636f6e747261637420696e697469616c697a656420616c726581526020017f616479000000000000000000000000000000000000000000000000000000000081525060400191505060405180910390fd5b600160009054906101000a900473ffffffffffffffffffffffffffffffffffffffff16600360006101000a81548173ffffffffffffffffffffffffffffffffffffffff021916908373ffffffffffffffffffffffffffffffffffffffff16021790555080600460006101000a81548173ffffffffffffffffffffffffffffffffffffffff021916908373ffffffffffffffffffffffffffffffffffffffff16021790555050565b600360009054906101000a900473ffffffffffffffffffffffffffffffffffffffff1681565b6000809054906101000a900473ffffffffffffffffffffffffffffffffffffffff1673ffffffffffffffffffffffffffffffffffffffff163373ffffffffffffffffffffffffffffffffffffffff161415156105b3576040517f08c379a000000000000000000000000000000000000000000000000000000000815260040180806020018281038252601e8152602001807f4f6e6c79206f776e65722063616e20646f207468697320616374696f6e21000081525060200191505060405180910390fd5b6105bd6000610a58565b600460009054906101000a900473ffffffffffffffffffffffffffffffffffffffff1673ffffffffffffffffffffffffffffffffffffffff1663b78b60876040518163ffffffff167c0100000000000000000000000000000000000000000000000000000000028152600401600060405180830381600087803b15801561064357600080fd5b505af1158015610657573d6000803e3d6000fd5b505050506000600160006101000a81548173ffffffffffffffffffffffffffffffffffffffff021916908373ffffffffffffffffffffffffffffffffffffffff1602179055506000600260006101000a81548173ffffffffffffffffffffffffffffffffffffffff021916908373ffffffffffffffffffffffffffffffffffffffff160217905550565b600460009054906101000a900473ffffffffffffffffffffffffffffffffffffffff1681565b6000809054906101000a900473ffffffffffffffffffffffffffffffffffffffff1673ffffffffffffffffffffffffffffffffffffffff163373ffffffffffffffffffffffffffffffffffffffff161415156107cb576040517f08c379a000000000000000000000000000000000000000000000000000000000815260040180806020018281038252601e8152602001807f4f6e6c79206f776e65722063616e20646f207468697320616374696f6e21000081525060200191505060405180910390fd5b806000806101000a81548173ffffffffffffffffffffffffffffffffffffffff021916908373ffffffffffffffffffffffffffffffffffffffff16021790555050565b600160009054906101000a900473ffffffffffffffffffffffffffffffffffffffff1673ffffffffffffffffffffffffffffffffffffffff163373ffffffffffffffffffffffffffffffffffffffff161415156108f9576040517f08c379a000000000000000000000000000000000000000000000000000000000815260040180806020018281038252602c8152602001807f4f6e6c79206f726967696e616c20636f6e74726163742063616e2063616c6c7381526020017f2074686973206d6574686f64000000000000000000000000000000000000000081525060400191505060405180910390fd5b600460009054906101000a900473ffffffffffffffffffffffffffffffffffffffff1673ffffffffffffffffffffffffffffffffffffffff16636a3bd44f888888888888886040518863ffffffff167c0100000000000000000000000000000000000000000000000000000000028152600401808873ffffffffffffffffffffffffffffffffffffffff1673ffffffffffffffffffffffffffffffffffffffff1681526020018060200187600019166000191681526020018681526020018581526020018460001916600019168152602001838152602001828103825288818151815260200191508051906020019060200280838360005b83811015610a0c5780820151818401526020810190506109f1565b5050505090500198505050505050505050600060405180830381600087803b158015610a3757600080fd5b505af1158015610a4b573d6000803e3d6000fd5b5050505050505050505050565b6000600260009054906101000a900473ffffffffffffffffffffffffffffffffffffffff1673ffffffffffffffffffffffffffffffffffffffff1614151515610b09576040517f08c379a000000000000000000000000000000000000000000000000000000000815260040180806020018281038252600d8152602001807f546f6b656e73206973206f75740000000000000000000000000000000000000081525060200191505060405180910390fd5b505600a165627a7a723058204001b2ed599acd9b0242155b6d659a4a79b828575e03858283725773e7697b830029",
  "source": "pragma solidity ^0.4.24;\r\n\r\nimport \"./owner.sol\";\r\nimport \"./interfaces/IERC721.sol\";\r\nimport \"./interfaces/IERC721NEW.sol\";\r\n\r\ncontract MigrationAgent721 is Ownable {\r\n    address source_ticket;\r\n    address target_ticket;\r\n\r\n    IERC721 public sourceContract;\r\n    IERC721NEW public targetContract;\r\n\r\n    constructor(address _source) public {\r\n        source_ticket = _source;\r\n    }\r\n\r\n    function setTargetToken(address _new_ticket) public onlyOwner {\r\n        require(target_ticket == 0, \"Target contract initialized already\");\r\n        sourceContract = IERC721(source_ticket);\r\n        targetContract = IERC721NEW(_new_ticket);\r\n    }\r\n\r\n    function safetyInvariantCheck(uint _value) private {\r\n        require(target_ticket != 0, \"Tokens is out\");\r\n    }\r\n\r\n    function migrateToken(address _client, bytes32[] _digs, bytes32 _secret, uint _lap, uint _deadline, bytes32 _combinationHash, uint _ticket) public {\r\n        require(msg.sender == source_ticket, \"Only original contract can calls this method\");\r\n        targetContract.receiveMigratedData(_client, _digs, _secret, _lap, _deadline, _combinationHash, _ticket);\r\n    }\r\n\r\n    function finalizeMigration() public onlyOwner {\r\n        safetyInvariantCheck(0);\r\n        targetContract.finalizeMigration();\r\n        source_ticket = 0;\r\n        target_ticket = 0;\r\n    }\r\n}\r\n",
  "sourcePath": "C:\\blockchain\\new_version\\hashlottery3\\truffle\\contracts\\MigrationAgent721.sol",
  "compiler": {
    "name": "solc",
    "version": "0.4.24+commit.e67f0147.Emscripten.clang"
  },
  "schemaVersion": "2.0.1",
  "updatedAt": "2018-12-10T17:52:30.232Z"
}