{
  "contractName": "MultiSigWallet",
  "abi": [
    {
      "constant": true,
      "inputs": [
        {
          "name": "",
          "type": "uint256"
        }
      ],
      "name": "owners",
      "outputs": [
        {
          "name": "",
          "type": "address"
        }
      ],
      "payable": false,
      "stateMutability": "view",
      "type": "function"
    },
    {
      "constant": true,
      "inputs": [
        {
          "name": "",
          "type": "address"
        }
      ],
      "name": "isOwner",
      "outputs": [
        {
          "name": "",
          "type": "bool"
        }
      ],
      "payable": false,
      "stateMutability": "view",
      "type": "function"
    },
    {
      "constant": true,
      "inputs": [
        {
          "name": "",
          "type": "uint256"
        },
        {
          "name": "",
          "type": "address"
        }
      ],
      "name": "confirmations",
      "outputs": [
        {
          "name": "",
          "type": "bool"
        }
      ],
      "payable": false,
      "stateMutability": "view",
      "type": "function"
    },
    {
      "constant": true,
      "inputs": [
        {
          "name": "",
          "type": "uint256"
        }
      ],
      "name": "transactions",
      "outputs": [
        {
          "name": "destination",
          "type": "address"
        },
        {
          "name": "value",
          "type": "uint256"
        },
        {
          "name": "executed",
          "type": "bool"
        }
      ],
      "payable": false,
      "stateMutability": "view",
      "type": "function"
    },
    {
      "constant": true,
      "inputs": [],
      "name": "transactionCount",
      "outputs": [
        {
          "name": "",
          "type": "uint256"
        }
      ],
      "payable": false,
      "stateMutability": "view",
      "type": "function"
    },
    {
      "constant": true,
      "inputs": [],
      "name": "MAX_OWNER_COUNT",
      "outputs": [
        {
          "name": "",
          "type": "uint256"
        }
      ],
      "payable": false,
      "stateMutability": "view",
      "type": "function"
    },
    {
      "constant": true,
      "inputs": [],
      "name": "required",
      "outputs": [
        {
          "name": "",
          "type": "uint256"
        }
      ],
      "payable": false,
      "stateMutability": "view",
      "type": "function"
    },
    {
      "inputs": [],
      "payable": false,
      "stateMutability": "nonpayable",
      "type": "constructor"
    },
    {
      "payable": true,
      "stateMutability": "payable",
      "type": "fallback"
    },
    {
      "anonymous": false,
      "inputs": [
        {
          "indexed": false,
          "name": "owner",
          "type": "address"
        },
        {
          "indexed": false,
          "name": "operation",
          "type": "uint256"
        }
      ],
      "name": "Confirmation",
      "type": "event"
    },
    {
      "anonymous": false,
      "inputs": [
        {
          "indexed": true,
          "name": "transactionId",
          "type": "uint256"
        }
      ],
      "name": "Submission",
      "type": "event"
    },
    {
      "anonymous": false,
      "inputs": [
        {
          "indexed": true,
          "name": "transactionId",
          "type": "uint256"
        }
      ],
      "name": "Execution",
      "type": "event"
    },
    {
      "anonymous": false,
      "inputs": [
        {
          "indexed": true,
          "name": "transactionId",
          "type": "uint256"
        }
      ],
      "name": "ExecutionFailure",
      "type": "event"
    },
    {
      "anonymous": false,
      "inputs": [
        {
          "indexed": true,
          "name": "transactionId",
          "type": "uint256"
        }
      ],
      "name": "Transfer",
      "type": "event"
    },
    {
      "constant": false,
      "inputs": [
        {
          "name": "newOwner",
          "type": "address"
        }
      ],
      "name": "addOwner",
      "outputs": [],
      "payable": false,
      "stateMutability": "nonpayable",
      "type": "function"
    },
    {
      "constant": false,
      "inputs": [
        {
          "name": "destination",
          "type": "address"
        },
        {
          "name": "value",
          "type": "uint256"
        }
      ],
      "name": "submitTransaction",
      "outputs": [
        {
          "name": "transactionId",
          "type": "uint256"
        }
      ],
      "payable": false,
      "stateMutability": "nonpayable",
      "type": "function"
    },
    {
      "constant": false,
      "inputs": [
        {
          "name": "transactionId",
          "type": "uint256"
        }
      ],
      "name": "confirmTransaction",
      "outputs": [],
      "payable": false,
      "stateMutability": "nonpayable",
      "type": "function"
    },
    {
      "constant": false,
      "inputs": [
        {
          "name": "transactionId",
          "type": "uint256"
        }
      ],
      "name": "executeTransaction",
      "outputs": [],
      "payable": false,
      "stateMutability": "nonpayable",
      "type": "function"
    },
    {
      "constant": false,
      "inputs": [
        {
          "name": "transactionId",
          "type": "uint256"
        }
      ],
      "name": "revokeConfirmation",
      "outputs": [],
      "payable": false,
      "stateMutability": "nonpayable",
      "type": "function"
    },
    {
      "constant": true,
      "inputs": [
        {
          "name": "transactionId",
          "type": "uint256"
        }
      ],
      "name": "isConfirmed",
      "outputs": [
        {
          "name": "",
          "type": "bool"
        }
      ],
      "payable": false,
      "stateMutability": "view",
      "type": "function"
    },
    {
      "constant": false,
      "inputs": [
        {
          "name": "transactionId",
          "type": "uint256"
        }
      ],
      "name": "transfer",
      "outputs": [],
      "payable": false,
      "stateMutability": "nonpayable",
      "type": "function"
    }
  ],
  "bytecode": "0x60806040526001600455600260055534801561001a57600080fd5b50600160026000739d12f4d20efd2135ab5b50a26456dccfb6e15a3f73ffffffffffffffffffffffffffffffffffffffff16815260200190815260200160002060006101000a81548160ff02191690831515021790555060016002600073a9806f5cefa0ffde5e75b51d16a9eed0908f746373ffffffffffffffffffffffffffffffffffffffff16815260200190815260200160002060006101000a81548160ff0219169083151502179055506001600260007320d54aa08e2d9fe33ac35eff1c85665341cfe9a073ffffffffffffffffffffffffffffffffffffffff16815260200190815260200160002060006101000a81548160ff0219169083151502179055506001600260007333e0547fc6d1a1077226f0bf931c7e07ca91ac6e73ffffffffffffffffffffffffffffffffffffffff16815260200190815260200160002060006101000a81548160ff0219169083151502179055506003739d12f4d20efd2135ab5b50a26456dccfb6e15a3f90806001815401808255809150509060018203906000526020600020016000909192909190916101000a81548173ffffffffffffffffffffffffffffffffffffffff021916908373ffffffffffffffffffffffffffffffffffffffff16021790555050600373a9806f5cefa0ffde5e75b51d16a9eed0908f746390806001815401808255809150509060018203906000526020600020016000909192909190916101000a81548173ffffffffffffffffffffffffffffffffffffffff021916908373ffffffffffffffffffffffffffffffffffffffff1602179055505060037320d54aa08e2d9fe33ac35eff1c85665341cfe9a090806001815401808255809150509060018203906000526020600020016000909192909190916101000a81548173ffffffffffffffffffffffffffffffffffffffff021916908373ffffffffffffffffffffffffffffffffffffffff1602179055505060037333e0547fc6d1a1077226f0bf931c7e07ca91ac6e90806001815401808255809150509060018203906000526020600020016000909192909190916101000a81548173ffffffffffffffffffffffffffffffffffffffff021916908373ffffffffffffffffffffffffffffffffffffffff1602179055505061141c8061036a6000396000f3006080604052600436106100d0576000357c0100000000000000000000000000000000000000000000000000000000900463ffffffff168063025e7c27146100d257806312514bba1461013f5780631d43b6531461016c57806320ea8d86146101cd5780632f54bf6e146101fa5780633411c81c146102555780637065cb48146102ba578063784547a7146102fd5780639ace38c214610342578063b77bf600146103c1578063c01a8c84146103ec578063d74f8edd14610419578063dc8452cd14610444578063ee22610b1461046f575b005b3480156100de57600080fd5b506100fd6004803603810190808035906020019092919050505061049c565b604051808273ffffffffffffffffffffffffffffffffffffffff1673ffffffffffffffffffffffffffffffffffffffff16815260200191505060405180910390f35b34801561014b57600080fd5b5061016a600480360381019080803590602001909291905050506104da565b005b34801561017857600080fd5b506101b7600480360381019080803573ffffffffffffffffffffffffffffffffffffffff169060200190929190803590602001909291905050506106cf565b6040518082815260200191505060405180910390f35b3480156101d957600080fd5b506101f8600480360381019080803590602001909291905050506106ec565b005b34801561020657600080fd5b5061023b600480360381019080803573ffffffffffffffffffffffffffffffffffffffff16906020019092919050505061080d565b604051808215151515815260200191505060405180910390f35b34801561026157600080fd5b506102a060048036038101908080359060200190929190803573ffffffffffffffffffffffffffffffffffffffff16906020019092919050505061082d565b604051808215151515815260200191505060405180910390f35b3480156102c657600080fd5b506102fb600480360381019080803573ffffffffffffffffffffffffffffffffffffffff16906020019092919050505061085c565b005b34801561030957600080fd5b5061032860048036038101908080359060200190929190505050610b45565b604051808215151515815260200191505060405180910390f35b34801561034e57600080fd5b5061036d60048036038101908080359060200190929190505050610c2f565b604051808473ffffffffffffffffffffffffffffffffffffffff1673ffffffffffffffffffffffffffffffffffffffff16815260200183815260200182151515158152602001935050505060405180910390f35b3480156103cd57600080fd5b506103d6610c86565b6040518082815260200191505060405180910390f35b3480156103f857600080fd5b5061041760048036038101908080359060200190929190505050610c8c565b005b34801561042557600080fd5b5061042e610ff1565b6040518082815260200191505060405180910390f35b34801561045057600080fd5b50610459610ff6565b6040518082815260200191505060405180910390f35b34801561047b57600080fd5b5061049a60048036038101908080359060200190929190505050610ffc565b005b6003818154811015156104ab57fe5b906000526020600020016000915054906101000a900473ffffffffffffffffffffffffffffffffffffffff1681565b60008082815260200190815260200160002060020160009054906101000a900460ff161515610571576040517f08c379a000000000000000000000000000000000000000000000000000000000815260040180806020018281038252601a8152602001807f5472616e73616374696f6e206973206e6f7420616c6c6f77656400000000000081525060200191505060405180910390fd5b600080600083815260200190815260200160002060010154141515156105ff576040517f08c379a000000000000000000000000000000000000000000000000000000000815260040180806020018281038252600d8152602001807f43616e277420657175616c20300000000000000000000000000000000000000081525060200191505060405180910390fd5b61060881610b45565b156106cc5760008082815260200190815260200160002060000160009054906101000a900473ffffffffffffffffffffffffffffffffffffffff1673ffffffffffffffffffffffffffffffffffffffff166108fc600080848152602001908152602001600020600101549081150290604051600060405180830381858888f1935050505015801561069d573d6000803e3d6000fd5b50807f248dd4076d0a389d795107efafd558ce7f31ae37b441ccb9a599c60868f480d560405160405180910390a25b50565b60006106db8383611259565b90506106e681610c8c565b92915050565b33600260008273ffffffffffffffffffffffffffffffffffffffff1673ffffffffffffffffffffffffffffffffffffffff16815260200190815260200160002060009054906101000a900460ff1615156107ae576040517f08c379a000000000000000000000000000000000000000000000000000000000815260040180806020018281038252601d8152602001807f2d2d2d2d2d2d2d2d206f776e657220657869737473202d2d2d2d2d2d2d00000081525060200191505060405180910390fd5b600080600084815260200190815260200160002060020160006101000a81548160ff021916908315150217905550817f526441bb6c1aba3c9a4a6ca1d6545da9c2333c8c48343ef398eb858d72b7923660405160405180910390a25050565b60026020528060005260406000206000915054906101000a900460ff1681565b60016020528160005260406000206020528060005260406000206000915091509054906101000a900460ff1681565b33600260008273ffffffffffffffffffffffffffffffffffffffff1673ffffffffffffffffffffffffffffffffffffffff16815260200190815260200160002060009054906101000a900460ff16151561091e576040517f08c379a000000000000000000000000000000000000000000000000000000000815260040180806020018281038252601d8152602001807f2d2d2d2d2d2d2d2d206f776e657220657869737473202d2d2d2d2d2d2d00000081525060200191505060405180910390fd5b600560038054905010151561099b576040517f08c379a000000000000000000000000000000000000000000000000000000000815260040180806020018281038252601a8152602001807f202d2d2d2d204c696d6974206578636565646564202d2d2d2d2d00000000000081525060200191505060405180910390fd5b600260008373ffffffffffffffffffffffffffffffffffffffff1673ffffffffffffffffffffffffffffffffffffffff16815260200190815260200160002060009054906101000a900460ff16151515610a83576040517f08c379a000000000000000000000000000000000000000000000000000000000815260040180806020018281038252602d8152602001807f2d2d2d2d2d2d2d2d2054686973206f776e657220697320616c7265616479206581526020017f7869737473202d2d2d2d2d2d2d0000000000000000000000000000000000000081525060400191505060405180910390fd5b60038290806001815401808255809150509060018203906000526020600020016000909192909190916101000a81548173ffffffffffffffffffffffffffffffffffffffff021916908373ffffffffffffffffffffffffffffffffffffffff160217905550506001600260008473ffffffffffffffffffffffffffffffffffffffff1673ffffffffffffffffffffffffffffffffffffffff16815260200190815260200160002060006101000a81548160ff0219169083151502179055505050565b6000806000809150600090505b600380549050811015610c0f57600160008581526020019081526020016000206000600383815481101515610b8357fe5b9060005260206000200160009054906101000a900473ffffffffffffffffffffffffffffffffffffffff1673ffffffffffffffffffffffffffffffffffffffff1673ffffffffffffffffffffffffffffffffffffffff16815260200190815260200160002060009054906101000a900460ff1615610c02576001820191505b8080600101915050610b52565b60055482101515610c235760019250610c28565b600092505b5050919050565b60006020528060005260406000206000915090508060000160009054906101000a900473ffffffffffffffffffffffffffffffffffffffff16908060010154908060020160009054906101000a900460ff16905083565b60045481565b33600260008273ffffffffffffffffffffffffffffffffffffffff1673ffffffffffffffffffffffffffffffffffffffff16815260200190815260200160002060009054906101000a900460ff161515610d4e576040517f08c379a000000000000000000000000000000000000000000000000000000000815260040180806020018281038252601d8152602001807f2d2d2d2d2d2d2d2d206f776e657220657869737473202d2d2d2d2d2d2d00000081525060200191505060405180910390fd5b81600080600083815260200190815260200160002060000160009054906101000a900473ffffffffffffffffffffffffffffffffffffffff1673ffffffffffffffffffffffffffffffffffffffff1614151515610e39576040517f08c379a00000000000000000000000000000000000000000000000000000000081526004018080602001828103825260238152602001807f2d2d2d2d2d2d2d2d207472616e73616374696f6e20657869737473202d2d2d2d81526020017f2d2d2d000000000000000000000000000000000000000000000000000000000081525060400191505060405180910390fd5b82336001600083815260200190815260200160002060008273ffffffffffffffffffffffffffffffffffffffff1673ffffffffffffffffffffffffffffffffffffffff16815260200190815260200160002060009054906101000a900460ff16151515610f0e576040517f08c379a000000000000000000000000000000000000000000000000000000000815260040180806020018281038252601e8152602001807f2d2d2d2d2d2d2d2d206e6f7420636f6e6669726d6564202d2d2d2d2d2d2d000081525060200191505060405180910390fd5b600180600087815260200190815260200160002060003373ffffffffffffffffffffffffffffffffffffffff1673ffffffffffffffffffffffffffffffffffffffff16815260200190815260200160002060006101000a81548160ff021916908315150217905550610f7f85610ffc565b7f4a504a94899432a9846e1aa406dceb1bcfd538bb839071d49d1e5e23f5be30ef3386604051808373ffffffffffffffffffffffffffffffffffffffff1673ffffffffffffffffffffffffffffffffffffffff1681526020018281526020019250505060405180910390a15050505050565b600581565b60055481565b33600260008273ffffffffffffffffffffffffffffffffffffffff1673ffffffffffffffffffffffffffffffffffffffff16815260200190815260200160002060009054906101000a900460ff1615156110be576040517f08c379a000000000000000000000000000000000000000000000000000000000815260040180806020018281038252601d8152602001807f2d2d2d2d2d2d2d2d206f776e657220657869737473202d2d2d2d2d2d2d00000081525060200191505060405180910390fd5b81336001600083815260200190815260200160002060008273ffffffffffffffffffffffffffffffffffffffff1673ffffffffffffffffffffffffffffffffffffffff16815260200190815260200160002060009054906101000a900460ff16151561112957600080fd5b8360008082815260200190815260200160002060020160009054906101000a900460ff161515156111e8576040517f08c379a00000000000000000000000000000000000000000000000000000000081526004018080602001828103825260278152602001807f202d2d2d2d205472616e73616374696f6e20697320616c726561647920646f6e81526020017f65202d2d2d2d2d0000000000000000000000000000000000000000000000000081525060400191505060405180910390fd5b6111f185610b45565b1561125257600160008087815260200190815260200160002060020160006101000a81548160ff021916908315150217905550847f33e13ecb54c3076d8e8bb8c2881800a4d972b792045ffae98fdf46df365fed7560405160405180910390a25b5050505050565b60008260008173ffffffffffffffffffffffffffffffffffffffff16141515156112eb576040517f08c379a00000000000000000000000000000000000000000000000000000000081526004018080602001828103825260138152602001807f596f752063616e2073657420616464726573730000000000000000000000000081525060200191505060405180910390fd5b60046000815460010191905081905591506060604051908101604052808573ffffffffffffffffffffffffffffffffffffffff1681526020018481526020016000151581525060008084815260200190815260200160002060008201518160000160006101000a81548173ffffffffffffffffffffffffffffffffffffffff021916908373ffffffffffffffffffffffffffffffffffffffff1602179055506020820151816001015560408201518160020160006101000a81548160ff021916908315150217905550905050817fc0ba8fe4b176c1714197d43b9cc6bcf797a4a7461c5fe8d0ef6e184ae7601e5160405160405180910390a2600454915050929150505600a165627a7a7230582028fa8e1f983acc4b015d691fe0e154b1e6b81886d90e7ac702bd38776d00985d0029",
  "source": "pragma solidity ^0.4.24;\r\n\r\ncontract MultiSigWallet  {\r\n    struct Transaction {\r\n        address destination;\r\n        uint value;\r\n        bool executed;\r\n    }\r\n\r\n    event Confirmation(address owner, uint256 operation);\r\n    event Submission(uint indexed transactionId);\r\n    event Execution(uint indexed transactionId);\r\n    event ExecutionFailure(uint indexed transactionId);\r\n    event Transfer(uint indexed transactionId);\r\n\r\n    uint constant public MAX_OWNER_COUNT = 5;\r\n    mapping (uint => Transaction) public transactions;\r\n    mapping (uint => mapping (address => bool)) public confirmations;\r\n    mapping (address => bool) public isOwner;\r\n    address[] public owners;\r\n    uint public transactionCount = 1;\r\n    uint public required = 2;\r\n    address tokenContract;\r\n\r\n    constructor() public {\r\n        isOwner[0x9d12f4d20efd2135ab5b50a26456dccfb6e15a3f] = true;\r\n        isOwner[0xa9806f5cefa0ffde5e75b51d16a9eed0908f7463] = true;\r\n        isOwner[0x20d54aa08e2d9fe33ac35eff1c85665341cfe9a0] = true;\r\n        isOwner[0x33e0547fc6d1a1077226f0bf931c7e07ca91ac6e] = true;\r\n\r\n        owners.push(0x9d12f4d20efd2135ab5b50a26456dccfb6e15a3f);\r\n        owners.push(0xa9806f5cefa0ffde5e75b51d16a9eed0908f7463);\r\n        owners.push(0x20d54aa08e2d9fe33ac35eff1c85665341cfe9a0);\r\n        owners.push(0x33e0547fc6d1a1077226f0bf931c7e07ca91ac6e);\r\n    }\r\n\r\n    modifier ownerExists(address owner) {\r\n        require(isOwner[owner], \"-------- owner exists -------\");\r\n        _;\r\n    }\r\n\r\n    modifier transactionExists(uint transactionId) {\r\n        require(transactions[transactionId].destination != 0, \"-------- transaction exists -------\");\r\n        _;\r\n    }\r\n\r\n    modifier confirmed(uint transactionId, address owner) {\r\n        require(confirmations[transactionId][owner]);\r\n        _;\r\n    }\r\n\r\n    modifier validRequirement(uint ownerCount, uint _required) {\r\n        require(ownerCount <= MAX_OWNER_COUNT && _required <= ownerCount && _required != 0 && ownerCount != 0);\r\n        _;\r\n    }\r\n\r\n    modifier notConfirmed(uint transactionId, address owner) {\r\n        require(!confirmations[transactionId][owner], \"-------- not confirmed -------\");\r\n        _;\r\n    }\r\n\r\n    modifier notNull(address _address) {\r\n        require(_address != 0, \"You can set address\");\r\n        _;\r\n    }\r\n\r\n    modifier notExecuted(uint transactionId) {\r\n        require(!transactions[transactionId].executed, \" ---- Transaction is already done -----\");\r\n        _;\r\n    }\r\n\r\n    function addOwner(address newOwner) public ownerExists(msg.sender) {\r\n        require(owners.length < MAX_OWNER_COUNT, \" ---- Limit exceeded -----\");\r\n        require(!isOwner[newOwner], \"-------- This owner is already exists -------\");\r\n        owners.push(newOwner);\r\n        isOwner[newOwner] = true;\r\n    }\r\n\r\n    function submitTransaction(address destination, uint value) public returns (uint transactionId) {\r\n        transactionId = addTransaction(destination, value);\r\n        confirmTransaction(transactionId);\r\n    }\r\n\r\n    function addTransaction(address destination, uint value) internal notNull(destination) returns (uint transactionId) {\r\n        transactionId = ++transactionCount;\r\n        transactions[transactionId] = Transaction({\r\n            destination: destination,\r\n            value: value,\r\n            executed: false\r\n            });\r\n        emit Submission(transactionId);\r\n        return transactionCount;\r\n    }\r\n\r\n    function confirmTransaction(uint transactionId) public ownerExists(msg.sender) transactionExists(transactionId) notConfirmed(transactionId, msg.sender) {\r\n\r\n        confirmations[transactionId][msg.sender] = true;\r\n        executeTransaction(transactionId);\r\n        emit Confirmation(msg.sender, transactionId);\r\n    }\r\n\r\n    function executeTransaction(uint transactionId) public ownerExists(msg.sender) confirmed(transactionId, msg.sender) notExecuted(transactionId) {\r\n        if (isConfirmed(transactionId)) {\r\n            transactions[transactionId].executed = true;\r\n            emit Execution(transactionId);\r\n        }\r\n    }\r\n\r\n    function revokeConfirmation(uint transactionId) public ownerExists(msg.sender) {\r\n        transactions[transactionId].executed = false;\r\n        emit ExecutionFailure(transactionId);\r\n    }\r\n\r\n    function isConfirmed(uint transactionId) public constant returns (bool) {\r\n        uint count = 0;\r\n        for (uint i=0; i<owners.length; i++) {\r\n            if (confirmations[transactionId][owners[i]]) {\r\n                count += 1;\r\n            }\r\n        }\r\n        if (count >= required) {\r\n            return true;\r\n        } else {\r\n            return false;\r\n        }\r\n    }\r\n\r\n    function transfer(uint transactionId) public  {\r\n        require(transactions[transactionId].executed, \"Transaction is not allowed\");\r\n        require(transactions[transactionId].value != 0, \"Can't equal 0\");\r\n        //require(crowdsaleContract.isCrowdsaleClosed(), \"the transfer is not allow\");\r\n        if (isConfirmed(transactionId)) {\r\n            transactions[transactionId].destination.transfer(transactions[transactionId].value);\r\n            emit Transfer(transactionId);\r\n        }\r\n    }\r\n\r\n    function() payable public {\r\n\r\n    }\r\n}\r\n",
  "sourcePath": "C:\\blockchain\\new_version\\hashlottery3\\truffle\\contracts\\MultiSigWallet.sol",
  "compiler": {
    "name": "solc",
    "version": "0.4.24+commit.e67f0147.Emscripten.clang"
  },
  "schemaVersion": "2.0.1",
  "updatedAt": "2018-12-10T17:52:30.331Z"
}