{
  "contractName": "Oracle",
  "abi": [
    {
      "constant": true,
      "inputs": [],
      "name": "lotteryAddress",
      "outputs": [
        {
          "name": "",
          "type": "address"
        }
      ],
      "payable": false,
      "stateMutability": "view",
      "type": "function"
    },
    {
      "constant": true,
      "inputs": [],
      "name": "lottery",
      "outputs": [
        {
          "name": "",
          "type": "address"
        }
      ],
      "payable": false,
      "stateMutability": "view",
      "type": "function"
    },
    {
      "inputs": [
        {
          "name": "_lotteryAddress",
          "type": "address"
        }
      ],
      "payable": false,
      "stateMutability": "nonpayable",
      "type": "constructor"
    },
    {
      "constant": true,
      "inputs": [],
      "name": "getLotteryAddress",
      "outputs": [
        {
          "name": "lottery",
          "type": "address"
        }
      ],
      "payable": false,
      "stateMutability": "view",
      "type": "function"
    },
    {
      "constant": false,
      "inputs": [
        {
          "name": "_lottery",
          "type": "address"
        }
      ],
      "name": "setLotteryAddress",
      "outputs": [],
      "payable": false,
      "stateMutability": "nonpayable",
      "type": "function"
    },
    {
      "constant": false,
      "inputs": [
        {
          "name": "n1",
          "type": "uint8"
        },
        {
          "name": "n2",
          "type": "uint8"
        },
        {
          "name": "n3",
          "type": "uint8"
        }
      ],
      "name": "setWinningCombinationForLottery",
      "outputs": [],
      "payable": false,
      "stateMutability": "nonpayable",
      "type": "function"
    }
  ],
  "bytecode": "0x608060405234801561001057600080fd5b506040516020806104ec8339810180604052810190808051906020019092919050505080600160006101000a81548173ffffffffffffffffffffffffffffffffffffffff021916908373ffffffffffffffffffffffffffffffffffffffff160217905550806000806101000a81548173ffffffffffffffffffffffffffffffffffffffff021916908373ffffffffffffffffffffffffffffffffffffffff16021790555050610428806100c46000396000f30060806040526004361061006d576000357c0100000000000000000000000000000000000000000000000000000000900463ffffffff1680630b112a1d146100725780632a332b2a146100bc5780633beedf6d146100ff578063ba13a57214610156578063fc7d9178146101ad575b600080fd5b34801561007e57600080fd5b506100ba600480360381019080803560ff169060200190929190803560ff169060200190929190803560ff169060200190929190505050610204565b005b3480156100c857600080fd5b506100fd600480360381019080803573ffffffffffffffffffffffffffffffffffffffff169060200190929190505050610303565b005b34801561010b57600080fd5b50610114610387565b604051808273ffffffffffffffffffffffffffffffffffffffff1673ffffffffffffffffffffffffffffffffffffffff16815260200191505060405180910390f35b34801561016257600080fd5b5061016b6103ad565b604051808273ffffffffffffffffffffffffffffffffffffffff1673ffffffffffffffffffffffffffffffffffffffff16815260200191505060405180910390f35b3480156101b957600080fd5b506101c26103d2565b604051808273ffffffffffffffffffffffffffffffffffffffff1673ffffffffffffffffffffffffffffffffffffffff16815260200191505060405180910390f35b6000809054906101000a900473ffffffffffffffffffffffffffffffffffffffff1673ffffffffffffffffffffffffffffffffffffffff1663ce30942684848460006040518563ffffffff167c0100000000000000000000000000000000000000000000000000000000028152600401808560ff1660ff1681526020018460ff1660ff1681526020018360ff1660ff1681526020018260ff168152602001945050505050602060405180830381600087803b1580156102c257600080fd5b505af11580156102d6573d6000803e3d6000fd5b505050506040513d60208110156102ec57600080fd5b810190808051906020019092919050505050505050565b806000806101000a81548173ffffffffffffffffffffffffffffffffffffffff021916908373ffffffffffffffffffffffffffffffffffffffff16021790555080600160006101000a81548173ffffffffffffffffffffffffffffffffffffffff021916908373ffffffffffffffffffffffffffffffffffffffff16021790555050565b600160009054906101000a900473ffffffffffffffffffffffffffffffffffffffff1681565b6000809054906101000a900473ffffffffffffffffffffffffffffffffffffffff1681565b6000600160009054906101000a900473ffffffffffffffffffffffffffffffffffffffff169050905600a165627a7a723058207236056770e7a174d01d25b464e73e729421cc886004922502272c15bc53619c0029",
  "source": "pragma solidity ^0.4.24;\r\n\r\ninterface ILottery {\r\n    function setWinningCombination( uint8 digit1,\r\n        uint8 digit2,\r\n        uint8 digit3,\r\n        uint8 digit4) public returns (bytes32 status);\r\n}\r\n\r\ncontract Oracle {\r\n\r\n    ILottery public lottery;\r\n    address public lotteryAddress;\r\n\r\n    constructor (address _lotteryAddress) {\r\n        lotteryAddress = _lotteryAddress;\r\n        lottery = ILottery(_lotteryAddress);\r\n    }\r\n\r\n    function getLotteryAddress() public view returns(address lottery) {\r\n        return lotteryAddress;\r\n    }\r\n\r\n    function setLotteryAddress (address _lottery) public {\r\n        lottery = ILottery(_lottery);\r\n        lotteryAddress = _lottery;\r\n    }\r\n\r\n    function setWinningCombinationForLottery(uint8 n1, uint8 n2, uint8 n3) public {\r\n        lottery.setWinningCombination(n1, n2, n3, 0);\r\n    }\r\n}",
  "sourcePath": "C:\\blockchain\\new_version\\hashlottery3\\truffle\\contracts\\Oracle.sol",
  "compiler": {
    "name": "solc",
    "version": "0.4.24+commit.e67f0147.Emscripten.clang"
  },
  "schemaVersion": "2.0.1",
  "updatedAt": "2018-12-10T17:48:05.038Z"
}