{
  "contractName": "PrizeFundManager",
  "abi": [
    {
      "constant": true,
      "inputs": [
        {
          "name": "",
          "type": "uint256"
        }
      ],
      "name": "amountPrize",
      "outputs": [
        {
          "name": "",
          "type": "uint256"
        }
      ],
      "payable": false,
      "stateMutability": "view",
      "type": "function"
    },
    {
      "constant": true,
      "inputs": [],
      "name": "wallet",
      "outputs": [
        {
          "name": "",
          "type": "address"
        }
      ],
      "payable": false,
      "stateMutability": "view",
      "type": "function"
    },
    {
      "constant": true,
      "inputs": [
        {
          "name": "",
          "type": "uint256"
        }
      ],
      "name": "jackpotAmount",
      "outputs": [
        {
          "name": "",
          "type": "uint256"
        }
      ],
      "payable": false,
      "stateMutability": "view",
      "type": "function"
    },
    {
      "constant": true,
      "inputs": [],
      "name": "lottery",
      "outputs": [
        {
          "name": "",
          "type": "address"
        }
      ],
      "payable": false,
      "stateMutability": "view",
      "type": "function"
    },
    {
      "constant": true,
      "inputs": [],
      "name": "erc721",
      "outputs": [
        {
          "name": "",
          "type": "address"
        }
      ],
      "payable": false,
      "stateMutability": "view",
      "type": "function"
    },
    {
      "constant": false,
      "inputs": [
        {
          "name": "newOwner",
          "type": "address"
        }
      ],
      "name": "transferOwnership",
      "outputs": [],
      "payable": false,
      "stateMutability": "nonpayable",
      "type": "function"
    },
    {
      "inputs": [],
      "payable": false,
      "stateMutability": "nonpayable",
      "type": "constructor"
    },
    {
      "payable": true,
      "stateMutability": "payable",
      "type": "fallback"
    },
    {
      "anonymous": false,
      "inputs": [
        {
          "indexed": false,
          "name": "_tokenId",
          "type": "uint256"
        }
      ],
      "name": "AddRequest",
      "type": "event"
    },
    {
      "anonymous": false,
      "inputs": [
        {
          "indexed": false,
          "name": "_tokenId",
          "type": "uint256"
        },
        {
          "indexed": false,
          "name": "sender",
          "type": "address"
        },
        {
          "indexed": false,
          "name": "_prize",
          "type": "uint256"
        }
      ],
      "name": "PrizeSent",
      "type": "event"
    },
    {
      "anonymous": false,
      "inputs": [
        {
          "indexed": false,
          "name": "_tokenId",
          "type": "uint256"
        },
        {
          "indexed": false,
          "name": "sender",
          "type": "address"
        }
      ],
      "name": "PrizeNotSent",
      "type": "event"
    },
    {
      "constant": false,
      "inputs": [
        {
          "name": "_lottery",
          "type": "address"
        }
      ],
      "name": "setLotteryAddress",
      "outputs": [],
      "payable": false,
      "stateMutability": "nonpayable",
      "type": "function"
    },
    {
      "constant": false,
      "inputs": [
        {
          "name": "_wallet",
          "type": "address"
        }
      ],
      "name": "setPriceFundWallet",
      "outputs": [],
      "payable": false,
      "stateMutability": "nonpayable",
      "type": "function"
    },
    {
      "constant": false,
      "inputs": [
        {
          "name": "_erc721",
          "type": "address"
        }
      ],
      "name": "setERC721",
      "outputs": [],
      "payable": false,
      "stateMutability": "nonpayable",
      "type": "function"
    },
    {
      "constant": false,
      "inputs": [
        {
          "name": "_tokenId",
          "type": "uint256"
        },
        {
          "name": "_secretHash",
          "type": "bytes32"
        }
      ],
      "name": "setRequest",
      "outputs": [],
      "payable": false,
      "stateMutability": "nonpayable",
      "type": "function"
    },
    {
      "constant": false,
      "inputs": [
        {
          "name": "_ticketID",
          "type": "uint256"
        }
      ],
      "name": "getPrize",
      "outputs": [],
      "payable": false,
      "stateMutability": "nonpayable",
      "type": "function"
    },
    {
      "constant": true,
      "inputs": [
        {
          "name": "_owner",
          "type": "address"
        },
        {
          "name": "_ticket",
          "type": "uint256"
        },
        {
          "name": "_lottery",
          "type": "uint256"
        }
      ],
      "name": "checkRequest",
      "outputs": [
        {
          "name": "isRequest",
          "type": "bool"
        },
        {
          "name": "isGet",
          "type": "bool"
        }
      ],
      "payable": false,
      "stateMutability": "view",
      "type": "function"
    },
    {
      "constant": true,
      "inputs": [
        {
          "name": "_lottery",
          "type": "uint256"
        }
      ],
      "name": "getDataJackpot",
      "outputs": [
        {
          "name": "_jackpotAmount",
          "type": "uint256"
        },
        {
          "name": "prize",
          "type": "uint256"
        },
        {
          "name": "addressWinners",
          "type": "address[]"
        }
      ],
      "payable": false,
      "stateMutability": "view",
      "type": "function"
    },
    {
      "constant": true,
      "inputs": [
        {
          "name": "_lottery",
          "type": "uint256"
        }
      ],
      "name": "getWinners",
      "outputs": [
        {
          "name": "_winners",
          "type": "address[]"
        }
      ],
      "payable": false,
      "stateMutability": "view",
      "type": "function"
    },
    {
      "constant": true,
      "inputs": [
        {
          "name": "_lottery",
          "type": "uint256"
        }
      ],
      "name": "getWinnerTickets",
      "outputs": [
        {
          "name": "_idTickets",
          "type": "uint256[]"
        }
      ],
      "payable": false,
      "stateMutability": "view",
      "type": "function"
    },
    {
      "constant": false,
      "inputs": [
        {
          "name": "_lotteryId",
          "type": "uint256"
        }
      ],
      "name": "calculatePrize",
      "outputs": [],
      "payable": false,
      "stateMutability": "nonpayable",
      "type": "function"
    },
    {
      "constant": true,
      "inputs": [],
      "name": "getJackpot",
      "outputs": [
        {
          "name": "",
          "type": "uint256"
        }
      ],
      "payable": false,
      "stateMutability": "view",
      "type": "function"
    }
  ],
  "bytecode": "0x608060405234801561001057600080fd5b50336000806101000a81548173ffffffffffffffffffffffffffffffffffffffff021916908373ffffffffffffffffffffffffffffffffffffffff1602179055506000600a819055506000600b81905550611b16806100706000396000f3006080604052600436106100f1576000357c0100000000000000000000000000000000000000000000000000000000900463ffffffff168063094144a5146100f657806317dd1bd3146101395780632a332b2a146101b3578063430d7ef3146101f6578063521eb2731461023757806359393d7c1461028e5780636b1426a4146102bb5780638b7318ae1461033d5780639329066c146103cd578063a1099bf2146103f8578063b192975514610425578063ba13a57214610466578063bca6ce64146104bd578063be5750a514610514578063f2fde38b14610557578063fcd455be1461059a578063fcfc2cee1461061c575b600080fd5b34801561010257600080fd5b50610137600480360381019080803573ffffffffffffffffffffffffffffffffffffffff169060200190929190505050610657565b005b34801561014557600080fd5b5061018e600480360381019080803573ffffffffffffffffffffffffffffffffffffffff169060200190929190803590602001909291908035906020019092919050505061075f565b6040518083151515158152602001821515151581526020019250505060405180910390f35b3480156101bf57600080fd5b506101f4600480360381019080803573ffffffffffffffffffffffffffffffffffffffff16906020019092919050505061082b565b005b34801561020257600080fd5b5061022160048036038101908080359060200190929190505050610933565b6040518082815260200191505060405180910390f35b34801561024357600080fd5b5061024c61094b565b604051808273ffffffffffffffffffffffffffffffffffffffff1673ffffffffffffffffffffffffffffffffffffffff16815260200191505060405180910390f35b34801561029a57600080fd5b506102b960048036038101908080359060200190929190505050610971565b005b3480156102c757600080fd5b506102e660048036038101908080359060200190929190505050610afd565b6040518080602001828103825283818151815260200191508051906020019060200280838360005b8381101561032957808201518184015260208101905061030e565b505050509050019250505060405180910390f35b34801561034957600080fd5b5061036860048036038101908080359060200190929190505050610b9e565b6040518084815260200183815260200180602001828103825283818151815260200191508051906020019060200280838360005b838110156103b757808201518184015260208101905061039c565b5050505090500194505050505060405180910390f35b3480156103d957600080fd5b506103e2610c73565b6040518082815260200191505060405180910390f35b34801561040457600080fd5b5061042360048036038101908080359060200190929190505050610c7d565b005b34801561043157600080fd5b506104506004803603810190808035906020019092919050505061101c565b6040518082815260200191505060405180910390f35b34801561047257600080fd5b5061047b611034565b604051808273ffffffffffffffffffffffffffffffffffffffff1673ffffffffffffffffffffffffffffffffffffffff16815260200191505060405180910390f35b3480156104c957600080fd5b506104d261105a565b604051808273ffffffffffffffffffffffffffffffffffffffff1673ffffffffffffffffffffffffffffffffffffffff16815260200191505060405180910390f35b34801561052057600080fd5b50610555600480360381019080803573ffffffffffffffffffffffffffffffffffffffff169060200190929190505050611080565b005b34801561056357600080fd5b50610598600480360381019080803573ffffffffffffffffffffffffffffffffffffffff169060200190929190505050611188565b005b3480156105a657600080fd5b506105c56004803603810190808035906020019092919050505061128f565b6040518080602001828103825283818151815260200191508051906020019060200280838360005b838110156106085780820151818401526020810190506105ed565b505050509050019250505060405180910390f35b34801561062857600080fd5b506106556004803603810190808035906020019092919080356000191690602001909291905050506112fa565b005b6000809054906101000a900473ffffffffffffffffffffffffffffffffffffffff1673ffffffffffffffffffffffffffffffffffffffff163373ffffffffffffffffffffffffffffffffffffffff1614151561071b576040517f08c379a000000000000000000000000000000000000000000000000000000000815260040180806020018281038252601e8152602001807f4f6e6c79206f776e65722063616e20646f207468697320616374696f6e21000081525060200191505060405180910390fd5b80600260006101000a81548173ffffffffffffffffffffffffffffffffffffffff021916908373ffffffffffffffffffffffffffffffffffffffff16021790555050565b60008060008090505b6008805490508160ff16101561081a578460088260ff1681548110151561078b57fe5b9060005260206000209060050201600001541480156107cc57508360088260ff168154811015156107b857fe5b906000526020600020906005020160010154145b1561080d57600160088260ff168154811015156107e557fe5b906000526020600020906005020160040160009054906101000a900460ff1692509250610822565b8080600101915050610768565b600080925092505b50935093915050565b6000809054906101000a900473ffffffffffffffffffffffffffffffffffffffff1673ffffffffffffffffffffffffffffffffffffffff163373ffffffffffffffffffffffffffffffffffffffff161415156108ef576040517f08c379a000000000000000000000000000000000000000000000000000000000815260040180806020018281038252601e8152602001807f4f6e6c79206f776e65722063616e20646f207468697320616374696f6e21000081525060200191505060405180910390fd5b80600160006101000a81548173ffffffffffffffffffffffffffffffffffffffff021916908373ffffffffffffffffffffffffffffffffffffffff16021790555050565b60066020528060005260406000206000915090505481565b600360009054906101000a900473ffffffffffffffffffffffffffffffffffffffff1681565b600080600360009054906101000a900473ffffffffffffffffffffffffffffffffffffffff1673ffffffffffffffffffffffffffffffffffffffff166351758b69846040518263ffffffff167c010000000000000000000000000000000000000000000000000000000002815260040180828152602001915050602060405180830381600087803b158015610a0557600080fd5b505af1158015610a19573d6000803e3d6000fd5b505050506040513d6020811015610a2f57600080fd5b81019080805190602001909291905050509150600460008481526020019081526020016000208054905090506000811415610aac5781600b60008282540192505081905550600b54600760008581526020019081526020016000208190555060006006600085815260200190815260200160002081905550610af8565b600b548201600760008581526020019081526020016000208190555080600b548301811515610ad757fe5b0460066000858152602001908152602001600020819055506000600b819055505b505050565b606060046000838152602001908152602001600020805480602002602001604051908101604052809291908181526020018280548015610b9257602002820191906000526020600020905b8160009054906101000a900473ffffffffffffffffffffffffffffffffffffffff1673ffffffffffffffffffffffffffffffffffffffff1681526020019060010190808311610b48575b50505050509050919050565b6000806060600760008581526020019081526020016000205460066000868152602001908152602001600020546004600087815260200190815260200160002080805480602002602001604051908101604052809291908181526020018280548015610c5f57602002820191906000526020600020905b8160009054906101000a900473ffffffffffffffffffffffffffffffffffffffff1673ffffffffffffffffffffffffffffffffffffffff1681526020019060010190808311610c15575b505050505090509250925092509193909250565b6000600b54905090565b600080600080925060009150600090505b6008805490508160ff161015610f2c573373ffffffffffffffffffffffffffffffffffffffff1660088260ff16815481101515610cc757fe5b906000526020600020906005020160020160009054906101000a900473ffffffffffffffffffffffffffffffffffffffff1673ffffffffffffffffffffffffffffffffffffffff161415610f1f576000151560088260ff16815481101515610d2b57fe5b906000526020600020906005020160040160009054906101000a900460ff161515148015610d7b57508360088260ff16815481101515610d6757fe5b906000526020600020906005020160000154145b15610f1e576006600060088360ff16815481101515610d9657fe5b9060005260206000209060050201600101548152602001908152602001600020549150600360009054906101000a900473ffffffffffffffffffffffffffffffffffffffff1673ffffffffffffffffffffffffffffffffffffffff16636c10ed9960088360ff16815481101515610e0957fe5b906000526020600020906005020160020160009054906101000a900473ffffffffffffffffffffffffffffffffffffffff16846040518363ffffffff167c0100000000000000000000000000000000000000000000000000000000028152600401808373ffffffffffffffffffffffffffffffffffffffff1673ffffffffffffffffffffffffffffffffffffffff16815260200182815260200192505050600060405180830381600087803b158015610ec157600080fd5b505af1158015610ed5573d6000803e3d6000fd5b50505050600160088260ff16815481101515610eed57fe5b906000526020600020906005020160040160006101000a81548160ff02191690831515021790555060019250610f2c565b5b8080600101915050610c8e565b8215610faa577f53c7089a2c251ccbccd7be6bc38f96fb212155b3f9d93c719541e9386f49621c843384604051808481526020018373ffffffffffffffffffffffffffffffffffffffff1673ffffffffffffffffffffffffffffffffffffffff168152602001828152602001935050505060405180910390a1611016565b7fa26b9b2540d41752ce8319f2571be22089b4a3de0ebc541b0ebcaa59063f61bf8433604051808381526020018273ffffffffffffffffffffffffffffffffffffffff1673ffffffffffffffffffffffffffffffffffffffff1681526020019250505060405180910390a15b50505050565b60076020528060005260406000206000915090505481565b600160009054906101000a900473ffffffffffffffffffffffffffffffffffffffff1681565b600260009054906101000a900473ffffffffffffffffffffffffffffffffffffffff1681565b6000809054906101000a900473ffffffffffffffffffffffffffffffffffffffff1673ffffffffffffffffffffffffffffffffffffffff163373ffffffffffffffffffffffffffffffffffffffff16141515611144576040517f08c379a000000000000000000000000000000000000000000000000000000000815260040180806020018281038252601e8152602001807f4f6e6c79206f776e65722063616e20646f207468697320616374696f6e21000081525060200191505060405180910390fd5b80600360006101000a81548173ffffffffffffffffffffffffffffffffffffffff021916908373ffffffffffffffffffffffffffffffffffffffff16021790555050565b6000809054906101000a900473ffffffffffffffffffffffffffffffffffffffff1673ffffffffffffffffffffffffffffffffffffffff163373ffffffffffffffffffffffffffffffffffffffff1614151561124c576040517f08c379a000000000000000000000000000000000000000000000000000000000815260040180806020018281038252601e8152602001807f4f6e6c79206f776e65722063616e20646f207468697320616374696f6e21000081525060200191505060405180910390fd5b806000806101000a81548173ffffffffffffffffffffffffffffffffffffffff021916908373ffffffffffffffffffffffffffffffffffffffff16021790555050565b6060600560008381526020019081526020016000208054806020026020016040519081016040528092919081815260200182805480156112ee57602002820191906000526020600020905b8154815260200190600101908083116112da575b50505050509050919050565b60008060008060008060008060008060009950600098505b6008805490508960ff16101561135f578b60088a60ff1681548110151561133557fe5b906000526020600020906005020160000154141561135257600199505b8880600101995050611312565b600015158a15151415156113db576040517f08c379a000000000000000000000000000000000000000000000000000000000815260040180806020018281038252601d8152602001807f596f75206861766520616c72656164792061646420726571756573742100000081525060200191505060405180910390fd5b600260009054906101000a900473ffffffffffffffffffffffffffffffffffffffff1673ffffffffffffffffffffffffffffffffffffffff1663b09afec18d6040518263ffffffff167c01000000000000000000000000000000000000000000000000000000000281526004018082815260200191505060c060405180830381600087803b15801561146c57600080fd5b505af1158015611480573d6000803e3d6000fd5b505050506040513d60c081101561149657600080fd5b8101908080519060200190929190805190602001909291908051906020019092919080519060200190929190805190602001909291908051906020019092919050505097509750975097509750975083600019168b60001916141515611564576040517f08c379a000000000000000000000000000000000000000000000000000000000815260040180806020018281038252601c8152602001807f5365637265742070687261736520646f65736e2774206d617463682e0000000081525060200191505060405180910390fd5b600260009054906101000a900473ffffffffffffffffffffffffffffffffffffffff1673ffffffffffffffffffffffffffffffffffffffff1663cb1d3dd18d6040518263ffffffff167c010000000000000000000000000000000000000000000000000000000002815260040180828152602001915050602060405180830381600087803b1580156115f557600080fd5b505af1158015611609573d6000803e3d6000fd5b505050506040513d602081101561161f57600080fd5b81019080805190602001909291905050509150600160009054906101000a900473ffffffffffffffffffffffffffffffffffffffff1673ffffffffffffffffffffffffffffffffffffffff1663e87e121d6040518163ffffffff167c0100000000000000000000000000000000000000000000000000000000028152600401602060405180830381600087803b1580156116b857600080fd5b505af11580156116cc573d6000803e3d6000fd5b505050506040513d60208110156116e257600080fd5b8101908080519060200190929190505050600981905550600160009054906101000a900473ffffffffffffffffffffffffffffffffffffffff1673ffffffffffffffffffffffffffffffffffffffff1663492844fb6009546040518263ffffffff167c010000000000000000000000000000000000000000000000000000000002815260040180828152602001915050602060405180830381600087803b15801561178c57600080fd5b505af11580156117a0573d6000803e3d6000fd5b505050506040513d60208110156117b657600080fd5b810190808051906020019092919050505090503373ffffffffffffffffffffffffffffffffffffffff168873ffffffffffffffffffffffffffffffffffffffff1614151561186c576040517f08c379a00000000000000000000000000000000000000000000000000000000081526004018080602001828103825260188152602001807f596f752063616e206e6f7420616464207265717565737421000000000000000081525060200191505060405180910390fd5b816000191681600019161415156118eb576040517f08c379a00000000000000000000000000000000000000000000000000000000081526004018080602001828103825260188152602001807f596f752063616e206e6f7420616464207265717565737421000000000000000081525060200191505060405180910390fd5b6004600060095481526020019081526020016000203390806001815401808255809150509060018203906000526020600020016000909192909190916101000a81548173ffffffffffffffffffffffffffffffffffffffff021916908373ffffffffffffffffffffffffffffffffffffffff160217905550506005600060095481526020019081526020016000208c9080600181540180825580915050906001820390600052602060002001600090919290919091505550600860a0604051908101604052808e815260200160095481526020018a73ffffffffffffffffffffffffffffffffffffffff168152602001866000191681526020016000151581525090806001815401808255809150509060018203906000526020600020906005020160009091929091909150600082015181600001556020820151816001015560408201518160020160006101000a81548173ffffffffffffffffffffffffffffffffffffffff021916908373ffffffffffffffffffffffffffffffffffffffff1602179055506060820151816003019060001916905560808201518160040160006101000a81548160ff0219169083151502179055505050507faa1f34a6947613cf6526347625cb9a5f1c9f45223a2afdb2b8db51d48fecb9648c6040518082815260200191505060405180910390a15050505050505050505050505600a165627a7a72305820c9125b4d1ad0d52d1fe55009e7c56ad799395a2881759ec61df15a17c82e5e6d0029",
  "source": "pragma solidity ^0.4.24;\r\nimport \"./owner.sol\";\r\n\r\ninterface IERC721 {\r\n    function getLotteryTicketHash(uint256 tokenId) public view returns(bytes32);\r\n    function getTokenData(uint256 _tokenId) public view returns (\r\n        address owner,\r\n        uint8 encodedDigit1,\r\n        uint8 encodedDigit2,\r\n        uint8 encodedDigit3,\r\n        bytes32 secretPhraseHash,\r\n        uint lotteryDeadline);\r\n}\r\n\r\ninterface ILottety {\r\n    function getWinningHash(uint256 lotteryId) public view returns(bytes32);\r\n\r\n    function getCurrentLotteryId() public view returns (uint256 _idLottery);\r\n    function isSubmittingTicketsForRewardAllowed(uint256 lotteryId) public view returns(bool);\r\n}\r\n\r\ninterface IWallet {\r\n    function getBalance() public view returns (uint256);\r\n    function getLotteryBalance(uint256 lotteryId) public returns(uint256);\r\n\r\n    // Попросить дописать функцию\r\n    function sendPrizeWinner(address winner, uint256 value);\r\n\r\n}\r\n\r\ncontract PrizeFundManager is Ownable {\r\n    event AddRequest (uint256 _tokenId);\r\n    event PrizeSent (uint256 _tokenId, address sender, uint256 _prize);\r\n    event PrizeNotSent (uint256 _tokenId, address sender);\r\n\r\n    struct TicketInfo {\r\n        uint256 tokenId;\r\n        uint256 lotteryId;\r\n        address ownerTicket;\r\n        bytes32 secretPhraseHash;\r\n        bool isGotPrize;\r\n    }\r\n\r\n    ILottety public lottery;\r\n    IERC721 public erc721;\r\n    IWallet public wallet;\r\n\r\n    // lottery id => address winners\r\n    mapping(uint256 => address[]) private winners;\r\n    // lottery id => id tokens\r\n    mapping(uint256 => uint256[]) private winnnerTickets;\r\n    // lottery id => prize\r\n    mapping (uint256 => uint256) public amountPrize;\r\n    // Количесвство средст в лотерее\r\n    mapping (uint256 => uint256) public jackpotAmount;\r\n\r\n    TicketInfo[] private tickets;\r\n    uint256 currentLotteryId;\r\n    uint256 nextId;\r\n    uint256 jackpot;\r\n\r\n    constructor () public {\r\n        nextId = 0;\r\n        jackpot = 0;\r\n    }\r\n\r\n    function setLotteryAddress(address _lottery) public onlyOwner {\r\n        lottery = ILottety(_lottery);\r\n    }\r\n\r\n    function setPriceFundWallet(address _wallet) public onlyOwner {\r\n        wallet = IWallet(_wallet);\r\n    }\r\n\r\n    function setERC721(address _erc721) public onlyOwner {\r\n        erc721 = IERC721(_erc721);\r\n    }\r\n\r\n    function checkTicket(bytes32 _ticketHash, address _owner, uint256 lotteryDeadline) private {\r\n        require(_owner == msg.sender, \"You can not add request!\");\r\n        require((lotteryDeadline + 24 hours) < now, \"You can not add request!\");\r\n        bytes32 lotteryHash = lottery.getWinningHash(currentLotteryId);\r\n        require(lotteryHash == _ticketHash, \"You can not add request!\");\r\n    }\r\n\r\n\r\n    // function setRequest(uint256 _tokenId) public {\r\n    function setRequest(uint256 _tokenId, bytes32 _secretHash) public {\r\n        bool has_request =false;\r\n        for (var i = 0; i < tickets.length; i++) {\r\n            if(tickets[i].tokenId == _tokenId) {\r\n                has_request = true;\r\n            }\r\n        }\r\n        require(has_request == false, \"You have already add request!\");\r\n        var (_owner, encodedDigit1, encodedDigit2, encodedDigit3, secretPhraseHash, lotteryDeadline) = erc721.getTokenData(_tokenId);\r\n        require(_secretHash == secretPhraseHash, \"Secret phrase doesn't match.\");\r\n        bytes32 ticketHash = erc721.getLotteryTicketHash(_tokenId);\r\n        currentLotteryId = lottery.getCurrentLotteryId();\r\n        bytes32 lotteryHash = lottery.getWinningHash(currentLotteryId);\r\n\r\n        //checkTicket(ticketHash, _owner, lotteryDeadline);\r\n        require(_owner == msg.sender, \"You can not add request!\");\r\n        //require(lottery.isSubmittingTicketsForRewardAllowed(currentLotteryId) == true, \"You can not add request!\");\r\n        require(lotteryHash == ticketHash, \"You can not add request!\");\r\n\r\n        winners[currentLotteryId].push(msg.sender);\r\n        winnnerTickets[currentLotteryId].push(_tokenId);\r\n\r\n        tickets.push(TicketInfo(_tokenId, currentLotteryId, _owner, secretPhraseHash, false));\r\n\r\n        emit AddRequest(_tokenId);\r\n    }\r\n\r\n    function getPrize(uint256 _ticketID) public {\r\n        bool prize_sent = false;\r\n        uint256 prize_value = 0;\r\n        for (var i = 0; i < tickets.length; i++) {\r\n            if (tickets[i].ownerTicket == msg.sender) {\r\n                if (tickets[i].isGotPrize == false && tickets[i].tokenId == _ticketID) {\r\n                    prize_value = amountPrize[tickets[i].lotteryId];\r\n                    wallet.sendPrizeWinner(tickets[i].ownerTicket, prize_value);\r\n                    tickets[i].isGotPrize = true;\r\n                    prize_sent = true;\r\n                    break;\r\n                }\r\n            }\r\n        }\r\n        if (prize_sent) {\r\n            emit PrizeSent(_ticketID, msg.sender, prize_value);\r\n        } else {\r\n            emit PrizeNotSent(_ticketID, msg.sender);\r\n        }\r\n    }\r\n\r\n    // Проверка билета на возможность получения выиграша\r\n    //  false false - 1) false - заявка не подана 2) false - выиграш не получен\r\n    function checkRequest(address _owner, uint256 _ticket, uint256 _lottery) public view returns (bool isRequest, bool isGet) {\r\n        for(var i = 0; i < tickets.length; i++) {\r\n            if(tickets[i].tokenId == _ticket && tickets[i].lotteryId == _lottery) {\r\n                //require(_owner == msg.sender, \"You don't have permission\");\r\n                return (true, tickets[i].isGotPrize);\r\n            }\r\n        }\r\n        return (false, false);\r\n    }\r\n\r\n    // Возвращение информации о джекпоте.\r\n    function getDataJackpot (uint256 _lottery) public view returns (uint256 _jackpotAmount, uint256 prize, address[] addressWinners) {\r\n        return (jackpotAmount[_lottery], amountPrize[_lottery], winners[_lottery]);\r\n    }\r\n\r\n    // Возвращение победителей по id лотереи\r\n    function getWinners(uint256 _lottery) public view returns (address[] _winners) {\r\n        return winners[_lottery];\r\n    }\r\n\r\n    // Возвращение выиграшных билетов по id лотереи\r\n    function getWinnerTickets(uint256 _lottery) public view returns (uint256 [] _idTickets) {\r\n        return winnnerTickets[_lottery];\r\n    }\r\n\r\n    function calculatePrize(uint256 _lotteryId)  public {\r\n        uint256 totalPrize = wallet.getLotteryBalance(_lotteryId);\r\n        uint countWinners = winners[_lotteryId].length;\r\n        if (countWinners == 0) {\r\n            jackpot += totalPrize;\r\n            jackpotAmount[_lotteryId] = jackpot;\r\n            amountPrize[_lotteryId] = 0;\r\n        } else {\r\n            jackpotAmount[_lotteryId] = totalPrize + jackpot;\r\n            amountPrize[_lotteryId] = (totalPrize + jackpot) / countWinners;\r\n            jackpot = 0;\r\n        }\r\n    }\r\n\r\n    function getJackpot() public view returns (uint256) {\r\n        return jackpot;\r\n    }\r\n\r\n    function() payable {\r\n        revert();\r\n    }\r\n}",
  "sourcePath": "C:\\blockchain\\new_version\\hashlottery3\\truffle\\contracts\\PrizeFundManager.sol",
  "compiler": {
    "name": "solc",
    "version": "0.4.24+commit.e67f0147.Emscripten.clang"
  },
  "schemaVersion": "2.0.1",
  "updatedAt": "2018-12-10T17:52:30.564Z"
}