{
  "contractName": "PrizeFundWallet",
  "abi": [
    {
      "constant": true,
      "inputs": [],
      "name": "lotteryAddress",
      "outputs": [
        {
          "name": "",
          "type": "address"
        }
      ],
      "payable": false,
      "stateMutability": "view",
      "type": "function"
    },
    {
      "constant": true,
      "inputs": [],
      "name": "prizeFundManagerAddress",
      "outputs": [
        {
          "name": "",
          "type": "address"
        }
      ],
      "payable": false,
      "stateMutability": "view",
      "type": "function"
    },
    {
      "constant": true,
      "inputs": [],
      "name": "profitWalletAddress",
      "outputs": [
        {
          "name": "",
          "type": "address"
        }
      ],
      "payable": false,
      "stateMutability": "view",
      "type": "function"
    },
    {
      "constant": false,
      "inputs": [
        {
          "name": "newOwner",
          "type": "address"
        }
      ],
      "name": "transferOwnership",
      "outputs": [],
      "payable": false,
      "stateMutability": "nonpayable",
      "type": "function"
    },
    {
      "inputs": [],
      "payable": false,
      "stateMutability": "nonpayable",
      "type": "constructor"
    },
    {
      "payable": true,
      "stateMutability": "payable",
      "type": "fallback"
    },
    {
      "constant": false,
      "inputs": [
        {
          "name": "_lottery_seller_address",
          "type": "address"
        },
        {
          "name": "_profitWalletAddress",
          "type": "address"
        },
        {
          "name": "_prizeFundManagerAddress",
          "type": "address"
        }
      ],
      "name": "init",
      "outputs": [],
      "payable": false,
      "stateMutability": "nonpayable",
      "type": "function"
    },
    {
      "constant": false,
      "inputs": [
        {
          "name": "lotteryId",
          "type": "uint256"
        }
      ],
      "name": "putFundsToPrizeWallet",
      "outputs": [],
      "payable": true,
      "stateMutability": "payable",
      "type": "function"
    },
    {
      "constant": true,
      "inputs": [
        {
          "name": "lotteryId",
          "type": "uint256"
        }
      ],
      "name": "getLotteryBalance",
      "outputs": [
        {
          "name": "",
          "type": "uint256"
        }
      ],
      "payable": false,
      "stateMutability": "view",
      "type": "function"
    },
    {
      "constant": false,
      "inputs": [],
      "name": "sendFundsToPrizeFundManager",
      "outputs": [],
      "payable": false,
      "stateMutability": "nonpayable",
      "type": "function"
    },
    {
      "constant": false,
      "inputs": [
        {
          "name": "winner",
          "type": "address"
        },
        {
          "name": "value",
          "type": "uint256"
        }
      ],
      "name": "sendPrizeWinner",
      "outputs": [],
      "payable": false,
      "stateMutability": "nonpayable",
      "type": "function"
    },
    {
      "constant": true,
      "inputs": [],
      "name": "getBalance",
      "outputs": [
        {
          "name": "",
          "type": "uint256"
        }
      ],
      "payable": false,
      "stateMutability": "view",
      "type": "function"
    }
  ],
  "bytecode": "0x608060405234801561001057600080fd5b50336000806101000a81548173ffffffffffffffffffffffffffffffffffffffff021916908373ffffffffffffffffffffffffffffffffffffffff160217905550610b76806100606000396000f3006080604052600436106100a4576000357c0100000000000000000000000000000000000000000000000000000000900463ffffffff16806312065fe014610112578063184b95591461013d5780633beedf6d146101c057806351758b69146102175780636c10ed991461025857806379397b91146102a55780637a9f5479146102fc578063d0ea53de14610313578063deabee3714610333578063f2fde38b1461038a575b6040517f08c379a000000000000000000000000000000000000000000000000000000000815260040180806020018281038252601c8152602001807f446f6573206e6f742041636365707420454854206469726563746c790000000081525060200191505060405180910390fd5b34801561011e57600080fd5b506101276103cd565b6040518082815260200191505060405180910390f35b34801561014957600080fd5b506101be600480360381019080803573ffffffffffffffffffffffffffffffffffffffff169060200190929190803573ffffffffffffffffffffffffffffffffffffffff169060200190929190803573ffffffffffffffffffffffffffffffffffffffff1690602001909291905050506103ec565b005b3480156101cc57600080fd5b506101d5610578565b604051808273ffffffffffffffffffffffffffffffffffffffff1673ffffffffffffffffffffffffffffffffffffffff16815260200191505060405180910390f35b34801561022357600080fd5b506102426004803603810190808035906020019092919050505061059e565b6040518082815260200191505060405180910390f35b34801561026457600080fd5b506102a3600480360381019080803573ffffffffffffffffffffffffffffffffffffffff169060200190929190803590602001909291905050506105bb565b005b3480156102b157600080fd5b506102ba6106f1565b604051808273ffffffffffffffffffffffffffffffffffffffff1673ffffffffffffffffffffffffffffffffffffffff16815260200191505060405180910390f35b34801561030857600080fd5b50610311610717565b005b61033160048036038101908080359060200190929190505050610884565b005b34801561033f57600080fd5b50610348610a1d565b604051808273ffffffffffffffffffffffffffffffffffffffff1673ffffffffffffffffffffffffffffffffffffffff16815260200191505060405180910390f35b34801561039657600080fd5b506103cb600480360381019080803573ffffffffffffffffffffffffffffffffffffffff169060200190929190505050610a43565b005b60003073ffffffffffffffffffffffffffffffffffffffff1631905090565b6000809054906101000a900473ffffffffffffffffffffffffffffffffffffffff1673ffffffffffffffffffffffffffffffffffffffff163373ffffffffffffffffffffffffffffffffffffffff161415156104b0576040517f08c379a000000000000000000000000000000000000000000000000000000000815260040180806020018281038252601e8152602001807f4f6e6c79206f776e65722063616e20646f207468697320616374696f6e21000081525060200191505060405180910390fd5b82600160006101000a81548173ffffffffffffffffffffffffffffffffffffffff021916908373ffffffffffffffffffffffffffffffffffffffff16021790555081600260006101000a81548173ffffffffffffffffffffffffffffffffffffffff021916908373ffffffffffffffffffffffffffffffffffffffff16021790555080600360006101000a81548173ffffffffffffffffffffffffffffffffffffffff021916908373ffffffffffffffffffffffffffffffffffffffff160217905550505050565b600160009054906101000a900473ffffffffffffffffffffffffffffffffffffffff1681565b600060046000838152602001908152602001600020549050919050565b600360009054906101000a900473ffffffffffffffffffffffffffffffffffffffff1673ffffffffffffffffffffffffffffffffffffffff163373ffffffffffffffffffffffffffffffffffffffff161415156106a6576040517f08c379a00000000000000000000000000000000000000000000000000000000081526004018080602001828103825260388152602001807f4f6e6c79205072697a652046756e64204d616e6167657220436f6e747261637481526020017f2063616e2074616b65204554482066726f6d206865726521000000000000000081525060400191505060405180910390fd5b8173ffffffffffffffffffffffffffffffffffffffff166108fc829081150290604051600060405180830381858888f193505050501580156106ec573d6000803e3d6000fd5b505050565b600360009054906101000a900473ffffffffffffffffffffffffffffffffffffffff1681565b600360009054906101000a900473ffffffffffffffffffffffffffffffffffffffff1673ffffffffffffffffffffffffffffffffffffffff163373ffffffffffffffffffffffffffffffffffffffff16141515610802576040517f08c379a00000000000000000000000000000000000000000000000000000000081526004018080602001828103825260388152602001807f4f6e6c79205072697a652046756e64204d616e6167657220436f6e747261637481526020017f2063616e2074616b65204554482066726f6d206865726521000000000000000081525060400191505060405180910390fd5b600360009054906101000a900473ffffffffffffffffffffffffffffffffffffffff1673ffffffffffffffffffffffffffffffffffffffff166108fc3073ffffffffffffffffffffffffffffffffffffffff16319081150290604051600060405180830381858888f19350505050158015610881573d6000803e3d6000fd5b50565b600160009054906101000a900473ffffffffffffffffffffffffffffffffffffffff1673ffffffffffffffffffffffffffffffffffffffff163373ffffffffffffffffffffffffffffffffffffffff16148061092d5750600260009054906101000a900473ffffffffffffffffffffffffffffffffffffffff1673ffffffffffffffffffffffffffffffffffffffff163373ffffffffffffffffffffffffffffffffffffffff16145b15156109ed576040517f08c379a00000000000000000000000000000000000000000000000000000000081526004018080602001828103825260498152602001807f4f6e6c79204c6f74746572792053656c6c657220436f6e7472616374206f722081526020017f436f6d70616e792050726f66697420436f6e74726163742063616e207075742081526020017f455448206865726521000000000000000000000000000000000000000000000081525060600191505060405180910390fd5b34600460008381526020019081526020016000205401600460008381526020019081526020016000208190555050565b600260009054906101000a900473ffffffffffffffffffffffffffffffffffffffff1681565b6000809054906101000a900473ffffffffffffffffffffffffffffffffffffffff1673ffffffffffffffffffffffffffffffffffffffff163373ffffffffffffffffffffffffffffffffffffffff16141515610b07576040517f08c379a000000000000000000000000000000000000000000000000000000000815260040180806020018281038252601e8152602001807f4f6e6c79206f776e65722063616e20646f207468697320616374696f6e21000081525060200191505060405180910390fd5b806000806101000a81548173ffffffffffffffffffffffffffffffffffffffff021916908373ffffffffffffffffffffffffffffffffffffffff160217905550505600a165627a7a723058200cba3006cf652e342669f416eb0b7af0b57d2ab43113e34071b4d3da55b1eb870029",
  "source": "pragma solidity ^0.4.24;\r\n\r\nimport \"./owner.sol\";\r\nimport \"./interfaces/IPrizeFundWallet.sol\";\r\n\r\ncontract PrizeFundWallet is Ownable, IPrizeFundWallet\r\n{\r\n    address public lotteryAddress;\r\n    address public profitWalletAddress;\r\n    address public prizeFundManagerAddress;\r\n\r\n    mapping (uint256 => uint256) private lotteryBalances;\r\n\r\n    constructor () public\r\n    {\r\n        \r\n    }\r\n\r\n    function init(address _lottery_seller_address, address _profitWalletAddress, address _prizeFundManagerAddress) public onlyOwner\r\n    {\r\n        lotteryAddress = _lottery_seller_address;\r\n        profitWalletAddress = _profitWalletAddress;\r\n        prizeFundManagerAddress = _prizeFundManagerAddress;\r\n    }\r\n\r\n    function putFundsToPrizeWallet(uint256 lotteryId) payable public\r\n    {\r\n        require(msg.sender == lotteryAddress || msg.sender == profitWalletAddress, \"Only Lottery Seller Contract or Company Profit Contract can put ETH here!\");\r\n        lotteryBalances[lotteryId] = lotteryBalances[lotteryId] + msg.value;\r\n    }\r\n\r\n    function getLotteryBalance(uint256 lotteryId) public view returns(uint256)\r\n    {\r\n        return lotteryBalances[lotteryId];\r\n    }\r\n\r\n    function sendFundsToPrizeFundManager() public\r\n    {\r\n        require(msg.sender == prizeFundManagerAddress, \"Only Prize Fund Manager Contract can take ETH from here!\");\r\n        prizeFundManagerAddress.transfer(address(this).balance);\r\n    }\r\n\r\n    function sendPrizeWinner(address winner, uint256 value) {\r\n        require(msg.sender == prizeFundManagerAddress, \"Only Prize Fund Manager Contract can take ETH from here!\");\r\n        winner.transfer(value);\r\n    }\r\n\r\n    function getBalance() public view returns (uint256) {\r\n        return address(this).balance;\r\n    }\r\n    \r\n    function () public payable {\r\n        revert(\"Does not Accept EHT directly\");\r\n    }\r\n}",
  "sourcePath": "C:\\blockchain\\new_version\\hashlottery3\\truffle\\contracts\\PrizeFundWallet.sol",
  "compiler": {
    "name": "solc",
    "version": "0.4.24+commit.e67f0147.Emscripten.clang"
  },
  "schemaVersion": "2.0.1",
  "updatedAt": "2018-12-10T17:52:30.241Z"
}