{
  "contractName": "ProfitWallet",
  "abi": [
    {
      "constant": true,
      "inputs": [],
      "name": "lottery_seller",
      "outputs": [
        {
          "name": "",
          "type": "address"
        }
      ],
      "payable": false,
      "stateMutability": "view",
      "type": "function"
    },
    {
      "constant": true,
      "inputs": [],
      "name": "token_contract",
      "outputs": [
        {
          "name": "",
          "type": "address"
        }
      ],
      "payable": false,
      "stateMutability": "view",
      "type": "function"
    },
    {
      "constant": true,
      "inputs": [],
      "name": "token_contract_address",
      "outputs": [
        {
          "name": "",
          "type": "address"
        }
      ],
      "payable": false,
      "stateMutability": "view",
      "type": "function"
    },
    {
      "constant": true,
      "inputs": [],
      "name": "lottery",
      "outputs": [
        {
          "name": "",
          "type": "address"
        }
      ],
      "payable": false,
      "stateMutability": "view",
      "type": "function"
    },
    {
      "constant": true,
      "inputs": [],
      "name": "profit_manager",
      "outputs": [
        {
          "name": "",
          "type": "address"
        }
      ],
      "payable": false,
      "stateMutability": "view",
      "type": "function"
    },
    {
      "constant": true,
      "inputs": [],
      "name": "prize_fund_wallet",
      "outputs": [
        {
          "name": "",
          "type": "address"
        }
      ],
      "payable": false,
      "stateMutability": "view",
      "type": "function"
    },
    {
      "constant": true,
      "inputs": [],
      "name": "current_lap",
      "outputs": [
        {
          "name": "",
          "type": "uint256"
        }
      ],
      "payable": false,
      "stateMutability": "view",
      "type": "function"
    },
    {
      "constant": false,
      "inputs": [
        {
          "name": "newOwner",
          "type": "address"
        }
      ],
      "name": "transferOwnership",
      "outputs": [],
      "payable": false,
      "stateMutability": "nonpayable",
      "type": "function"
    },
    {
      "inputs": [],
      "payable": false,
      "stateMutability": "nonpayable",
      "type": "constructor"
    },
    {
      "payable": true,
      "stateMutability": "payable",
      "type": "fallback"
    },
    {
      "constant": false,
      "inputs": [
        {
          "name": "tokenAddress",
          "type": "address"
        }
      ],
      "name": "setERC20TokenAddress",
      "outputs": [],
      "payable": false,
      "stateMutability": "nonpayable",
      "type": "function"
    },
    {
      "constant": false,
      "inputs": [
        {
          "name": "_prizeFundWallet",
          "type": "address"
        }
      ],
      "name": "setPrizeFundWalletAddress",
      "outputs": [],
      "payable": false,
      "stateMutability": "nonpayable",
      "type": "function"
    },
    {
      "constant": false,
      "inputs": [
        {
          "name": "_lotterySeller",
          "type": "address"
        }
      ],
      "name": "setLotterySellerAddress",
      "outputs": [],
      "payable": false,
      "stateMutability": "nonpayable",
      "type": "function"
    },
    {
      "constant": false,
      "inputs": [
        {
          "name": "_lottery",
          "type": "address"
        }
      ],
      "name": "setLotteryAddress",
      "outputs": [],
      "payable": false,
      "stateMutability": "nonpayable",
      "type": "function"
    },
    {
      "constant": false,
      "inputs": [
        {
          "name": "_profitManager",
          "type": "address"
        }
      ],
      "name": "setProfitManagerAddress",
      "outputs": [],
      "payable": false,
      "stateMutability": "nonpayable",
      "type": "function"
    },
    {
      "constant": false,
      "inputs": [
        {
          "name": "_holder",
          "type": "address"
        },
        {
          "name": "_proportion",
          "type": "uint256"
        }
      ],
      "name": "updateShareHolder",
      "outputs": [],
      "payable": false,
      "stateMutability": "nonpayable",
      "type": "function"
    },
    {
      "constant": false,
      "inputs": [
        {
          "name": "_lap",
          "type": "uint256"
        }
      ],
      "name": "receiveProfit",
      "outputs": [],
      "payable": true,
      "stateMutability": "payable",
      "type": "function"
    },
    {
      "constant": false,
      "inputs": [],
      "name": "closeCurrentLap",
      "outputs": [],
      "payable": false,
      "stateMutability": "nonpayable",
      "type": "function"
    },
    {
      "constant": false,
      "inputs": [
        {
          "name": "_shareholder",
          "type": "address"
        },
        {
          "name": "recepient",
          "type": "address"
        }
      ],
      "name": "payToShareholder",
      "outputs": [],
      "payable": false,
      "stateMutability": "nonpayable",
      "type": "function"
    },
    {
      "constant": false,
      "inputs": [
        {
          "name": "lotteryId",
          "type": "uint256"
        }
      ],
      "name": "sendProfitToPrizeFundWallet",
      "outputs": [],
      "payable": false,
      "stateMutability": "nonpayable",
      "type": "function"
    },
    {
      "constant": true,
      "inputs": [],
      "name": "getShareholderUnpaidDividends",
      "outputs": [
        {
          "name": "",
          "type": "uint256"
        }
      ],
      "payable": false,
      "stateMutability": "view",
      "type": "function"
    },
    {
      "constant": true,
      "inputs": [
        {
          "name": "_address",
          "type": "address"
        }
      ],
      "name": "getShareholderPortion",
      "outputs": [
        {
          "name": "",
          "type": "uint256"
        }
      ],
      "payable": false,
      "stateMutability": "view",
      "type": "function"
    },
    {
      "constant": true,
      "inputs": [
        {
          "name": "_address",
          "type": "address"
        }
      ],
      "name": "getShareholderIndex",
      "outputs": [
        {
          "name": "",
          "type": "uint256"
        }
      ],
      "payable": false,
      "stateMutability": "view",
      "type": "function"
    },
    {
      "constant": true,
      "inputs": [
        {
          "name": "_address",
          "type": "address"
        }
      ],
      "name": "getShareholder",
      "outputs": [
        {
          "name": "",
          "type": "address"
        },
        {
          "name": "",
          "type": "uint256"
        },
        {
          "name": "",
          "type": "uint256"
        }
      ],
      "payable": false,
      "stateMutability": "view",
      "type": "function"
    },
    {
      "constant": true,
      "inputs": [],
      "name": "getForDistribute",
      "outputs": [
        {
          "name": "",
          "type": "uint256"
        }
      ],
      "payable": false,
      "stateMutability": "view",
      "type": "function"
    },
    {
      "constant": true,
      "inputs": [],
      "name": "getBalance",
      "outputs": [
        {
          "name": "",
          "type": "uint256"
        }
      ],
      "payable": false,
      "stateMutability": "view",
      "type": "function"
    }
  ],
  "bytecode": "0x608060405234801561001057600080fd5b50336000806101000a81548173ffffffffffffffffffffffffffffffffffffffff021916908373ffffffffffffffffffffffffffffffffffffffff16021790555060006008819055506000600781905550600a606060405190810160405280600073ffffffffffffffffffffffffffffffffffffffff1681526020016000815260200160008152509080600181540180825580915050906001820390600052602060002090600302016000909192909190915060008201518160000160006101000a81548173ffffffffffffffffffffffffffffffffffffffff021916908373ffffffffffffffffffffffffffffffffffffffff1602179055506020820151816001015560408201518160020155505050612181806101306000396000f30060806040526004361061013e576000357c0100000000000000000000000000000000000000000000000000000000900463ffffffff1680630816b901146101ac57806312065fe0146101d75780632189b8c214610202578063227d9f651461022d5780632a332b2a146102be57806338143de11461030157806364690c3c146103585780639563dceb146103785780639595d357146103cf5780639638d45714610426578063978285ff146104895780639a91ae3d146104e0578063ae68598914610523578063ba13a57214610570578063ba786371146105c7578063c1dc232d1461061e578063d035ceff14610675578063d112bbfa1461068c578063d6e82e1c146106b9578063d75f7f86146106fc578063d7808dac1461073f578063e40d9c011461076a578063eae483c5146107c1578063f2fde38b14610804575b6040517f08c379a000000000000000000000000000000000000000000000000000000000815260040180806020018281038252601c8152602001807f446f6573206e6f742041636365707420454854206469726563746c790000000081525060200191505060405180910390fd5b3480156101b857600080fd5b506101c1610847565b6040518082815260200191505060405180910390f35b3480156101e357600080fd5b506101ec61092b565b6040518082815260200191505060405180910390f35b34801561020e57600080fd5b5061021761094a565b6040518082815260200191505060405180910390f35b34801561023957600080fd5b5061026e600480360381019080803573ffffffffffffffffffffffffffffffffffffffff169060200190929190505050610a18565b604051808473ffffffffffffffffffffffffffffffffffffffff1673ffffffffffffffffffffffffffffffffffffffff168152602001838152602001828152602001935050505060405180910390f35b3480156102ca57600080fd5b506102ff600480360381019080803573ffffffffffffffffffffffffffffffffffffffff169060200190929190505050610bb5565b005b34801561030d57600080fd5b50610316610cbd565b604051808273ffffffffffffffffffffffffffffffffffffffff1673ffffffffffffffffffffffffffffffffffffffff16815260200191505060405180910390f35b61037660048036038101908080359060200190929190505050610ce3565b005b34801561038457600080fd5b5061038d610f1f565b604051808273ffffffffffffffffffffffffffffffffffffffff1673ffffffffffffffffffffffffffffffffffffffff16815260200191505060405180910390f35b3480156103db57600080fd5b50610410600480360381019080803573ffffffffffffffffffffffffffffffffffffffff169060200190929190505050610f45565b6040518082815260200191505060405180910390f35b34801561043257600080fd5b50610487600480360381019080803573ffffffffffffffffffffffffffffffffffffffff169060200190929190803573ffffffffffffffffffffffffffffffffffffffff169060200190929190505050611057565b005b34801561049557600080fd5b5061049e6113fe565b604051808273ffffffffffffffffffffffffffffffffffffffff1673ffffffffffffffffffffffffffffffffffffffff16815260200191505060405180910390f35b3480156104ec57600080fd5b50610521600480360381019080803573ffffffffffffffffffffffffffffffffffffffff169060200190929190505050611424565b005b34801561052f57600080fd5b5061056e600480360381019080803573ffffffffffffffffffffffffffffffffffffffff1690602001909291908035906020019092919050505061152c565b005b34801561057c57600080fd5b506105856117db565b604051808273ffffffffffffffffffffffffffffffffffffffff1673ffffffffffffffffffffffffffffffffffffffff16815260200191505060405180910390f35b3480156105d357600080fd5b506105dc611801565b604051808273ffffffffffffffffffffffffffffffffffffffff1673ffffffffffffffffffffffffffffffffffffffff16815260200191505060405180910390f35b34801561062a57600080fd5b50610633611827565b604051808273ffffffffffffffffffffffffffffffffffffffff1673ffffffffffffffffffffffffffffffffffffffff16815260200191505060405180910390f35b34801561068157600080fd5b5061068a61184d565b005b34801561069857600080fd5b506106b760048036038101908080359060200190929190505050611956565b005b3480156106c557600080fd5b506106fa600480360381019080803573ffffffffffffffffffffffffffffffffffffffff169060200190929190505050611a44565b005b34801561070857600080fd5b5061073d600480360381019080803573ffffffffffffffffffffffffffffffffffffffff169060200190929190505050611b4c565b005b34801561074b57600080fd5b50610754611c54565b6040518082815260200191505060405180910390f35b34801561077657600080fd5b506107ab600480360381019080803573ffffffffffffffffffffffffffffffffffffffff169060200190929190505050611c5a565b6040518082815260200191505060405180910390f35b3480156107cd57600080fd5b50610802600480360381019080803573ffffffffffffffffffffffffffffffffffffffff169060200190929190505050611e04565b005b34801561081057600080fd5b50610845600480360381019080803573ffffffffffffffffffffffffffffffffffffffff169060200190929190505050611f4d565b005b600080600b60003373ffffffffffffffffffffffffffffffffffffffff1673ffffffffffffffffffffffffffffffffffffffff168152602001908152602001600020549050600081111515610904576040517f08c379a000000000000000000000000000000000000000000000000000000000815260040180806020018281038252601d8152602001807f5368617265486f6c646572206973206e6f74207265676973746572656400000081525060200191505060405180910390fd5b600a8181548110151561091357fe5b90600052602060002090600302016002015491505090565b60003073ffffffffffffffffffffffffffffffffffffffff1631905090565b60008060009054906101000a900473ffffffffffffffffffffffffffffffffffffffff1673ffffffffffffffffffffffffffffffffffffffff163373ffffffffffffffffffffffffffffffffffffffff16141515610a10576040517f08c379a000000000000000000000000000000000000000000000000000000000815260040180806020018281038252601e8152602001807f4f6e6c79206f776e65722063616e20646f207468697320616374696f6e21000081525060200191505060405180910390fd5b600854905090565b6000806000806000809054906101000a900473ffffffffffffffffffffffffffffffffffffffff1673ffffffffffffffffffffffffffffffffffffffff163373ffffffffffffffffffffffffffffffffffffffff16141515610ae2576040517f08c379a000000000000000000000000000000000000000000000000000000000815260040180806020018281038252601e8152602001807f4f6e6c79206f776e65722063616e20646f207468697320616374696f6e21000081525060200191505060405180910390fd5b600b60008673ffffffffffffffffffffffffffffffffffffffff1673ffffffffffffffffffffffffffffffffffffffff168152602001908152602001600020549050600a81815481101515610b3357fe5b906000526020600020906003020160000160009054906101000a900473ffffffffffffffffffffffffffffffffffffffff16600a82815481101515610b7457fe5b906000526020600020906003020160010154600a83815481101515610b9557fe5b906000526020600020906003020160020154935093509350509193909250565b6000809054906101000a900473ffffffffffffffffffffffffffffffffffffffff1673ffffffffffffffffffffffffffffffffffffffff163373ffffffffffffffffffffffffffffffffffffffff16141515610c79576040517f08c379a000000000000000000000000000000000000000000000000000000000815260040180806020018281038252601e8152602001807f4f6e6c79206f776e65722063616e20646f207468697320616374696f6e21000081525060200191505060405180910390fd5b80600660006101000a81548173ffffffffffffffffffffffffffffffffffffffff021916908373ffffffffffffffffffffffffffffffffffffffff16021790555050565b600160009054906101000a900473ffffffffffffffffffffffffffffffffffffffff1681565b600160009054906101000a900473ffffffffffffffffffffffffffffffffffffffff1673ffffffffffffffffffffffffffffffffffffffff163373ffffffffffffffffffffffffffffffffffffffff16141515610dce576040517f08c379a000000000000000000000000000000000000000000000000000000000815260040180806020018281038252602e8152602001807f4f6e6c79204c6f74746572792053656c6c657220436f6e74726163742063616e81526020017f207075742045544820686572652100000000000000000000000000000000000081525060400191505060405180910390fd5b600081111515610e46576040517f08c379a000000000000000000000000000000000000000000000000000000000815260040180806020018281038252600f8152602001807f4c6170206973207265717569726564000000000000000000000000000000000081525060200191505060405180910390fd5b600034111515610ee4576040517f08c379a00000000000000000000000000000000000000000000000000000000081526004018080602001828103825260258152602001807f416d6f756e74206f66206d6f6e6579206d75737420626520626967676572207481526020017f68616e203000000000000000000000000000000000000000000000000000000081525060400191505060405180910390fd5b806007819055503460086000828254019250508190555034600960008381526020019081526020016000206000828254019250508190555050565b600260009054906101000a900473ffffffffffffffffffffffffffffffffffffffff1681565b6000806000809054906101000a900473ffffffffffffffffffffffffffffffffffffffff1673ffffffffffffffffffffffffffffffffffffffff163373ffffffffffffffffffffffffffffffffffffffff1614151561100c576040517f08c379a000000000000000000000000000000000000000000000000000000000815260040180806020018281038252601e8152602001807f4f6e6c79206f776e65722063616e20646f207468697320616374696f6e21000081525060200191505060405180910390fd5b600b60008473ffffffffffffffffffffffffffffffffffffffff1673ffffffffffffffffffffffffffffffffffffffff16815260200190815260200160002054905080915050919050565b600080600460009054906101000a900473ffffffffffffffffffffffffffffffffffffffff1673ffffffffffffffffffffffffffffffffffffffff163373ffffffffffffffffffffffffffffffffffffffff16141515611145576040517f08c379a00000000000000000000000000000000000000000000000000000000081526004018080602001828103825260348152602001807f4f6e6c792050726f666974204d616e6167657220436f6e74726163742063616e81526020017f2074616b65204554482066726f6d20686572652100000000000000000000000081525060400191505060405180910390fd5b600073ffffffffffffffffffffffffffffffffffffffff168473ffffffffffffffffffffffffffffffffffffffff1614151515611210576040517f08c379a00000000000000000000000000000000000000000000000000000000081526004018080602001828103825260228152602001807f41646472657373206f66207368617265686f6c6465722069732072657175697281526020017f656400000000000000000000000000000000000000000000000000000000000081525060400191505060405180910390fd5b600b60008573ffffffffffffffffffffffffffffffffffffffff1673ffffffffffffffffffffffffffffffffffffffff1681526020019081526020016000205491506000821115156112ca576040517f08c379a000000000000000000000000000000000000000000000000000000000815260040180806020018281038252601d8152602001807f5368617265486f6c646572206973206e6f74207265676973746572656400000081525060200191505060405180910390fd5b600a828154811015156112d957fe5b906000526020600020906003020160020154905060008111151561138b576040517f08c379a00000000000000000000000000000000000000000000000000000000081526004018080602001828103825260378152602001807f54686973205368617265486f6c64657220686173206e6f7420617661696c616281526020017f6c65206d6f6e6579206f6e206869732062616c616e636500000000000000000081525060400191505060405180910390fd5b6000600a8381548110151561139c57fe5b9060005260206000209060030201600201819055508273ffffffffffffffffffffffffffffffffffffffff166108fc829081150290604051600060405180830381858888f193505050501580156113f7573d6000803e3d6000fd5b5050505050565b600360009054906101000a900473ffffffffffffffffffffffffffffffffffffffff1681565b6000809054906101000a900473ffffffffffffffffffffffffffffffffffffffff1673ffffffffffffffffffffffffffffffffffffffff163373ffffffffffffffffffffffffffffffffffffffff161415156114e8576040517f08c379a000000000000000000000000000000000000000000000000000000000815260040180806020018281038252601e8152602001807f4f6e6c79206f776e65722063616e20646f207468697320616374696f6e21000081525060200191505060405180910390fd5b80600460006101000a81548173ffffffffffffffffffffffffffffffffffffffff021916908373ffffffffffffffffffffffffffffffffffffffff16021790555050565b600080600360009054906101000a900473ffffffffffffffffffffffffffffffffffffffff1673ffffffffffffffffffffffffffffffffffffffff163373ffffffffffffffffffffffffffffffffffffffff1614151561161a576040517f08c379a00000000000000000000000000000000000000000000000000000000081526004018080602001828103825260358152602001807f4f6e6c7920455243323020436f6e74726163742063616e20757064617465207381526020017f68617265686f6c64657227732062616c616e636521000000000000000000000081525060400191505060405180910390fd5b6000600b60008673ffffffffffffffffffffffffffffffffffffffff1673ffffffffffffffffffffffffffffffffffffffff16815260200190815260200160002054141561176d57600a6060604051908101604052808673ffffffffffffffffffffffffffffffffffffffff16815260200185815260200160008152509080600181540180825580915050906001820390600052602060002090600302016000909192909190915060008201518160000160006101000a81548173ffffffffffffffffffffffffffffffffffffffff021916908373ffffffffffffffffffffffffffffffffffffffff16021790555060208201518160010155604082015181600201555050915060018203600b60008673ffffffffffffffffffffffffffffffffffffffff1673ffffffffffffffffffffffffffffffffffffffff168152602001908152602001600020819055506117d5565b600b60008573ffffffffffffffffffffffffffffffffffffffff1673ffffffffffffffffffffffffffffffffffffffff16815260200190815260200160002054905082600a828154811015156117bf57fe5b9060005260206000209060030201600101819055505b50505050565b600660009054906101000a900473ffffffffffffffffffffffffffffffffffffffff1681565b600460009054906101000a900473ffffffffffffffffffffffffffffffffffffffff1681565b600560009054906101000a900473ffffffffffffffffffffffffffffffffffffffff1681565b600660009054906101000a900473ffffffffffffffffffffffffffffffffffffffff1673ffffffffffffffffffffffffffffffffffffffff163373ffffffffffffffffffffffffffffffffffffffff16141515611938576040517f08c379a00000000000000000000000000000000000000000000000000000000081526004018080602001828103825260368152602001807f4f6e6c79204c6f747465727920436f6e74726163742063616e20636c6f73652081526020017f63757272656e74206c6170206f66206c6f74746572790000000000000000000081525060400191505060405180910390fd5b600060085411156119545761194b612054565b60006008819055505b565b600660009054906101000a900473ffffffffffffffffffffffffffffffffffffffff1673ffffffffffffffffffffffffffffffffffffffff163373ffffffffffffffffffffffffffffffffffffffff16141515611a41576040517f08c379a000000000000000000000000000000000000000000000000000000000815260040180806020018281038252602d8152602001807f4f6e6c79204c6f747465727920436f6e74726163742063616e2063616c6c207481526020017f6869732066756e6374696f6e2e0000000000000000000000000000000000000081525060400191505060405180910390fd5b50565b6000809054906101000a900473ffffffffffffffffffffffffffffffffffffffff1673ffffffffffffffffffffffffffffffffffffffff163373ffffffffffffffffffffffffffffffffffffffff16141515611b08576040517f08c379a000000000000000000000000000000000000000000000000000000000815260040180806020018281038252601e8152602001807f4f6e6c79206f776e65722063616e20646f207468697320616374696f6e21000081525060200191505060405180910390fd5b80600560006101000a81548173ffffffffffffffffffffffffffffffffffffffff021916908373ffffffffffffffffffffffffffffffffffffffff16021790555050565b6000809054906101000a900473ffffffffffffffffffffffffffffffffffffffff1673ffffffffffffffffffffffffffffffffffffffff163373ffffffffffffffffffffffffffffffffffffffff16141515611c10576040517f08c379a000000000000000000000000000000000000000000000000000000000815260040180806020018281038252601e8152602001807f4f6e6c79206f776e65722063616e20646f207468697320616374696f6e21000081525060200191505060405180910390fd5b80600160006101000a81548173ffffffffffffffffffffffffffffffffffffffff021916908373ffffffffffffffffffffffffffffffffffffffff16021790555050565b60075481565b6000806000809054906101000a900473ffffffffffffffffffffffffffffffffffffffff1673ffffffffffffffffffffffffffffffffffffffff163373ffffffffffffffffffffffffffffffffffffffff16141515611d21576040517f08c379a000000000000000000000000000000000000000000000000000000000815260040180806020018281038252601e8152602001807f4f6e6c79206f776e65722063616e20646f207468697320616374696f6e21000081525060200191505060405180910390fd5b600b60008473ffffffffffffffffffffffffffffffffffffffff1673ffffffffffffffffffffffffffffffffffffffff168152602001908152602001600020549050600081111515611ddb576040517f08c379a000000000000000000000000000000000000000000000000000000000815260040180806020018281038252601d8152602001807f5368617265486f6c646572206973206e6f74207265676973746572656400000081525060200191505060405180910390fd5b600a81815481101515611dea57fe5b906000526020600020906003020160010154915050919050565b6000809054906101000a900473ffffffffffffffffffffffffffffffffffffffff1673ffffffffffffffffffffffffffffffffffffffff163373ffffffffffffffffffffffffffffffffffffffff16141515611ec8576040517f08c379a000000000000000000000000000000000000000000000000000000000815260040180806020018281038252601e8152602001807f4f6e6c79206f776e65722063616e20646f207468697320616374696f6e21000081525060200191505060405180910390fd5b80600260006101000a81548173ffffffffffffffffffffffffffffffffffffffff021916908373ffffffffffffffffffffffffffffffffffffffff16021790555080600360006101000a81548173ffffffffffffffffffffffffffffffffffffffff021916908373ffffffffffffffffffffffffffffffffffffffff16021790555050565b6000809054906101000a900473ffffffffffffffffffffffffffffffffffffffff1673ffffffffffffffffffffffffffffffffffffffff163373ffffffffffffffffffffffffffffffffffffffff16141515612011576040517f08c379a000000000000000000000000000000000000000000000000000000000815260040180806020018281038252601e8152602001807f4f6e6c79206f776e65722063616e20646f207468697320616374696f6e21000081525060200191505060405180910390fd5b806000806101000a81548173ffffffffffffffffffffffffffffffffffffffff021916908373ffffffffffffffffffffffffffffffffffffffff16021790555050565b60008060008092505b600a805490508310156121505760006008541115156120e4576040517f08c379a000000000000000000000000000000000000000000000000000000000815260040180806020018281038252601c8152602001807f50726f66697420666f7220646973747269627574696e6720697320300000000081525060200191505060405180910390fd5b600a838154811015156120f357fe5b90600052602060002090600302019150670de0b6b3a764000060085483600101540281151561211e57fe5b04905080826002016000828254019250508190555080600860008282540392505081905550828060010193505061205d565b5050505600a165627a7a72305820f8425c549ab8c9f885c33d23c8e94e588a8fd6dbfb5422efc318ff9a8d62c1c40029",
  "source": "pragma solidity ^0.4.24;\r\n\r\nimport \"./owner.sol\";\r\nimport \"./interfaces/IERC20.sol\";\r\n\r\n\r\ncontract ProfitWallet is Ownable\r\n{\r\n    address public lottery_seller; // only he can send tokens to this contract\r\n    IERC20  public token_contract; // our main tokens\r\n    address public token_contract_address; // erc20 contract address\r\n    address public profit_manager; // contract can send tokens only to him\r\n    address public prize_fund_wallet; // lottery prize wallet address\r\n    address public lottery; // lottery contact address\r\n\r\n    uint public current_lap; // num of current lap\r\n    uint private for_distribute; // profit for distribute\r\n\r\n    mapping (uint => uint) private lottery_laps; // lapnum=>lap_balance\r\n\r\n    struct ShareHolder{\r\n        address shareholder;\r\n        uint proportion;\r\n        uint profit_balance;\r\n    }\r\n    ShareHolder[] private shareholders;\r\n\r\n    mapping (address => uint) private index_shareholders;\r\n\r\n    constructor () public\r\n    {\r\n        for_distribute = 0; // initial available profit for distribution\r\n        current_lap = 0; // current lap's num\r\n        shareholders.push(ShareHolder(0,0,0)); // initial array\r\n    }\r\n\r\n    function setERC20TokenAddress(address tokenAddress) public onlyOwner\r\n    {\r\n        token_contract = IERC20(tokenAddress);\r\n        token_contract_address = tokenAddress;\r\n    }\r\n\r\n    function setPrizeFundWalletAddress(address _prizeFundWallet) public onlyOwner\r\n    {\r\n        prize_fund_wallet = _prizeFundWallet;\r\n    }\r\n\r\n    function setLotterySellerAddress(address _lotterySeller) public onlyOwner\r\n    {\r\n        lottery_seller = _lotterySeller;\r\n    }\r\n\r\n    function setLotteryAddress(address _lottery) public onlyOwner\r\n    {\r\n        lottery = _lottery;\r\n    }\r\n\r\n    function setProfitManagerAddress(address _profitManager) public onlyOwner\r\n    {\r\n        profit_manager = _profitManager;\r\n    }\r\n\r\n    // update shareholders\r\n    function updateShareHolder(address _holder, uint _proportion) public onlyERC20\r\n    {\r\n        // set new shareholder\r\n        if (index_shareholders[_holder] == 0){\r\n            uint new_index = shareholders.push(ShareHolder(_holder, _proportion, 0));\r\n            index_shareholders[_holder] = new_index-1;\r\n        }\r\n        // update exists shareholder\r\n        else{\r\n            uint _index = index_shareholders[_holder];\r\n            shareholders[_index].proportion = _proportion;\r\n        }\r\n    }\r\n\r\n    //receive profit for current lap from lottery contract\r\n    function receiveProfit(uint _lap) payable public onlyLotterySeller\r\n    {\r\n        require(_lap>0, \"Lap is required\");\r\n        require(msg.value > 0, \"Amount of money must be bigger than 0\");\r\n        current_lap = _lap;\r\n        for_distribute += msg.value;\r\n        lottery_laps[_lap] += msg.value;\r\n    }\r\n\r\n    //calculate profit for shareholders\r\n    function distributeProfit() private\r\n    {\r\n        for(uint i=0; i<shareholders.length; i++){\r\n            require(for_distribute>0, \"Profit for distributing is 0\");\r\n            ShareHolder storage _item = shareholders[i];\r\n            // shareholder, proportion, profit_balance\r\n            uint val = (_item.proportion * for_distribute)/1e18;\r\n            _item.profit_balance += val;\r\n            for_distribute -= val;\r\n        }\r\n    }\r\n\r\n    //close current lap and distribute profit. external callable\r\n    function closeCurrentLap() public onlyLottery\r\n    {\r\n        if (for_distribute > 0){\r\n            distributeProfit();\r\n            for_distribute = 0;\r\n        }\r\n    }\r\n\r\n    // send shareholder's profit to him\r\n    function payToShareholder(address _shareholder, address recepient) public onlyProfitManager\r\n    {\r\n        // check incoming params\r\n        require(_shareholder != address(0), \"Address of shareholder is required\");\r\n\r\n        // check lap's data for exist\r\n        uint _index = index_shareholders[_shareholder];\r\n        require(_index>0, \"ShareHolder is not registered\");\r\n\r\n        uint available_balance = shareholders[_index].profit_balance;\r\n        require(available_balance>0, \"This ShareHolder has not available money on his balance\");\r\n        shareholders[_index].profit_balance = 0;\r\n\r\n        // return profit to holder\r\n        recepient.transfer(available_balance);\r\n    }\r\n\r\n    function sendProfitToPrizeFundWallet(uint256 lotteryId) public\r\n    {\r\n        require(msg.sender == lottery, \"Only Lottery Contract can call this function.\");\r\n        \r\n        //send all profit for lottery with ID == lotteryId to prize_fund_wallet\r\n        //uint256 lapBalance = lottery_laps[lotteryId].lapBalance;\r\n        //lottery_laps[lotteryId].profitLost = true;\r\n        //lottery_laps[lotteryId].profitUsed = lapBalance;\r\n        //lottery_laps[lotteryId].lapBalance = 0;\r\n        \r\n        //prize_fund_wallet.transfer(lapBalance);\r\n    }\r\n\r\n    function getShareholderUnpaidDividends() public view returns (uint256)\r\n    {\r\n        // check lap's data for exist\r\n        uint _index = index_shareholders[msg.sender];\r\n        require(_index > 0, \"ShareHolder is not registered\");\r\n\r\n        return shareholders[_index].profit_balance;\r\n    }\r\n\r\n   function getShareholderPortion(address _address) public view onlyOwner returns (uint256)\r\n    {\r\n        // check lap's data for exist\r\n        uint _index = index_shareholders[_address];\r\n        require(_index > 0, \"ShareHolder is not registered\");\r\n\r\n        return shareholders[_index].proportion;\r\n    }\r\n    \r\n    function getShareholderIndex(address _address) public view onlyOwner returns (uint256)\r\n    {\r\n        uint _index = index_shareholders[_address];\r\n        return _index;\r\n    }\r\n    \r\n    function getShareholder(address _address) public view  onlyOwner returns (address, uint, uint)\r\n    {\r\n        uint _index = index_shareholders[_address];\r\n\r\n        return (shareholders[_index].shareholder, shareholders[_index].proportion, shareholders[_index].profit_balance);\r\n    }\r\n    \r\n    function getForDistribute() public view  onlyOwner returns (uint256)\r\n    {\r\n       return for_distribute;\r\n    }\r\n\r\n    modifier onlyProfitManager()\r\n    {\r\n        require(msg.sender == profit_manager, \"Only Profit Manager Contract can take ETH from here!\");\r\n        _;\r\n    }\r\n\r\n    modifier onlyERC20()\r\n    {\r\n        require(msg.sender == token_contract_address, \"Only ERC20 Contract can update shareholder's balance!\");\r\n        _;\r\n    }\r\n\r\n    modifier onlyLotterySeller()\r\n    {\r\n        require(msg.sender == lottery_seller, \"Only Lottery Seller Contract can put ETH here!\");\r\n        _;\r\n    }\r\n\r\n    modifier onlyLottery()\r\n    {\r\n        require(msg.sender == lottery, \"Only Lottery Contract can close current lap of lottery\");\r\n        _;\r\n    }\r\n\r\n    function () public payable {\r\n        revert(\"Does not Accept EHT directly\");\r\n    }\r\n\r\n    function getBalance() public view returns (uint256) {\r\n        return address(this).balance;\r\n    }\r\n}\r\n",
  "sourcePath": "C:\\blockchain\\new_version\\hashlottery3\\truffle\\contracts\\ProfitWallet.sol",
  "compiler": {
    "name": "solc",
    "version": "0.4.24+commit.e67f0147.Emscripten.clang"
  },
  "schemaVersion": "2.0.1",
  "updatedAt": "2018-12-10T17:52:30.360Z"
}